:020000040000FA
:10000000D83B00209D01000085250000A7010000CD
:1000100000000000000000000000000000000000E0
:10002000000000000000000000000000A901000026
:100030000000000000000000AB010000AD01000066
:1000400089100000E3550000E7550000F30F0000A1
:10005000ED0F0000AF0D0000A53C0000FB0F0000FD
:1000600035560000E9550000EB550000F50F000083
:10007000EF0F0000DD0E0000A73C0000FD0F0000A8
:1000800037560000ED550000EF550000F70F000057
:10009000FF0F0000C9560000ED2700008127000077
:1000A00039560000F1550000F3550000F90F00002B
:1000B0008327000041200000E5550000F10F0000FB
:1000C00000F002F800F03EF80CA030C80838241800
:1000D0002D18A246671EAB4654465D46AC4201D180
:1000E00000F030F87E460F3E0FCCB6460126334274
:1000F00000D0FB1AA246AB4633431847CC7C000025
:10010000EC7C0000103A02D378C878C1FAD85207C4
:1001100001D330C830C101D504680C6070470000BD
:100120000023002400250026103A01D378C1FBD813
:10013000520700D330C100D50B6070471FB51FBDFB
:1001400010B510BD00F0D2FD1146FFF7F7FF06F025
:100150001BFA00F0EAFD03B4FFF7F2FF03BC00F066
:100160001FFE000070B505460C46164602E00FCC97
:100170000FC5103E102EFAD2082E02D303CC03C5B1
:10018000083E042E07D301CC01C5361F03E02178B9
:100190002970641C6D1C761EF9D270BD074880471B
:1001A00007480047FEE7FEE7FEE7FEE7FEE7FEE75B
:1001B00004480549054A064B70470000E155000018
:1001C000C1000000D8170020D83B0020D8370020FD
:1001D000D8370020034670B502460B439B070FD16A
:1001E0000E4CE60100E008C208C91D1B9D433542C4
:1001F000F9D0D9B21170521C00290DD01B0AF8E7B2
:100200000B78491C1370521C002B05D00B78491C2D
:100210001370521C002BF3D170BD000001010101CD
:10022000F8B5042A2CD3830712D00B78491C03702D
:10023000401C521E83070BD00B78491C0370401CD6
:10024000521E830704D00B78491C0370401C521EB9
:100250008B079B0F05D0C91ADF002023DE1B08C9BE
:100260000AE0FFF77FFFF8BD1D4608C9FD401C46A8
:10027000B4402C4310C0121F042AF5D2F308C91A47
:10028000521EF0D40B78491C0370401C521EEAD455
:100290000B78491C0370401C012AE4D409780170D2
:1002A000F8BDD2B210B513029A1813049A1800F0D0
:1002B0000EF810BD01E004C0091F0429FBD28B0712
:1002C00001D50280801CC90700D002707047002948
:1002D0000BD0C30702D00270401C491E022904D370
:1002E000830702D50280801C891EE3E70022EEE727
:1002F0000022DFE70378C2781946437812061B0212
:1003000019438378C0781B04194311430902090A71
:10031000000608437047020A08704A70020C8A708F
:10032000020ECA707047002203098B422CD3030AC5
:100330008B4211D300239C464EE003460B433CD432
:10034000002243088B4231D303098B421CD3030A9A
:100350008B4201D394463FE0C3098B4201D3CB01CA
:10036000C01A524183098B4201D38B01C01A5241FA
:1003700043098B4201D34B01C01A524103098B42FE
:1003800001D30B01C01A5241C3088B4201D3CB00E9
:10039000C01A524183088B4201D38B00C01A5241CC
:1003A00043088B4201D34B00C01A5241411A00D27C
:1003B00001465241104670475DE0CA0F00D04942E5
:1003C000031000D34042534000229C4603098B4255
:1003D0002DD3030A8B4212D3FC22890112BA030ADD
:1003E0008B420CD3890192118B4208D3890192115F
:1003F0008B4204D389013AD0921100E08909C309E4
:100400008B4201D3CB01C01A524183098B4201D3E5
:100410008B01C01A524143098B4201D34B01C01AD0
:10042000524103098B4201D30B01C01A5241C30848
:100430008B4201D3CB00C01A524183088B4201D3B7
:100440008B00C01A5241D9D243088B4201D34B00D2
:10045000C01A5241411A00D20146634652415B1014
:10046000104601D34042002B00D5494270476346F5
:100470005B1000D3404201B50020C046C04602BD1B
:1004800070477047704700000246C80FC00781439D
:100490004B0030B54B405B009B0D20D01923DB0691
:1004A000C91801231B05994220DB0324A407042556
:1004B0001346AB400BD3002B04D1EB0613409B003B
:1004C000E34204D401246407002312195941FF2395
:1004D0001B0599420BD2C9000143500F09E0CB0222
:1004E00004D501430803024305D0054830BDFF2170
:1004F000C905084330BD084607210905884330BDBA
:100500000000C07FF0B5F94D0C091E092C402E40AB
:100510002F468BB0A7437DD0B543FCD0002E7AD0B8
:10052000002CFCD00D465D40ED0F2543AC1BFF2594
:10053000AD0464190894C502440DC9022143500D4D
:10054000DC0204430120C00701430443D2020191AD
:10055000200C110C00958C46010423468B430A9114
:1005600061460904E24D8A430991010A7D44491913
:100570008039097805464D4301266D18F605751B2F
:100580006943C90C640B891C4C436418B5012C1BCE
:10059000250C2E04B4434C434D43210C69188909A2
:1005A0000591009DE90701D00121C90704912C465E
:1005B00001996708CD072F434C08059DE10B4D437A
:1005C0002D0C29466646754302950D4645432E4639
:1005D000029D7D1BB44100950D465D4301942C0C9A
:1005E0002F040D465543AE462D0C3D430295039412
:1005F0007546049C2D04641B049406D2029C039D42
:10060000641C002675410395029401AC70CC009FD8
:100610007D1B01E03EE162E1B441090400950791D0
:1006200001940599A4086143090C0C464443650BE9
:10063000E7040C4666467443A646640B3C430395A8
:1006400002947446049DE4042C1B049406D2029C7C
:10065000039D641C002675410395029401AC70CC87
:10066000009F7D1BB44101940C465C430095650FCF
:10067000E7000C465443A646640F3C43039502949E
:100680007446049DE4002C1B049406D2029C039D36
:10069000641C002675410395029401AC70CC009F48
:1006A0007D1BB441AE09AF06049DC900AD092F43BF
:1006B000049DA406AD060495079D3443691807916F
:1006C000059DE10B4D432D0C294666467543029569
:1006D0000D4645432E46029D7D1BB44100950D46B7
:1006E0005D4301942C0C2F040D465543AE462D0C52
:1006F0003D43029503947546049C2D04641B0494A9
:1007000006D2029C039D641C002675410395029449
:1007100001AC70CC009F7D1BB44101948C05069404
:10072000079C890A611800950791019C0599A40806
:100730006143090C0D464543680BEF040D466446C2
:1007400065436C0B3C43049FED047D1BAC4602D219
:100750000025641C6841009E019D371B85410846A9
:10076000584301950C46460FC5005443600F28437B
:100770006546E4002C1B02D20025401C6E41019D01
:100780003F1AB5412846BD09800628438446A00982
:10079000BF064E020699A40676180743079D00205F
:1007A00068410A99079019430020099B0090604610
:1007B000FF1913434041E20F64003A43A446044644
:1007C000D71A8C41A04203D90120009020463A4616
:1007D000C70F941840416246D20F2243644664001A
:1007E0000494009CBE466400D71AA44604460297AF
:1007F0008C417746002F01D1A04204D96046401CAD
:100800008446029A2046C40FA64694184041049A92
:100810000546D20F224364466400D31A8D417146C7
:10082000002901D1A84202D928461A46641C104367
:100830000122002800D0164361020020079B89197D
:1008400004465C410223002C02DB49181346644134
:10085000089DCE0A2D145D194B056705E10A2C058C
:100860000D1908993E43C9076940002B08D09340F1
:1008700006D30022761C5141002B01D17608760068
:100880001C4A002D43DB154241D0AA433FD03046DD
:100890000BB0F0BD06180D464D41174C7642AC41E9
:1008A0001AD395181C465C41134A6D42A24113D3DA
:1008B000012252054C00D4420AD15C00D4420BD034
:1008C0004B4002D592021143E2E749004908DFE7B5
:1008D0005940C90FC90718E000200849D8E7054862
:1008E00001420DD10342F7D0F2E700000000FF07FC
:1008F000D87700000000F07F0000E0FF0000F87FE4
:10090000114859400143C01241400020C0E7012373
:10091000089A9B069A4205DC032252078918C90FE0
:10092000C907B5E7052252078918074A1143D212B1
:100930005140ADE770B515461C4602460B462846A9
:100940002146FFF7DFFD70BDFFFFFF7FF0B58B4C49
:100950000F09254689B0BD437BD01D092646AE430D
:10096000FAD00E465E402740F60F3E43254071D038
:1009700024012142FBD0FF24AD19A4042D1B0395B3
:1009800001252D05DB02DB0AC9022B43C90A2943D5
:100990001E010901040F130F050121431701880BE4
:1009A000820391432D098C46A90B1E438A0395436C
:1009B000B30B9A0396433F09BA0B9403A7430296DD
:1009C0002E467E430497B6464E19D7190C4601961B
:1009D000544305977E43371B7646BF1B3601B64608
:1009E000BE0B361900967646BC043719009C01D31D
:1009F000641C00946400002F01D001263443029E41
:100A0000049F754366467E430496760034196E0053
:100A100034190094029C019E1C196643751BAE4656
:100A2000069465464519059C05956C4359437546E2
:100A30000891691A0191049E01465143A41B049137
:100A4000611A009C0791E10605D06109012211435A
:100A500002E072E06EE06109089D00272C0A2D0675
:100A60006918049D7C412A0A2D066918019D62417E
:100A7000AC0DAD026D185441079A910D92025519B3
:100A80006141029A644658435443069B059A5A436F
:100A9000121A131B9A0E9B015B187A41010B000579
:100AA000C3185141220A200644195A419A4200D2E1
:100AB000491C01204002814203D315230226F6433C
:100AC00002E014230326F6432020C51AA940174646
:100AD000AF40DA400A4320460399D84009147318FE
:100AE00019055118039A3843D2075140AC4009D038
:100AF0000122944006D30022401C5141002C01D118
:100B0000400840001E4A934212D3012203989206E5
:100B1000904207DB0520400709181A480143C0121C
:100B2000414004E0032040070818C10FC907002016
:100B300009B0F0BD0020F107FAE705180C464C415A
:100B400011486D42A04115D394181A465A410E48D7
:100B5000644290410ED301204A004005824209D3ED
:100B60005A00824206D35940C90F084AC9070020DB
:100B70001143DDE700200649DAE700000000FF0727
:100B8000FE070000FFFFFF7F0000E0FF0000F07F96
:100B90000000F87F0121C9050123411842001B060E
:100BA000D3185B0E0AD0C1100722D206891840075D
:100BB0005242D14201D5520089187047090208D526
:100BC0000146002A03D0C10FC90700207047104614
:100BD0007047420202D000200249704707210905F0
:100BE0000143F4E70000F87F1F22030C02D10F221B
:100BF00000041CD0030E01D10002083A030F01D1FA
:100C00000001121F830F01D18000921E002801DB1A
:100C10004000521ED205511802125118192290405C
:100C200004D3491C002801D14908490008467047EF
:100C3000C10FC90700D04042012292071143D3E7F8
:100C400001218907D0E7000010B5FF231B064400EF
:100C50009C421DD84C009C421AD80346124A0B43B2
:100C600007D4401A02D3EFF3008010BDEFF30080E9
:100C700010BD081A06D2EFF3008001219043C90786
:100C8000084302E0EFF30080904380F3008810BD3A
:100C90000D231B041A4204D01146002000F006F870
:100CA00010BD00F01BF810BD00000090C80212D566
:100CB0004803400F002804D0C803C04301218840E6
:100CC0007047EFF300800001000903210907084382
:100CD00080F30088704700207047000010B502487C
:100CE00000F02BF810BD00000000C07F754600F03A
:100CF00053F8AE46050069465346C008C000854615
:100D000018B020B5FFF754FA60BC00274908B64672
:100D10000026C0C5C0C5C0C5C0C5C0C5C0C5C0C50A
:100D2000C0C5403D49008D46704710B50446C046D9
:100D3000C0462046FFF70FFA10BD10B50C4611074C
:100D4000090F092904D00A290AD008290CD104E086
:100D500011460820FFF7AAFF06E0510606D501E07C
:100D6000510601D50120C007214610BDD10607D587
:100D700001010909CC084907000E0006044309E0F7
:100D8000410F20024907000A0143200E00061D22E0
:100D9000D14101430846E7E7004870477817002033
:100DA00001491820ABBEFEE72600020070477047DD
:100DB00070B50D46064600242A463146204601F00D
:100DC00075FC641CE4B2022CF6D370BD044900B576
:100DD000024A081F04F0F6F800BD000008010020D8
:100DE0001C01002010B50A490124084A081F04F01C
:100DF000E9F8012801D0032010BD06480649406AE1
:100E0000884200D00324204610BD00005401002079
:100E100024010020000100185AA56868F3B581B0CC
:100E200001200E46086001F0D3FB284CA068012287
:100E300052031043A0606168082081436160A1688B
:100E40001143A16061688143616021688143216031
:100E5000322004F0C5FD00F0EBFD206840084000A2
:100E6000206000251A4F0224322004F0B9FD3868B2
:100E70006040386006F0C2FB6D1C062DF4DB38685C
:100E80002043386000F0D4FD019801281DD105F001
:100E900099FE1049104D0C46C8600E4A00201832C9
:100EA000111F01F06BFAA8420ADD386802214840A0
:100EB000386006F0A3FBE06805F07EFE0A28ECD35C
:100EC000A069A84201DD17203060FEBD0046005C2D
:100ED0000044005CE8010020000070417047000001
:100EE00000B572B60B4908780B4A107000220A70E0
:100EF00062B600280DD0410702D50021012006E08E
:100F0000800702D50021022001E000210320FFF725
:100F10004FFF00BD45010020440100200F4900B5EE
:100F20008A7B0B462033824216D3886800280BD078
:100F3000087BC0090AD00A480822C16DC06D097833
:100F40001140491C017003E0D86800BD05F018FF8E
:100F5000FF20C043D86000BD0248FBE720170020F7
:100F6000947B0000FEFEFFFFF0B51B4A0146937B19
:100F700000208B422CD3194E916875690F46184B8F
:100F8000184C2F4302D0127BD20905D0134A0C32E1
:100F90001268002D05D008E005F0F2FE1846E36067
:100FA000F0BD914212D0002905D0914200D2E360F9
:100FB00001217170F0BD0C4AE360D16D18460978CB
:100FC00008231940D26D491C1170F0BD0020F0BDFE
:100FD0000348401EF0BD000020170020A80100209B
:100FE000FFFEFFFF40170020947B00007047704712
:100FF0007047704770477047704770477047704739
:101000000200000EF0B51C4A917B814230D31B4890
:10101000916845690B4614462B43194E0827194819
:101020002034002B0AD0127B120607D5F16DF26D29
:1010300009783940491C1170E060F0BD0F4A0C324C
:101040001268002D03D1914210D0002906D09142A0
:1010500000D2E060034605F093FE0BE0E060F16D26
:10106000F26D09783940491C1170F0BD0020F0BDC7
:10107000044B5B1E1846F0BD20170020A80100207D
:10108000947B0000FFFEFFFF10B5144948688007FD
:10109000486801D502220EE040070ED5104882684C
:1010A0000F231B069A438260826801235B061A4362
:1010B000826048680422104348600A490020087092
:1010C00009488168090B090381608168074A114357
:1010D0008160002001F064FA10BD00000001005C96
:1010E0000043005C460100200021005C6307000013
:1010F000F8B5384A0124107AC007002800D01472CD
:1011000010790025C107344E002907D005F098FC5E
:1011100032480178214301703570F8BD30498307AA
:1011200007D5086B0078000601D4012016E00120E5
:1011300002E0430703D5022006F088FBF8BD030751
:1011400001D50320F8E7C30601D50420F4E78306A0
:1011500001D50520F0E7430603D5002005F0BEFCCD
:10116000F8BD000601D50620E6E7107A08278307B8
:10117000002B1EDA02201072194880304068027875
:10118000D207D20F027017484B690268D2791A70E1
:101190000068C279144840680270C868C96800785D
:1011A0003840087011480560057245728572C57235
:1011B000F8BD1546010704D506F088F92F72347082
:1011C000F8BDC10601D5102002E04007F8D5042083
:1011D0001072F8BD804000414A0100204B01002000
:1011E000947B000078010020947C0000CC0E00204D
:1011F00070B504460E460D4803212018C903154654
:10120000884208D31D20C00601212018C902884247
:1012100001D3012070BDA00502D1204600F008F8DE
:101220002A463146204601F08BFA70BD0080FFEF60
:10123000104A032300218218DB039A4206D31D22A1
:10124000D20601238218DB029A420ED20A4AFA23FE
:101250005360F523536090600320106140051368CC
:10126000002B04D0491C8142F9D90120704700208D
:10127000704700000080FFEF0004004010B52149D6
:1012800060220878012410401F4A002804D020283A
:1012900032D0402833D12CE04878030004F068FABB
:1012A0000D14082F202F170E1D0B1A1123262F00A7
:1012B00004F01CFC10BD04F07BFC10BD04F0A2FC8B
:1012C00010BD04F02DFD10BD04F060FD10BD04F054
:1012D000E3FD10BD04F002FE10BD04F07BFE10BD66
:1012E00004F080FE10BD04F0C9FE10BD04F070FFD4
:1012F00010BD06F06FF910BD04F0D0FA10BD1470E7
:1013000010BD00007E01002020410041F0B58DB0ED
:10131000FFF75CFDFFF766FD0024774F012800D042
:101320003C7009A905A800F071F9744A6421744859
:1013300001F03EFA71487349006E0290884215D15F
:101340006E486A46C18E1181008F508168460299AD
:1013500004F064FB69486A464230818A1181C08A80
:10136000508103A8029904F059FB08E00094012081
:101370006946019448708870009804940390624D07
:1013800001214902A868FEF7B1FF2C800C225F49B9
:10139000A868FEF745FF5E485E4E41695E4C491CF9
:1013A0002FD08069401C2CD05CA1A868FEF712FFEA
:1013B0003878002855D0FF2821D04521A868017031
:1013C00031780907090F615C017131880905090F3E
:1013D000615C417131680903090F615C8171316899
:1013E0000901090F615CC17171680A07120FA25CE3
:1013F00002720A02120FA25C427209032EE0492116
:10140000DCE746A1A868FEF7E5FE3878002828D07A
:10141000FF286FD0B0880005000F215C2031A8683C
:10142000017031680903090F615C01713168090FAE
:10143000615C417131680901090F615C8171317929
:101440000906090F615CC17171680A07120FA25C7D
:1014500002720A05120FA25C42720901090F615C57
:101460008172A86821784170A17881700821C172C9
:10147000A86814210C30FEF739FF28882A4C203048
:1014800080B22880A968081805A92060FEF7A2FE8E
:1014900022682026D6720199009804F0F4FA216897
:1014A00030030F461C31FEF736FF0220B8760020CD
:1014B000F8762888203080B22880A968081809A901
:1014C0002060FEF787FE2268D6720499039804F024
:1014D000DAFA2468B00121461C31FEF71CFFFF2018
:1014E0000330A076000AE0762888203028800DB0EE
:1014F000F0BDFFE7692192E7080100200402002007
:10150000000600185AA5686864010020867B000068
:101510000005001820010020387B00006E30315F8C
:101520006E2E752E6C2E6C0030010020F0B5024638
:10153000480A801885B2C80501D06D1CADB25008AC
:1015400041004018D107C90F4018C005C00DC11F88
:101550000024FF39F93901D1012400201B498B688F
:1015600031E0691E8A4201D1194901E0511C89B25A
:10157000D60709D01E5C0F013607360FF6191E5428
:10158000002C10D0002414E01954002C01D00024A9
:1015900005E0401C012680B27602B04215D2090552
:1015A000090F19540DE0401C012680B27602B042AA
:1015B0000BD209091954401C012180B2490288420A
:1015C00003D2521C92B2AA42CBD3F0BD64010020D8
:1015D000FF0F000010B50C4C01214902A068FEF776
:1015E00085FEA068F8210170FF2141708170012102
:1015F00049040220FFF79AFF0121FF20C9020330AE
:10160000FFF794FF10BD000064010020034610B5F1
:101610001B480C4600780E280FD0FF2815D0B128A3
:101620001ED0B2281CD00A2822D00B2215A11846A1
:10163000FEF7F6FD0B2216A10EE00B2217A11846AD
:10164000FEF7EEFD0B2218A106E00B2219A11846A9
:10165000FEF7E6FD0B221AA12046FEF7E1FD10BDC4
:101660000B221AA11846FEF7DBFD0B221AA1F3E7A5
:101670000B221CA11846FEF7D3FD0B221CA1EBE7A1
:1016800008010020434F44455F4E202042494E0050
:10169000434F4E465F4E202042494E00434F444543
:1016A0005F45202042494E00434F4E465F45202073
:1016B00042494E00434F44455F49202042494E0075
:1016C000434F4E465F49202042494E00434F444518
:1016D0005F42202042494E00434F4E465F42202049
:1016E00042494E00434F44455F41202042494E004D
:1016F000434F4E465F41202042494E00F8B5174EF9
:101700000546B1600C460020012730807F02394633
:101710002046FEF7EBFD002D04D0082D16D0182D25
:1017200018D019E03E220E492046FEF779FDFF2130
:101730002046FF22C1313E30FEF7B3FDFF34552075
:10174000E134A077AA20E077378005E0FFF742FF79
:10175000308001E0FFF7DAFD0020F8BD64010020D1
:10176000487B0000F0B589B00C46054604A96846E0
:10177000FFF74CFF082D02D0182D0DD05EE0324D42
:101780003048A860FFF726FF288001225202214638
:101790002C4804F0D7FF51E0204620302B4E07465E
:1017A000254601213060403549022648FEF7A0FD5C
:1017B0000B226946384604F0C5FF00283ED1306848
:1017C0001C30FEF797FD01214904884201D0002812
:1017D00034D10B2204A9284604F0B4FF00282DD1EF
:1017E00028461C30FEF786FD0121C90207468842C3
:1017F00001D0002F22D130681C30FEF77BFD01465E
:1018000001204004814219D18011874216D110482D
:101810002066224609120F4800F060FF0020206673
:101820003068C17E807E0902014307481E31418035
:10183000E97EAA7E090211431E318180002009B091
:10184000F0BD0000040200206401002030010020EF
:101850005AA5686800060018F8B503F0DBFE002002
:1018600004F03CF800F0B0F91A4801684908490052
:101870000160194E0024A00081196A460A2000F078
:101880007DFD641C052CF6DB00256C1CAE000EE013
:101890001148A7008159C05906F0BCF806D20E497C
:1018A0000E4AC85910618A59CA518851641C052CC6
:1018B000EEDB6D1C042DE8DB0748C16807480161B9
:1018C0000448016801221143016004F039F803F073
:1018D000F7FFF8BD0046005C64170020E801002017
:1018E000011F0A2901D80120704701460F3902293A
:1018F00001D80220704701461239012901D803207E
:10190000704701461439012901D804207047014667
:101910001639012901D805207047212807D022282F
:1019200007D0242805D02328DDD0002070470620CA
:1019300070470720704700000C484168012211439E
:1019400041608168090909018160816803221143AE
:10195000816041680222114341608168F022914315
:101960008160816830221143816070470045005CCE
:1019700000B50A488168090909018160816803226C
:10198000114381604168490849004160012000F02D
:101990001FFE00F0D1F8FFF7CFFF00BD0046005C4E
:1019A00038B5214C207800280FD00120009000206D
:1019B00003F094FF05F0B8FA2078FF280CD002F06D
:1019C00003FB0446012812D101E0022038BD02F0D9
:1019D0005BFB044601280AD102F0BAFB0446012849
:1019E00005D16946FFF71AFA009C012C08D020B2F5
:1019F000FFF776FF02464B21012000F057FE08E07A
:101A000000F032FB0948016804229143016000F0B4
:101A1000C1F805F02FFA03F093FF03F051FFFFF731
:101A2000A7FF204638BD0000080100200044005CEC
:101A30001448416808221143416081680F22120353
:101A400091438160816803221203114381604168E0
:101A500004221143416081680F2212029143816088
:101A600081680322120211438160416802221143FE
:101A700041608168F0229143816081683022114386
:101A8000816070470046005C30B5154881680125CB
:101A90006D0329438160426808218A43426082685D
:101AA0008B011A4382604368042293434360836836
:101AB000202423438360446802239C434460846859
:101AC0002C43846044688C43446004688C43046005
:101AD00001689143016001689943016030BD0000D5
:101AE0000046005C13484168082211434160816848
:101AF0000F22120391438160816803221203114374
:101B00008160816801225202114381604168042290
:101B10009143416081682023194381604368022119
:101B20008B43436003689343036002688A43026007
:101B3000704700000046005C154881680F221203C0
:101B40009143816081688160426808218A434260D4
:101B500002688A43026081680F2212059143816006
:101B600081688160426820218A43426002688A431A
:101B7000026081680F221204914381608168816054
:101B8000426810218A43426002688A4302607047BB
:101B90000040005C1CB5FFF7A5FF074C01AA694691
:101BA000642000F0EBFBA04202DD05F027FDF5E725
:101BB000FFF73EFF1CBD00000000C84101490020A6
:101BC0004860704700040040F8B50120400505F06A
:101BD000ADFB4D4CE06800090001E060E1680120C8
:101BE0000143E160E168F0229143E160E368102184
:101BF0000B43E360A3681B091B01A360A3680227D2
:101C00003B43A360636883436360A3689343A3601B
:101C1000A26820231A43A2606268BA436260226805
:101C200002432260206838432060384E706880226A
:101C30009043706070681043706070688008800026
:101C40007060706870601E207061B069400840006C
:101C5000B0617068084370602D4D682028704006A0
:101C6000000E04F069FB012813D028784006000E0E
:101C700004F062FB01280CD028784006000E04F026
:101C80005BFB012805D02878401CC0B228706F2863
:101C9000E5D9B06880218843B060B068B843B060CF
:101CA0007268202082437260706888437060880385
:101CB00005F032FBE06800090001E060E068E060E8
:101CC000E168F0208143E160E168E1606168012240
:101CD00011436160A16809090901A160A16803229B
:101CE0001143A160616839436160A1688143A160CB
:101CF000A06830210843A06028786F2801D801200F
:101D0000F8BD0020F8BD00000045005C002800413F
:101D1000E8010020064801680122114301600168C2
:101D2000022211430160016804229143016070475F
:101D30000044005C09490020094A08801078002806
:101D400009D0401EC0B21070064A8000135A0B80A2
:101D50008018408848800888704700003C010020B7
:101D60003A0100202C0E00200A4A00210A4B118063
:101D7000195C00290CD0491EC9B2195414235843C8
:101D8000064B8900C018435A138040184088508081
:101D9000108870473601002034010020040E002016
:101DA000F8B505F023F9414D0020A860E8604048EF
:101DB000404CC614471468603E4A394600F0F8FCAF
:101DC000002081006158AA68401C8918A960B042AF
:101DD000F7D368683849C01968608842ECD9002098
:101DE0006860344A394605F009F9002081006158DD
:101DF000AA68401C8918A960B042F7D368682F49C7
:101E0000C01968608842ECD905210320294A0902DB
:101E1000C00600F0CDFC0020FF2141318200A25815
:101E2000EB68401CD218EA608842F7D3FEF7CEFF79
:101E30000646FEF7D7FF02462878FF280FD0002875
:101E40000DD01A4910310B4608330C681F68BC428C
:101E500003D149685B68994201D0022100E0012169
:101E6000174BFF2805D0002803D01868AC68A042A3
:101E700003D11869EB68984201D0022400E00124E4
:101E8000012C05D1012E03D1012A01D1012908D04D
:101E900002242046FFF724FD02464B21012000F0DA
:101EA00005FC05F039F82046F8BD000008010020C7
:101EB0000080001004060020FFFF0110FF7F0000DB
:101EC0000005001830B52349886820221043886037
:101ED00048680224A0434860086820430860002046
:101EE00004230A689A430A600A681A430A60401C7D
:101EF0003C28F6DB184D00202A46C240D207D20FFC
:101F00000A6801D0224300E0A2430A600A689A43AB
:101F10000A600A681A430A60401C1028ECDB086853
:101F20002043086000200A689A430A600A681A433E
:101F30000A60401C3C28F6DB0868A04308600020CB
:101F40000A689A430A600A681A430A60401C10280B
:101F5000F6DB30BD0046005C9EE7000010B5094C82
:101F6000A088FF2801D9FF20A08020796188000285
:101F7000084381B26180252000F084FB002060804E
:101F8000A08010BD7001002010B50020FFF7ECFE0E
:101F90002648274A03782749002B08D009680907F3
:101FA00004D51168090701D50021017010BD224830
:101FB0000088012803D0022801D00328F6D1106838
:101FC0001E4A000708D50868000705D55088002874
:101FD000ECD0FFF7C3FF10BD09680120090700D44A
:101FE0000220518800290ED08142F2D19088401CF5
:101FF00080B29080202814D009DC08280DD0102849
:10200000E9D120200AE0508001461E2006E0302859
:1020100009D05028DFD1242000E01F2000F032FB3F
:1020200010BD2120FAE72220F8E700004701002038
:102030000042005C0044005C36010020700100207A
:1020400010B50749C8684007400F05D0054A107011
:10205000C86807221043C8601D2000F0A1FA10BD17
:102060000021005C4501002000B503F0C3FA0349DC
:10207000002008800249487000BD0000480100208F
:1020800034010020F8B5AE4804270088AD4DAE4EAF
:102090004F2810D1AD48007800280AD0012879D007
:1020A000022878D0286878402860286801214840B4
:1020B00002E003F09FFA3CE128603AE1A44B188863
:1020C0003C3813281FD8FFF7CFFF9D491888088098
:1020D0005988F180002131704F2802D04B2807D059
:1020E00011E09A48007803280DD12868B84309E028
:1020F000286838432860296802200143296028683D
:102100004008400028601988481E0228D3D88C480F
:10211000048820463D38030003F02AFB120A1C1CE9
:102120003EB1FE5DA15DB1B1EAFE991D5D5D5D1C34
:102130000129C0D13078401CC0B23070F18888428B
:1021400003D82A68520852002A60491D8842B2D337
:1021500000203070EDE02868012108432860F488F1
:10216000002C06D006213078FEF7DDF8002904D0D7
:1021700009E03078C00702D105E0A04203D2286808
:102180004008400028603078401CC0B230703028D1
:1021900091D3DDE714E01BE003F02CFA3078401C0B
:1021A000C0B23070F188884202D100213C2048E062
:1021B0000321FEF7B8F8012902D0022904D007E074
:1021C00028684008400077E728680221884373E7C1
:1021D0002868B84370E72868432C09D001210843D8
:1021E00028602868384328603078810703D008E0E9
:1021F000400840000DE04E2C03D0296849084900F2
:1022000029608007800F022804D14D2C02D0286855
:10221000B84328603078401CC0B23070F1888842E2
:1022200014D1452C12D04D2C10D04E2C0ED0402C59
:10223000BBD0432C03D02868B84328601AE00021A3
:10224000022000F01FFA3E490020088071E0286853
:10225000B84328602868400840002860F8BD286816
:102260004008400028603078401CC0B23070F188CF
:1022700088425ED12868012108432860E3E7286886
:10228000384328603078002804D1462C02D12A68CF
:10229000BA432A60012909D0401C3070F188C0B2CD
:1022A000FEF741F83170002943D103E00009000135
:1022B0001030F2E7412C8BD0472C11D12868B8435D
:1022C0002860042003F024FA28683843286010208E
:1022D00003F01EFA2868B84328603078002828D117
:1022E00017480188462924D1002101803D200FE0B4
:1022F000B079000707D12868B8432860042003F0AC
:1023000007FA03F077F9F088402810D300213E2027
:1023100000F0B8F90DE0FFE72868400840002860A9
:10232000F088C10703D02968012211432960401CAD
:10233000F0800120FFF718FD002800D0BEE6F8BDB0
:10234000480100200044005C700100204D01002085
:10235000360100203FB515467022074C07992270C0
:10236000002901D0F0212170A07001A9E01C03F028
:102370008CFA257363733FBD50170020F7B51546DF
:10238000002801D003F02CFB0120400504F0CEFF13
:102390006148C16809090901C160C168012421437C
:1023A000C160C168F026B143C160C1681022114309
:1023B000C1608168090909018160836802210B43BA
:1023C00083604368A34343608368B3438360836847
:1023D00020263343836043688B4343600368234371
:1023E000036003680B4303604C4C60688026B04375
:1023F0006060606830436060606880088000606092
:10240000606860601E206061A06940084000A061B3
:10241000606810436060424F01E005F0EFF83878E3
:102420004006000E03F088FF0028F6D0802003F05D
:102430006DFFA068C007F2D138488168B143816060
:10244000826802218A438260426820218A43426076
:102450000A2003F0C5FA324C08343878304A40007C
:10246000401CC0B20832032103F002FFA07800062E
:10247000F3D42078617800024018FEF7E1FB01995F
:102480000860396905F0F0FAFEF784FB0022254B5D
:10249000FEF75CFA0022244BFEF734F80022234BAF
:1024A000FEF730F8FDF7F0FF28601C488168B14363
:1024B000816081680224A1438160426820218A43AF
:1024C00042604168B1434160200504F025FF124895
:1024D000C16809090901C160C168C160C268F02111
:1024E0008A43C260C268C260426801231A434260E4
:1024F0008268120912018260826803231A43826093
:1025000042682243426082688A4382608168302246
:10251000114381602868FEBD0045005C0028004131
:10252000E801002000408F4000A0694000002440E6
:1025300010B502F09FFD10BD034A02231168880701
:10254000C00F9943116070479C01002010B502F044
:102550009BFD10BD10B502F0BBFD10BD10B502F023
:10256000BDFD10BD10B502F035FF10BD10B502F075
:10257000BFFD10BD10B502F0C3FD10BD10B502F0D7
:1025800091FF10BD70470000002805DBC106C90E91
:1025900001208840014908607047000080E200E0A7
:1025A000002805DBC106C90E0120884001490860EA
:1025B0007047000080E200E0002805DBC106C90E7C
:1025C00001208840014908607047000000E100E0F8
:1025D00010B5084C2168012211432160002802D067
:1025E000FFF726FA10BDFFF74FFA206840084000B9
:1025F000206010BD0046005C10B572B603201D4976
:10260000486004F0FBFF1C4801680122520291431C
:102610000160500404F08AFE04F092FEFFF7CEFA47
:1026200003F030FF04F0B4FFFFF7A2F9134841684C
:1026300040229143416081680F22120691438160DC
:1026400081688160426880218A4342608268120109
:102650001209826082688260094842688A43426047
:10266000816809010909816081688160FFF7F4F8D8
:1026700062B610BD0020005C0003005C0043005CFB
:102680000044005C30B5074C2278052A01D30422AF
:102690002270D2B2044D9300E85258194180521C66
:1026A000227030BD3A0100202C0E002070B5094E7A
:1026B000335C052B01D3042333541423064C4343CA
:1026C0001C19335C9D00615361194A805B1C3354B3
:1026D00070BD000034010020040E0020F8B504464F
:1026E000144803212018C9031746884208D31D2027
:1026F000C00601212018C902884201D30120F8BD7B
:10270000A50A0126AD02B6020B4A3146284600F062
:102710004FF8A005094A0848394600D58018FDF74A
:102720007FFD2846FEF784FD034A3146284600F027
:1027300007F8F8BD0080FFEF04020020000200004F
:10274000F0B5C91C8B089B000C4DF52712E0002149
:10275000FA246C606F60A86010CAEC600324640502
:102760002E68002E04D0491CA142F9D90120F0BDE9
:10277000001D1B1F002BEAD10020F0BD000400400B
:10278000704710B504F024FA1C20FFF709FF10BDB4
:1027900006480168490849000160016802221143A6
:1027A0000160016804221143016070470044005C2D
:1027B000F7B582B0164605466F46002411E004F0D6
:1027C0001DFF28680090387830550120039A2118A1
:1027D000914204D23A5C401C72540428F6D3241D62
:1027E0002D1D03988442EAD305B0F0BD7047000068
:1027F000F8B55B4D594BA86A5A4F5B4C08261F2809
:1028000074D138462038594A016891426ED1417BD3
:1028100000296BD1017B490668D1817B891F06297C
:1028200064D8416879608168B9600021F960E26D1F
:10283000E36D127832401A706970AA78C07BD206B4
:102840001BD5032813D0122814D004231A460220C3
:102850000091FFF77FFDFF23DB43FB6004F090FA5C
:10286000E06DE16D00783040401C08703EE000F003
:102870001DFF61E000F0C6FB5EE01D284ED012DCBB
:102880000A2857D008DC00284ED00328EFD00428AF
:1028900035D0082819D13BE01228EBD01A2831D0C6
:1028A0001B2812D13DE02F2841D008DC1E282CD057
:1028B000252830D028282BD02A2806D13AE05A28BB
:1028C00020D0A82824D0AA2834D000230091202288
:1028D00019460520FFF73EFD04F052FAE06DE16D68
:1028E0000078FF233040401C0870DB43D81DFB30CC
:1028F00024D0FF331B1D01D004F03AFDF8BD00F0D9
:1029000095FA19E000F010FC16E000F0D7FC13E097
:1029100000F010FD10E000F0FFFD0DE000F050FFB2
:102920000AE000F093FF07E000F0D8FF04E001F0B8
:1029300013F801E001F0C6F80346D7E704F020FAE7
:10294000E06DE16D00783040401C0870E8780221AD
:102950000843E8700148F860F8BD0000FEFEFFFF84
:10296000A801002040170020947B000055534243EB
:10297000FEB5F84FB878810604D5DF210840B8705D
:10298000FFF736FFF349B8780C310E1F0024F24DE3
:1029900001282DD002287DD004286DD00828FCD035
:1029A000102867D13979621ECB07EC48002B70D014
:1029B000890907D0F2780270B2784270727882701A
:1029C0003278C2703368002B7ED000220146184650
:1029D000FFF7D4FD002878D00120009003220023C7
:1029E00010463168FFF7B6FCE86800286ED038E181
:1029F0000868002841D0D749401E0C310860D749EB
:102A0000002208393068FFF7ADFD002810D0012002
:102A100000900023112203203168FFF79BFCD0486F
:102A20000822C16DC06D09781140491C0170FAE09F
:102A30008120B8703068401C3060C6480C30016896
:102A4000C848002906D0012149020191017EFB22DC
:102A5000114004E079690191017E0422114301765D
:102A6000BE4802210838019A04F068FDA86801995F
:102A7000401AA860FEBD0DE07AE07878002872D098
:102A8000B7480822C16DC06D09781140491C01701A
:102A9000B8E0F0E00120BA69400282426DD1AD4950
:102AA0000C310968012916D0BC6138618220B870E8
:102AB000387801214840A749387080002C310858E7
:102AC000012104F01BFD02E0B1E0B2E0C6E038787D
:102AD0000121484038709F487979343001292CD041
:102AE00039780022890041583068FFF747FD39786E
:102AF0000122984B514039700C331968491E1960F6
:102B0000002825D000920322002310463168FFF7E9
:102B100021FCB87800060AD5012004F0BDFC9049DC
:102B20000420496B08709049012004F0FFFC89489B
:102B300079780C300068084373E086490C310A68E4
:102B40003978890041583068FFF718FD7C71CEE76D
:102B5000A868FF38FF380238A86000294DD03068D7
:102B6000401C306086E74EE004F00AF97C705AE0C1
:102B7000BB69DA1FFF3AFA3A03D0002324220094FB
:102B800045E174490C310A68521E0A600828306811
:102B900014D000221146FFF7EDFC002812D0FF30C0
:102BA0000C3031D001200090002310220320316826
:102BB000FFF7D0FBB87808282DD031E06749002214
:102BC0000839E8E7B878082804D1A968FF39FF393F
:102BD0000239A9605F490C31096800290DD03168BC
:102BE000491C31600828BDD18001BC613861882052
:102BF000B8705A4801210838C6E07878002825D0F6
:102C000004F0BEF87C7021E00120009000231D221A
:102C10000E203168CCE74F480C3000680028A3D163
:102C200078780028A0D1E868002878D00EE0FA690A
:102C3000CCE6F869401EF86191D17878002802D07E
:102C400004F09EF87C703879000702D404F090FB01
:102C50000FE041497120103108700AE0FF20C043A5
:102C6000E8603879000704D43B49712010310870BE
:102C7000ECE7BC70FEE68B0778D5FD26354B31407E
:102C800019718C46002101919B69042B51D3334962
:102C90006F4608398E787E71CE783E71019E00961F
:102CA000361D019649788E07664602D508273E43B1
:102CB00001E0F7273E40274F09073E7103D4042B5C
:102CC00037D1002235E00099002932D1082B30D3CA
:102CD0002249204E08390F793679BF09BF01BC4619
:102CE0003E431C4F3E713E46203634608F797770EC
:102CF000CF793770019F366800963F1DF6196746F9
:102D0000091D0196C02F14D04978002901D001294E
:102D10000FD10022002903D0012907D009E07BE070
:102D20000099002905D00022D24302E00099002931
:102D3000F9D0094F019E203FB968B14201D000226D
:102D4000D243044E994201D3002A10D0E8680028EB
:102D500031D033E0A80100204017002028130020C4
:102D6000947B0000E0400041895800003AE099421D
:102D70000DD031612A49012004F0D8FB9020B070B9
:102D80002848B1694018012104F0B8FB72E6A9682F
:102D9000C91AA96024490968002902D003F01AFC65
:102DA00004E001225202002103F0EEFC30790121FF
:102DB0000843307123E0FF20C043E860002326224F
:102DC000194605200094FFF7C5FAB968B069814239
:102DD00002D80199814201D903F0D2FF04F0C8FA68
:102DE000B47047E63969B86988420DD1A968081AF4
:102DF000A86003F0EFFB3879012108433871000720
:102E0000C4D504F0B5FA35E600232622009400214B
:102E10000520FFF79FFA06E7FF20C043E86015E7AB
:102E20008D57000020130020C8010020F0B54A484B
:102E300089B00024047144610830464D071D0460C8
:102E40003C60287C0F35C00605D5424880680028C4
:102E500000D1042038600620FEF7D4F8030076D1B4
:102E600068783E4E400902D02522009425E0FFF705
:102E700063FB002802D038490120887101A8FFF7C0
:102E800057FB009007A8FFF771FB0099084306D194
:102E90000799C80703D030488279002A05D000235B
:102EA0003A2219460220009409E049073AD4697889
:102EB0004A0708D000232422009400210520FFF7B0
:102EC00049FA33462AE0019AC261C90610D5402169
:102ED000846101610546022028712149012004F026
:102EE00025FB9020A87001211E4804F007FB13E089
:102EF00003464078002802D003F042FF5C70194876
:102F0000012252020021083003F03EFC1879012111
:102F10000843187110209870104BDB1ED81DF93033
:102F200006D014E000232722194607200094C6E7A4
:102F300008482030C168002900D1C6600548806873
:102F4000002802D13868002801D003F019FF184684
:102F500009B0F0BD20170020A801002000FFFFFFEE
:102F60008D5700002013002010B5122200211C48AC
:102F700003F00AFC1A48702101700A21C171194935
:102F800000200860091D08600C39C8708870302264
:102F90001549164803F0EFFB11480D2200211038A7
:102FA00003F0F2FB0E491248103908600E483C3815
:102FB00004F014FA0F49012004F0B8FA0E49022077
:102FC00004F0B4FA06480121303804F097FA0B48AF
:102FD00004F0F8F90A4804F0FBF9FFF7BFFA10BD56
:102FE00050170020B0010020187D0000F0120020D2
:102FF00055534253B557000089580000E166000060
:1030000099670000F8B53F4F3F48F97C06460160DC
:1030100000250C3E06200F377561FDF7A5FF040063
:103020006DD17878394F410903D0002325220095CE
:1030300004E0C00709D000232422009500210520C8
:10304000FFF788F9FF24E4433FE02E482E4C8068C8
:103050002168884200D220602168242904D92420D4
:1030600020600120707001E0002918D0284929480B
:10307000226803F080FB28480422017E1143017678
:103080002649022004F052FA02212248226804F064
:1030900055FAB8682168224C401AB8600BE0002845
:1030A00008D020487570C16D08220978C06D1140A4
:1030B000491C0170FC68B078C00606D504231A4686
:1030C000002102200095FFF745F9E01DF93016D1E7
:1030D000F868002802D1FF20C043F86009488068E2
:1030E000002803D108480068002808D00D497570F1
:1030F000C86D08220078C96D1040401C0870204639
:10310000F8BD000020170020B40100204017002067
:10311000F47C000020130020E0400041DD57000057
:10312000FDFEFFFF947B0000F0B55D4C0025E07BC9
:103130005C4E0F348BB01A2816D03560207A307070
:10314000E07970700A20089056480C38456108985C
:10315000FDF70AFF002878D16078534F400907D067
:103160000023252200952BE0207930600620EAE735
:1031700002A8FFF7DDF9009009A8FFF7F7F9009919
:10318000084307D10998C00704D046480C38807915
:10319000002805D000233A2219460220009511E0AC
:1031A000A078810982068901920EC02905D0032AE0
:1031B0000CD0042A0AD03F2A08D0002324220095EC
:1031C00000210520FFF7C6F838464FE03448336841
:1031D0008068984200D230603368002B36D0334884
:1031E000059BC3726B465B7FC3766B461B7F037781
:1031F000049B437763780820034002A809AC009041
:103200000194089803F00AFA31680446A14204D9EF
:10321000244801210C38417000E00C462448042267
:10322000017E114301762349022004F07FF91F48F3
:1032300022460221303004F081F91948203081689B
:10324000091B81601848C01E10E027E000280AD042
:10325000144808220C3845701748C16DC06D0978B4
:103260001140491C01700E482030C068C11DF93161
:1032700014D10B492031CA68002A00D1CF60084917
:103280008968002902D13168002907D00A4AD16D26
:103290000B7808210B40D16D5B1C0B700BB0F0BD9F
:1032A00020170020B401002000FFFFFFF0120020D3
:1032B000E0400041DD570000947B0000FEB51B4C50
:1032C0000620FDF72BFE2546113500282BD160780E
:1032D000FF2740090026FF43002805D000232522B0
:1032E00019460520009610E001A8FFF73FF90028D5
:1032F00006D10198C00703D00D488179002908D074
:1033000000233A22194602200096FFF723F8EF60C7
:1033100009E02179C907C17802D01022114301E0E8
:10332000EF221140C170E868FEBD00002F17002099
:10333000A8010020F0B5734C734A2146886889B013
:10334000C305DB0D400A53618860104600260C302F
:103350000660001F0660E37B627CA17CE07C0F348A
:10336000082B12D025466F79AC46ED790095BE4604
:1033700065462F7A282B18D0A82B23D00025284665
:10338000FDF7F2FD07002ED0B9E063780625DF06D1
:103390005D4BFF0E08339F705A701970191D08702D
:1033A0000028ECD101204870E9E7574B0A25083383
:1033B000DA709970587070461870181D0099417035
:1033C0000770DCE7504B0C250833DA7099705870A1
:1033D00070461870A179181DC170009981704770EE
:1033E000617A0170CBE7062D03D160784009400176
:1033F00060706078454C410903D000232522009677
:1034000057E0002852D1FFF797F8002802D03E4835
:103410000121817101A8FFF78BF8054607A8FFF786
:10342000A5F8284306D10798C00703D0364DA879E0
:10343000002805D000233A221946022000963FE0DA
:103440003148083001680198814234D22E4B0C3348
:103450001A6888180199884228D82A4880689042BA
:1034600006D218606969002905D0411C196002E084
:103470000121490269611968002908D0234F2449B4
:10348000FF1E022004F052F80120A8701BE0002863
:1034900008D020486E70C16D08220978C06D1140B7
:1034A000491C017017482030C7680CE00023242213
:1034B0000096002103E00120002321220090052036
:1034C000FEF748FF2746F81DF93018D10D48203087
:1034D000C168002900D1C4600A488068002804D16E
:1034E00009480C300068002809D00A4A0821D06D2C
:1034F00000780840D16D401C08700348467038467B
:1035000009B0F0BD20170020A801002000FFFFFF38
:1035100071580000947B0000F0B55D4C0827207CBA
:103520005C4E80070F3489B0002802DA0C2030602E
:1035300000E03760574800250C3845610A20FDF748
:1035400013FD00287ED16078400903D00023252296
:10355000009543E001A8FEF7EBFF009007A8FFF7F6
:1035600005F80099084307D10799C90704D0494BCA
:103570000C3B9979002905D000233A2219460220F4
:1035800000951DE043496279091F0A7022794A704B
:10359000E2788A70A278CA70019A002A01D0521E7D
:1035A0000192227AD20713D06278920713D1096868
:1035B000019A914214D90120002321220090052074
:1035C000FEF7C8FE32482030C168002954D056E0CA
:1035D0000968002904D00023242200950021EEE789
:1035E0002B4932688968914200D2316062782A4959
:1035F000920704D50D704D708D70CD70091D6A460F
:10360000D2790A706A4692794A706A4652798A700B
:103610006A461279CA706A46D27A0A716A46927A02
:103620004A716A46527A8A716A46127ACA71316858
:10363000002918D019480422017E11430176184947
:10364000022000E00DE003F071FF02211248326811
:1036500003F074FF0E48326820308168891A816057
:10366000104809B0F0BD10495D70CA6DC96D12787F
:103670003A40521C0A70F4E7FF21C943C1600A496D
:10368000CA6DC96D12783A40521C0A70C068E8E7EA
:1036900020170020B401002020130020E04000414A
:1036A000DD570000FDFEFFFF947B0000F8B53D4FA5
:1036B0003D48F97C0646016000250C3E06200F3788
:1036C0007561FDF751FC040069D17878354C374FAE
:1036D00040090CD000232522194605200095FEF74D
:1036E00039FEFF22F868D243002847D047E0A0689F
:1036F0002D4C2168884200D220602168122904D90B
:10370000122020600120707001E0002922D0B078E2
:10371000C00606D504231A46002102200095FEF7B4
:1037200019FEF07801210843F07021480422017E3F
:10373000114301761F49022003F0F8FE1B480221C5
:103740001030226803F0FAFEB86821681A4C401A5B
:10375000B86024E0002808D018487570C16D0822B0
:103760000978C06D1140491C01700023FC681A469D
:10377000194618460095FEF7EDFD10E0FA60A068C6
:10378000002803D108480068002807D00B48C16D05
:10379000C06D0B7808210B405B1C0370144620465B
:1037A000F8BD000020170020B401002040170020C1
:1037B000E0400041DD570000FDFEFFFF947B00006C
:1037C000FEB5204C0620FDF7A9FB25461135002843
:1037D00036D16078FF2741070026FF4300291ADA17
:1037E000E178002922D1217900291FD1400927D170
:1037F00001A8FEF7BBFE002807D10198C0071FD023
:103800001148FEF7A7FE00281AD08023402200218D
:103810000420009611E0E078002807D120790028E4
:1038200004D108480F388068002801D003F0A8FAB6
:1038300000232422194605200096FEF78BFDEF6039
:10384000E868FEBD2F170020CC010020FEB5214CFA
:103850000620FDF763FB25461135002837D1607837
:10386000FF2740090026FF43002803D0002325221C
:10387000009617E001A8FEF779FE002806D101980E
:10388000C00703D0144A9079002805D000233A22BB
:1038900019460220009607E02079810808D000230D
:1038A0002422009600210520FEF754FDEF600EE073
:1038B000D1789F231940D170C30702D04023194308
:1038C000D170800703D5C8B220210843D070E868C2
:1038D000FEBD00002F170020A8010020FEB51C4DE2
:1038E0000620FDF71BFB2C46113400282DD16878EB
:1038F000FF2640090025F643002805D00023252295
:103900001946052000951DE0FEF716FE114F002810
:1039100001D00120B87101A8FEF728FE00280CD1C3
:103920000198C00709D0B87900280ED00023BD71D6
:10393000282219460620009504E000233A22194661
:1039400002200095FEF706FDE660E068FEBD00007F
:103950002F170020A8010020F0B5544C544A2146EE
:10396000886889B0C305DB0D400A536117460C37E0
:1039700088600025381F3D600560617CC170A17CB6
:103980008170E17C4170217D0170207C0F348007C3
:1039900003D5E0797870207A38700A20FDF732FB81
:1039A00003007FD16078434E410902D02522009563
:1039B0005AE0FD21084254D1FEF7BEFD002802D096
:1039C0003B480121817101A8FEF7B2FD009007A8D4
:1039D000FEF7CCFD0099084306D10798C00703D035
:1039E000334B9879002805D000233A22194602204B
:1039F000009540E0E0797870207A38702C480830E3
:103A000001680198814231D23868019A09189142BF
:103A100027D8002815D06178274A89071BD5234964
:103A20008968814200D239609D6188201A6198704E
:103A30002249012003F07AFD0121214803F05EFDB7
:103A40000CE05878002802D003F09AF95D7017480E
:103A50002030C36812E004209A619870154BDB1E79
:103A60000CE0002324220095002103E00120002324
:103A7000212200900520FEF76DFC3346D81DF93059
:103A800010D10A482030C168002900D1C66007481B
:103A90008068002806D03868002803D000E001E0E4
:103AA00003F06EF9184609B0F0BD000020170020A1
:103AB000A801002000FFFFFF000200008D5700005A
:103AC00020130020F0B5724C72492246906889B0EC
:103AD000C305DB0D400A4B619060084600260C30A0
:103AE0004E71071F06603E60E37B627CA17CE07C38
:103AF0000F340A2B14D02546AC466D792A2BAE46DE
:103B00006546ED79009565462D7AAC4617D0AA2B0F
:103B100021D000252846FDF775FA03002CD0B3E02C
:103B200063780625DB06DB0EBB707A703970594965
:103B30000C3108700028EDD101204870EAE7FA70D6
:103B4000B97078707046387052480A250C30009968
:103B5000417061460EE0FA70B97078707046387046
:103B60004C480C25A1790C30C170009981706146D8
:103B70004170617A0170CDE7062D03D1607840096C
:103B8000400160706078444C410903D00023252235
:103B9000009666E0002861D1FEF7CEFC002802D036
:103BA0003C480121817101A8FEF7C2FC054607A827
:103BB000FEF7DCFC284306D10798C10703D0354D3A
:103BC000A979002905D000233A221946022000963F
:103BD0003DE0400736D43968019881422CD22D4A05
:103BE000019B0C3210680918994237D82849896816
:103BF000814200D211601068002813D001204002D9
:103C0000AE6128612549012003F090FC2E7001214E
:103C1000234803F073FC204B0120DB1E68718220D7
:103C2000A87017E06878002802D003F0A9F86E7039
:103C300017482030C3680DE00120002321220090A6
:103C4000052004E000232722194607200096FEF7EE
:103C500081FB2346D81DF93005D015E0002324222E
:103C600000960021ECE70A482030C168002900D105
:103C7000C46007488068002804D106480C300068FA
:103C8000002801D003F07CF8184609B0F0BD000010
:103C900020170020A801002000FFFFFF8D57000023
:103CA00020130020704710B503F066FA10BD000025
:103CB00070B50C4606460025012100233246084611
:103CC00003F0D6FC022802D16D1CC82DF4DB0025C0
:103CD00004CC00230321012003F0CAFC022802D1F6
:103CE0006D1CC82DF4DB0025012100233246084657
:103CF00003F0BEFC022802D16D1CC82DF4DB0025A8
:103D000004CC00230321012003F0B2FC022802D1DD
:103D10006D1CC82DF4DB0025012100233246084626
:103D200003F0A6FC022802D16D1CC82DF4DB00258F
:103D300004CC00230321012003F09AFC022802D1C5
:103D40006D1CC82DF4DB00250121002332460846F6
:103D500003F08EFC022802D16D1CC82DF4DB002577
:103D600004CC00230321012003F082FC022802D1AD
:103D70006D1CC82DF4DB00250121002332460846C6
:103D800003F076FC022802D16D1CC82DF4DB00255F
:103D900004CC00230321012003F06AFC022802D195
:103DA0006D1CC82DF4DB0025012100233246084696
:103DB00003F05EFC022802D16D1CC82DF4DB002547
:103DC00004CC00230321012003F052FC022802D17D
:103DD0006D1CC82DF4DB0025012100233246084666
:103DE00003F046FC022802D16D1CC82DF4DB00252F
:103DF00004CC00230321012003F03AFC022802D165
:103E00006D1CC82DF4DB0025012100233246084635
:103E100003F02EFC022802D16D1CC82DF4DB002516
:103E200004CC00230321012003F022FC022802D14C
:103E30006D1CC82DF4DB0025012100233246084605
:103E400003F016FC022802D16D1CC82DF4DB0025FE
:103E500004CC00230321012003F00AFC022802D134
:103E60006D1CC82DF4DB00250121002332460846D5
:103E700003F0FEFB022802D16D1CC82DF4DB0025E7
:103E800004CC00230321012003F0F2FB022802D11D
:103E90006D1CC82DF4DB00250121002332460846A5
:103EA00003F0E6FB022802D16D1CC82DF4DB0025CF
:103EB00004CC00230321012003F0DAFB022802D105
:103EC0006D1CC82DF4DB0025012100233246084675
:103ED00003F0CEFB022802D16D1CC82DF4DB0025B7
:103EE00004CC00230321012003F0C2FB022802D1ED
:103EF0006D1CC82DF4DB0025012100233246084645
:103F000003F0B6FB022802D16D1CC82DF4DB00259E
:103F100004CC00230321012003F0AAFB022802D1D4
:103F20006D1CC82DF4DB0025012100233246084614
:103F300003F09EFB022802D16D1CC82DF4DB002586
:103F400004CC00230321012003F092FB022802D1BC
:103F50006D1CC82DF4DB00250121002332460846E4
:103F600003F086FB022802D16D1CC82DF4DB00256E
:103F700004CC00230321012003F07AFB022802D1A4
:103F80006D1CC82DF4DB00250121002332460846B4
:103F900003F06EFB022802D16D1CC82DF4DB002556
:103FA00004CC00230321012003F062FB022802D18C
:103FB0006D1CC82DF4DB00F0B9FF0221014801F0AF
:103FC0004AF870BD1820024038B5012000F048FEC4
:103FD000012835D12B4C6946204602F044FC0128CB
:103FE00045D10098C1B20091CC2936D0AA2905D17B
:103FF0000021084600F0ACFE01283DD10120FEF76B
:10400000E7FA012000F02CFE012819D1694620466C
:1040100002F029FC01282AD10098C1B20091AA29F6
:104020001BD0CC2919D0AA21002000F091FE012834
:1040300022D1FEF7CDFA012000F012FE012801D0B6
:1040400004241AE06946204602F00DFC01280ED136
:104050000098C0B20090AA2801D005240DE00120EC
:104060006946C00602F0FFFB0446012801D0062481
:1040700003E00098002800D008240120FEF7A8FAE9
:10408000204638BD1C200240F8B5012000F0E8FDB4
:10409000012801D0042746E000F08CFE01282AD137
:1040A0008121C900224800F0D6FF0746012801D02F
:1040B000062738E001201F4DC00628601E491F4812
:1040C0004E14016002E01E4A904206D21B481D4A6F
:1040D00031460068FEF76CFB05E0194B194A5B425C
:1040E000C01802F08BFF0024164801192868FFF75A
:1040F000DFFD012801D0092715E028684034403051
:1041000024B22860B442EFDB0F4A10680221484015
:10411000106003F073FA094A3146106840181060C5
:104120000A4A9042CFD30120FEF752FA3846F8BD32
:104130000420024004010020008000100C01002037
:1041400000000210040600200044005C0080021001
:10415000F8B5FE4E0020FE4930600860012000F0F6
:104160007FFD012801D00425FEE36946F94802F0ED
:104170007AFB01287ED10098C0B20090AA287AD19B
:104180000124E4060025012100232246084603F00D
:104190006FFA022803D16D1C2DB2C82DF3DB002568
:1041A0006A460321012002F071FB022803D16D1C35
:1041B0002DB2C82DF4DB00256A460321002002F051
:1041C00065FB022803D16D1C2DB2C82DF4DB3068CD
:1041D000009940180025306001210023221D084667
:1041E00003F046FA022803D16D1C2DB2C82DF3DB73
:1041F00000256A460321012002F048FB022803D172
:104200006D1C2DB2C82DF4DB00256A460321002069
:1042100002F03CFB022803D16D1C2DB2C82DF4DB4B
:104220003068009900254018274608373060012182
:1042300000233A46084603F01BFA022803D16D1CFE
:104240002DB2C82DF3DB00256A460321012002F0C0
:104250001DFB022803D16D1C2DB2C82DF4DB0025F7
:104260006A460321002002F011FB022806D16D1CD2
:104270002DB201E0FEE3FEE3C82DF1DB30680099CA
:104280000025401827460C373060012100233A46AC
:10429000084603F0EDF9022803D16D1C2DB2C82D9C
:1042A000F3DB00256A460321012002F0EFFA022821
:1042B00003D16D1C2DB2C82DF4DB00256A46032105
:1042C000002002F0E3FA022803D16D1C2DB2C82DA4
:1042D000F4DB30680099002540182746103730601D
:1042E000012100233A46084603F0C2F9022803D10F
:1042F0006D1C2DB2C82DF3DB00256A460321012079
:1043000002F0C4FA022803D16D1C2DB2C82DF4DBD3
:1043100000256A460321002002F0B8FA022803D1E2
:104320006D1C2DB2C82DF4DB3068009900254018B3
:10433000274614373060012100233A46084603F02F
:1043400097F9022803D16D1C2DB2C82DF3DB00258F
:104350006A460321012002F099FA022803D16D1C5C
:104360002DB2C82DF4DB00256A460321002002F09F
:104370008DFA022803D16D1C2DB2C82DF4DB3068F4
:104380000099002540182746183730600121002386
:104390003A46084603F06CF9022803D16D1C2DB291
:1043A000C82DF3DB00256A460321012002F06EFAD6
:1043B000022803D16D1C2DB2C82DF4DB00256A46FE
:1043C0000321002002F062FA022803D16D1C2DB2F5
:1043D000C82DF4DB306800990025401827461C37AB
:1043E0003060012100233A46084603F041F90228D3
:1043F00003D16D1C2DB2C82DF3DB00256A460321C5
:10440000012002F043FA022803D16D1C2DB2C82D01
:10441000F4DB00256A460321002002F037FA022867
:1044200003D16D1C2DB2C82DF4DB30680099002536
:104430004018274620373060012100233A460846BD
:1044400003F016F9022803D16D1C2DB2C82DF3DB41
:1044500000256A460321012002F018FA022803D140
:104460006D1C2DB2C82DF4DB00256A460321002007
:1044700002F00CFA022803D16D1C2DB2C82DF4DB1A
:104480003068009900254018274624373060012104
:1044900000233A46084603F0EBF8022803D16D1CCE
:1044A0002DB2C82DF3DB00256A460321012002F05E
:1044B000EDF9022803D16D1C2DB2C82DF4DB0025C7
:1044C0006A460321002002F0E1F9022803D16D1CA5
:1044D0002DB2C82DF4DB306800990025401827461E
:1044E00028373060012100233A46084603F0C0F81F
:1044F000022803D16D1C2DB2C82DF3DB00256A46BE
:104500000321012002F0C2F9022803D16D1C2DB253
:10451000C82DF4DB00256A460321002002F0B6F91D
:10452000022803D16D1C2DB2C82DF4DB3068009930
:104530000025401827462C373060012100233A46D9
:10454000084603F095F802280AD105E0280100206A
:104550002C0100201C2002406D1C2DB2C82DECDB6C
:1045600000256A460321012002F090F9022803D1B8
:104570006D1C2DB2C82DF4DB00256A4603210020F6
:1045800002F084F9022803D16D1C2DB2C82DF4DB92
:1045900030680099002540182746303730600121E7
:1045A00000233A46084603F063F8022803D16D1C45
:1045B0002DB2C82DF3DB00256A460321012002F04D
:1045C00065F9022803D16D1C2DB2C82DF4DB00253E
:1045D0006A460321002002F059F9022803D16D1C1C
:1045E0002DB2C82DF4DB306800990025401827460D
:1045F00034373060012100233A46084603F038F88A
:10460000022803D16D1C2DB2C82DF3DB00256A46AC
:104610000321012002F03AF9022803D16D1C2DB2CA
:10462000C82DF4DB00256A460321002002F02EF994
:10463000022803D16D1C2DB2C82DF4DB306800991F
:1046400000254018274638373060012100233A46BC
:10465000084603F00DF8022803D16D1C2DB2C82DB9
:10466000F3DB00256A460321012002F00FF902283E
:1046700003D16D1C2DB2C82DF4DB00256A46032141
:10468000002002F003F9022803D16D1C2DB2C82DC1
:10469000F4DB306800990025401827463C3730602D
:1046A000012100233A46084602F0E2FF022803D126
:1046B0006D1C2DB2C82DF3DB00256A4603210120B5
:1046C00002F0E4F8022803D16D1C2DB2C82DF4DBF2
:1046D00000256A460321002002F0D8F8022803D101
:1046E0006D1C2DB2C82DF4DB3068009900254018F0
:1046F000274640373060012100233A46084602F041
:10470000B7FF022803D16D1C2DB2C82DF3DB0025A5
:104710006A460321012002F0B9F8022803D16D1C7A
:104720002DB2C82DF4DB00256A460321002002F0DB
:10473000ADF8022803D16D1C2DB2C82DF4DB306812
:104740000099002540182746443730600121002396
:104750003A46084602F08CFF022803D16D1C2DB2A8
:10476000C82DF3DB00256A460321012002F08EF8F4
:10477000022803D16D1C2DB2C82DF4DB00256A463A
:104780000321002002F082F8022803D16D1C2DB213
:10479000C82DF4DB306800990025401827464837BB
:1047A0003060012100233A46084602F061FF0228EA
:1047B00003D16D1C2DB2C82DF3DB00256A46032101
:1047C000012002F063F8022803D16D1C2DB2C82D20
:1047D000F4DB00256A460321002002F057F8022886
:1047E00003D16D1C2DB2C82DF4DB30680099002573
:1047F000401827464C373060012100233A460846CE
:1048000002F036FF022803D16D1C2DB2C82DF3DB58
:1048100000256A460321012002F038F8022803D15E
:104820006D1C2DB2C82DF4DB00256A460321002043
:1048300002F02CF8022803D16D1C2DB2C82DF4DB38
:104840003068009900254018274650373060012114
:1048500000233A46084602F00BFF022803D16D1CE4
:104860002DB2C82DF3DB00256A460321012002F09A
:104870000DF8022803D16D1C2DB2C82DF4DB0025E4
:104880006A460321002002F001F8022803D16D1CC2
:104890002DB2C82DF4DB306800990025401827465A
:1048A00054373060012100233A46084602F0E0FE0A
:1048B000022803D16D1C2DB2C82DF3DB00256A46FA
:1048C0000321012001F0E2FF022803D16D1C2DB26B
:1048D000C82DF4DB00256A460321002001F0D6FF35
:1048E000022803D16D1C2DB2C82DF4DB306800996D
:1048F00000254018274658373060012100233A46EA
:10490000084602F0B5FE022803D16D1C2DB2C82D59
:10491000F3DB00256A460321012001F0B7FF0228DE
:1049200003D16D1C2DB2C82DF4DB00256A4603218E
:10493000002001F0ABFF022803D16D1C2DB2C82D61
:10494000F4DB306800990025401827465C3730605A
:10495000012100233A46084602F08AFE022805D1CA
:104960006D1C2DB2C82D00E06FE1F1DB00256A4619
:104970000321012001F08AFF022803D16D1C2DB212
:10498000C82DF4DB00256A460321002001F07EFFDC
:10499000022803D16D1C2DB2C82DF4DB30680099BC
:1049A00000254018274660373060012100233A4631
:1049B000084602F05DFE022803D16D1C2DB2C82D01
:1049C000F3DB00256A460321012001F05FFF022886
:1049D00003D16D1C2DB2C82DF4DB00256A460321DE
:1049E000002001F053FF022803D16D1C2DB2C82D09
:1049F000F4DB3068009900254018274664373060A2
:104A0000012100233A46084602F032FE022803D173
:104A10006D1C2DB2C82DF3DB00256A460321012051
:104A200001F034FF022803D16D1C2DB2C82DF4DB38
:104A300000256A460321002001F028FF022803D147
:104A40006D1C2DB2C82DF4DB30680099002540188C
:104A5000274668373060012100233A46084602F0B5
:104A600007FE022803D16D1C2DB2C82DF3DB0025F3
:104A70006A4601E0CEE0E7E00321012001F006FFF5
:104A8000022803D16D1C2DB2C82DF1DB00256A462A
:104A90000321002001F0FAFE022803D16D1C2DB283
:104AA000C82DF4DB306800990025401827466C3784
:104AB0003060012100233A46084602F0D9FD022861
:104AC00003D16D1C2DB2C82DF3DB00256A460321EE
:104AD000012001F0DBFE022803D16D1C2DB2C82D90
:104AE000F4DB00256A460321002001F0CFFE0228F6
:104AF00003D16D1C2DB2C82DF4DB30680099002560
:104B00004018274670373060012100233A46084696
:104B100002F0AEFD022803D16D1C2DB2C82DF3DBCF
:104B200000256A460321012001F0B0FE022803D1CE
:104B30006D1C2DB2C82DF4DB00256A460321002030
:104B400001F0A4FE022803D16D1C2DB2C82DF4DBA8
:104B500030680099002540182746743730600121DD
:104B600000233A46084602F083FD022803D16D1C5B
:104B70002DB2C82DF3DB00256A460321012001F088
:104B800085FE022803D16D1C2DB2C82DF4DB002553
:104B90006A460321002001F079FE022803D16D1C32
:104BA0002DB2C82DF4DB3068009900254018274647
:104BB00078373060012100233A46084602F058FD5C
:104BC000022803D16D1C2DB2C82DF3DB00256A46E7
:104BD0000321012001F05AFE022803D16D1C2DB2E1
:104BE000C82DF4DB00256A460321002001F04EFEAB
:104BF000022803D16D1C2DB2C82DF4DB316800985A
:104C000008183060204669467C3001F02CFE0546CD
:104C1000012801D0062518E030680099401830605E
:104C2000600506D10B48016802225140016002F084
:104C3000E5FC09488034844201D2FFF7A3FA074813
:104C400031680068884200D00B250120FDF7C0FCC8
:104C50002846F8BD0044005C00000208000500186A
:104C6000F8B505460120FDF7B3FC364CA0680121DC
:104C700049030843A06060680826B0436060A068EC
:104C80000843A0606068B04360602068B043206063
:104C9000A06809110843A060606804229043606026
:104CA000A06820210843A060616802208143616000
:104CB000216891432160216881432160322000F006
:104CC0008FFE2068400840002060606830436060CC
:104CD000A0680F2109038843A060A068032109038D
:104CE0000843A060184E00207D27B080FF0000F030
:104CF0003BFE0446012805D0B088401C00B2B080BD
:104D0000B842F4DB002D14D0012C14D10020F08027
:104D1000012D13D00D4801F063FA0446012805D097
:104D2000F088401C00B2F080B842F1DB022000F0B5
:104D3000FFFC012C00D004242046F8BD0348801E4F
:104D4000E9E700000046005CE801002005005FA0E4
:104D500038B50C46054600F02DF8012822D1410255
:104D6000124800F05FF901281CD1E043010410480B
:104D70002143281802F06EFC012813D100F0D6F868
:104D800001280FD1094C6A4614340221204600F054
:104D900058F9012806D10098002804D002212046A5
:104DA00000F059F938BD0E2038BD00000420024043
:104DB0000000F81F38B50F4C6946204601F053FD3E
:104DC000012800D00020002812D000F04DF8012862
:104DD0000ED100F073F801280AD100F00DF8012877
:104DE00006D16946204601F03EFD012800D0002092
:104DF00038BD00000420024038B500F097F80128C3
:104E00000BD1164C6A460121204600F01AF9012800
:104E100003D10098002801D0032038BD6A46042140
:104E2000204600F00EF90128F7D10098002812D092
:104E30000A4D0B491035284602F00CFC0128ECD134
:104E40000849284602F006FC0128E6D169462046BA
:104E500001F009FD38BD012038BD000004200240EA
:104E6000C8D9EAFB2726252438B500F05FF80128C9
:104E70001CD10F4C6A460121204600F0E2F80128BF
:104E800014D1009800280DD0094D0A49083528464C
:104E900002F0E0FB012809D10749284602F0DAFBBD
:104EA000012803D16946204601F0DDFC38BD000031
:104EB00004200240EFCDAB890504030238B500F0B1
:104EC00035F801280BD1164C6A460121204600F026
:104ED000B8F8012803D10098002801D0032038BD7C
:104EE0006A460221204600F0ACF80128F7D100986C
:104EF000002812D00A4D0B490C35284602F0AAFBB7
:104F00000128ECD10849284602F0A4FB0128E6D18B
:104F10006946204601F0A7FC38BD012038BD0000DD
:104F200004200240BFAE9D8C16151413F8B5002660
:104F3000164D7D27164C6E80FF006A4601212046E3
:104F400000F07FF801281CD1009800281BD0688849
:104F5000401C80B26880B842EFD36E800D4E6A4626
:104F60000121204600F06DF801280AD100980028A0
:104F700009D002F043FB6888401C81B26980B142CD
:104F8000EDD30320F8BD0120F8BD0000E8010020AA
:104F900018200240983A000010B50024FDF7F8FBF5
:104FA000082000F0C5FB00F0D3FB082000F0C0FB98
:104FB000FCF7B0FE082000F0BBFB641C052CEDDB09
:104FC00010BD0000F0B5134C134FE36A246B1B0CAB
:104FD00025042B4306467D693560BD690D600F4988
:104FE0000120240C8B4204D10D498C4201D1FF21B8
:104FF00009E031680E0E0E2E07D1994205D1A9B2F3
:10500000A14202D10E211170F0BD002010700220CB
:10501000F0BD00000001001800050018FFAA55FFB0
:10502000A568000038B50C460546694601F01BFC32
:10503000012805D100992846A143009102F00AFBFE
:1050400038BD70B50D461446114601F00CFC2168C0
:105050002940216070BD38B50C460546694601F00F
:1050600002FC012805D1009928462143009102F055
:10507000F1FA38BD10B518220249FBF773F8002089
:1050800010BD0000D810002070B50E4D05202C6812
:10509000182184430C48FBF72BF9012004430B48EB
:1050A000012100684905044307482C600161491249
:1050B0000160C910416000218160C1604161084602
:1050C00070BD00009C010020D81000209801002035
:1050D00001490160002070477856341210B501F084
:1050E0005DFE02490020086010BD00009C01002008
:1050F0000249096801600020704700009C010020FF
:1051000070B50D4601210C4C0903884212D20122D0
:105110000A4902F031FC00280CD10024002D09D0EE
:10512000012252022946054801F00CFB002801D05B
:10513000014CA41E204670BDF7FEFFFFF0100020BA
:10514000FEB5FBF7CDFEFCF7F5FD9448924C064604
:105150002168723000256036914F01900B0000F0FD
:1051600007FB0906254F50AB404F4FFD4F008D48C0
:1051700005708D488168090B0903816081688B4A3D
:10518000114381608A4A20218A48FDF711FB884833
:105190006A46C18A1180008B50800099019800F006
:1051A0003DFC019801F028FD01208CE001F01EFF7C
:1051B000FBF70CFE01F0B0FE7848C030C18B491CF3
:1051C000C183019801F0DCFCFCF74EFF7A480268CD
:1051D00004218A43026003202060FCF7E1FD774947
:1051E00048E0707901280BD17548006801F0E4FCB3
:1051F000FF212D31884203D37249052008702560B4
:10520000BBE0B878022802D0012842D0B5E0388847
:10521000242802D025280CD0AFE03D80FCF7A8FB65
:10522000FCF722FF644801680422914301600820D2
:1052300049E03D80FCF718FF5F4801680222914376
:1052400001605E480068012816D002252846FCF758
:1052500047FB5B49024608804B210120FDF726FAF7
:10526000042D08DC0420206057490120086001F06B
:10527000A9FC5349086080E0FCF792FB05B2012DC0
:10528000E4D1FCF7F1FE4C48026804218A43026035
:1052900073E038881E2807D14C480168C90706D03A
:1052A00001684908490001603D807D80FEBD0268BB
:1052B00001210A430260F7E74148006801F07CFCE5
:1052C000032802D90320206057E0B878022854D17F
:1052D00038881E2851D13C493D800868401C086030
:1052E0000A28E3D33A4DA8680F2109068843A8602D
:1052F000A868012149060843A860FCF7B5FE00F044
:1053000089F900F09DF9A9680F2000068143A96082
:10531000A868012149060843A860FCF7A5FE00F033
:1053200069F9FF20013000F003FA686840218843E2
:105330006860A9680F2000068143A960A868A8607A
:105340006868802188436860A86800010009A86037
:10535000A868A860184842688A4300E007E04260F5
:1053600081680901090981608168816005E0B87878
:10537000022802D1388825280BD03888012895D1F9
:105380007A883D21FDF792F9B87870710520206088
:10539000FEBD3D800320FAE7000100200000002050
:1053A0003C010020460100200021005C6307000052
:1053B00004020020400600180044005C5801002050
:1053C0006001002040010020500100200046005CE8
:1053D0000043005C70B50D462B4901230A781A433F
:1053E0000A700021294A1F28117003D82946FCF7AA
:1053F00085F970BD0146012320395B02FF2910D8D1
:10540000C02905D2480222492A464018194628E0F8
:1054100048020321C903401A2A46194601F0EEFD4D
:105420002EE00446FF3C213C032C2BD8FF221E46D5
:1054300019462846FAF735FF002C08D0FF21013124
:10544000012C09D0022C0AD0032C0DD018E0032027
:105450002A463146C00604E02A460E4801E02A46A4
:105460000D48FDF7A5F90BE00C4928461EC9FF3091
:10547000E1301EC00948FF3510300FC8F1350FC5A7
:10548000002070BD064870BD4B0100204A0100207D
:10549000008000100002001800030018000500182A
:1054A000F7FEFFFFF8B5444E0C46B1601F2803D845
:1054B0002146FCF757F9F8BD728801214902904254
:1054C00015D3D31DF833984211D8801AC02806D2BC
:1054D0003A4A400280182246FDF700F969E00322AB
:1054E0004002D203801A224601F05AFC61E0B288E1
:1054F00090425ED3D31C98425BD8821A3048314F19
:10550000314D06D0012A14D0022A32D0032A3CD0D1
:105510004FE02246FDF7E2F82C4A39462846FDF7CF
:1055200047F9B1685022FF3128480131FAF778FE77
:105530003AE0264A39460646FDF73AF9FF2201329B
:1055400021462348FAF70EFE204A39463046FBF73B
:105550004FFE1E4A39462846FDF72AF91B48AE225F
:1055600021465030FAF7FEFD18481A49C030C1876D
:105570001AE0164A39460546FDF71AF9FF220132AC
:1055800021461548FAF7EEFD0EE0104A3946284646
:10559000FDF70EF92246FF32E1324DCA0F49FF34C2
:1055A0004DC1F1341DCC1DC1084A39462846FBF7D0
:1055B0001FFE0020F8BD00006401002000800010E4
:1055C000000000180004000000040018040200207D
:1055D00004040020A5680000040500200403002046
:1055E0007047704770477047704770477047704703
:1055F0007047704706480168012211430160016845
:1056000002221143016001680422114301607047C6
:105610000044005C064801684908490001600168CF
:1056200002229143016001680422914301607047A6
:105630000044005C7047704710B5FBF759FD10BD82
:105640001B49012008801B4801F09AFA1A48426859
:1056500004210A43426002688A430260000401F0A8
:1056600065FE002000F03AF901F05EFC002001F038
:1056700085FF1820FCF788FF1820FCF79DFFFDF739
:1056800073FCFCF763FF202000F042F80B49002078
:1056900008700B4908700B4881680F22120691436D
:1056A00081608168816001F0A9FFFDF761F9FAE787
:1056B00042010020720000200001005C4B0100202C
:1056C0004A0100200043005C704700000F48016859
:1056D000022291430160026804218A430260026849
:1056E0000A43026002688A43026002680A43026059
:1056F00002688A43026002680A43026002688A43C1
:10570000026002680A430260704700000046005CC5
:105710000021064A07E01368DB07FCD01368DB07AB
:10572000FCD1491C09B28142F5DB70470021005CC5
:105730000021064A07E01368DB07FCD01368DB078B
:10574000FCD1491C09B28142F5DB70470021005CA5
:105750000648016801221143016001680222914359
:105760000160016804221143016070470044005C3D
:1057700030B47446641E2578641CAB4200D21D46CA
:10578000635D5B00E31830BC1847000010B5084AA1
:105790009069401890611369984201D2402906D25D
:1057A00090784006400E9070012001F075FE10BD0B
:1057B000A801002010B50C46012001F06DFE05493E
:1057C000012001F0B3FE0448202284628178114355
:1057D000817010BD89580000A801002038B5022052
:1057E00001F05AFE1149022001F0A0FE104C0025E4
:1057F000E078C107002909D0400840000023E0708C
:105800001A46194618460095FCF7A4FD6078002852
:1058100008D008480822C16DC06D09781140491CA4
:105820000170657001F0A4FD38BD000089580000CA
:10583000A8010020947B000010B50949022001F066
:1058400075FE0849012001F071FE0748FB22C1786E
:105850001140C1700121054801F050FE10BD00004B
:1058600089580000B5570000A8010020201700202B
:1058700010B5022001F010FE024881784906490E59
:10588000817010BDA80100207047CA7802708A7824
:1058900042704A7882700978C170704710B5064826
:1058A0000068002802D08047002803D10349012066
:1058B000C968087010BD000090010020947B0000B2
:1058C00005480168012252029143016001685200BB
:1058D00091430160704700000003005C70B5164CF6
:1058E00006462068012149028843206020684D0057
:1058F000A843206000F024F82068000C0004083061
:105900002060F1070D48216801D0014300E0814388
:10591000216020682843206001E001F06FFE2068CC
:105920000004FAD52168FF200130814321602168FD
:105930000143216070BD00000003005C0010000006
:1059400010B5084C2068FF21013188432060206891
:1059500020600120606001E001F050FEA068400777
:10596000FAD410BD0003005C3EB502A800F00EFDA5
:10597000012804D117490298884201D008203EBD71
:105980000020154C009001A800F045FF0128F6D139
:105990000198A04204D00098401C00901428F2D333
:1059A0000198A04201D007203EBD0C49002001F023
:1059B00031FE6946012000F047FF0128F4D100982C
:1059C000800605D50421002001F034FE0128EBD12A
:1059D00001203EBD7714C10B310077040200002284
:1059E00070B5C40800205A23A526094D094A641C35
:1059F0000BE02968C907FCD02968C907FCD11360EE
:105A00001168C907FBD01660401CA042F1D370BDDD
:105A10000021005C0020005C7047704770B50546AF
:105A2000C8060C46800E0A21FAF77DFC00014018DA
:105A300068716005800E0A21FAF775FC00014018B4
:105A400028712004C00E0A21FAF76DFC00014018ED
:105A5000E870E002C00E0A21FAF765FC0001401868
:105A6000A870E001000F0A21FAF75DFC0001401860
:105A70006870600E1438C0B20A21FAF754FC0001B5
:105A80004018287070BD37B56846002103780A2594
:105A90001C091B076C431B0FE3180370401C491CB7
:105AA0000629F3D36B461878A906400641185878A2
:105AB0000007C00908439978C906C90A0143D87884
:105AC000C006000C084319798906490D014358792D
:105AD0008006C00E0843002A06D09075010AD175D1
:105AE000010C1176090A51763EBD0000F0B42B4A34
:105AF0002B4B10789688C1063007D488C90E000F4A
:105B00000122002C35D1274FBD7A002D03D0012D65
:105B100001D0022D2DD1214C0029648804D0012907
:105B200027D0022906D024E0012C22D1002038728F
:105B3000F0BC7047002C1CD106281AD21A49095C07
:105B4000012916D11549282409790907090F61434C
:105B5000134C0919002808D08C6836062478F60FF3
:105B6000E409E401F601B44203D1022D04D0002877
:105B700002D0D8680270DBE70C4A1268002A01D014
:105B8000F0BC1047CA68082310781840107009222A
:105B9000C9681040801C0870CAE700007E01002020
:105BA000947B0000CC0E0020860100209401002090
:105BB00030B511480F494588104C01220B68002D63
:105BC0000ED18588002D0BD1C088012808D10C4D3D
:105BD000887AA96E002806D0012804D0022804D0B3
:105BE000E068027030BD002000E0587908706A66F5
:105BF00030BD0000CC0E00207E010020947B000010
:105C00005C0E0020FCB54248424901904A88643845
:105C1000110AD3B2404A806E1268012904D00124CF
:105C20003E4D022970D112E03A4B1178DB888B424D
:105C300000D2D9B2019B196003E013780370401CB5
:105C4000521C0B46491EC9B2002BF6D1FCBD51694E
:105C5000527C9A4258D91A0151188E46C9680022BE
:105C60008C46714605E00B780370521C401C92B2C2
:105C7000491C73461B789342F5D8002131E06146F8
:105C80004968002623E00B460024CA6805E01D7819
:105C90000570641C401CA4B25B1C0D78A542F6D8AC
:105CA00000250EE01446002305E0277807705B1CF2
:105CB000401C9BB2641C17789F42F6D86D1CADB295
:105CC00008320B79AB42EDD8761CB6B21031624681
:105CD0005278B242D7D8614608318C460099491CA7
:105CE00089B2009171460A7900998A42C7D8094958
:105CF00070464088C988884202D901980160FCBD7D
:105D000001990860FCBDFFE7E8680470FAE700004D
:105D1000C00E00207E01002078010020947B00004E
:105D2000F0B51649164C0B6866880122154DD868E7
:105D3000002E20D1E688012E1DD1897A00291AD0A3
:105D4000012918D0022916D100263146A4881B79D2
:105D50000AE00778A74204D181780B48806E017071
:105D600006E0491CC9B208308B42F2D8002E02D09E
:105D700005484266F0BDE8680270F0BDCC0E002018
:105D80007E010020947B00005C0E0020F0B53D4CAD
:105D90003E4B20783C49C20620791E68896E00255A
:105DA000F3680D704D7000076788D20E000F012454
:105DB000374D002F14D1334FFF88022F10D1334FAE
:105DC000BF7A002F04D0012F02D0022F08D10AE0A1
:105DD000002A05D0012A03D0022A4DD100282ED056
:105DE000E8680470F0BD002A04D0012A15D0022A08
:105DF00023D041E0234A254B92881868002A01D01D
:105E0000EA681470C0794006800F00D00C701A7ACE
:105E1000087852001043087030E01A4900208A8840
:105E2000317905E01E78964204D0401CC0B2083398
:105E30008142F7D881421FD920E006281CD2154A9A
:105E4000125C012A18D100280DD028224243521991
:105E500092681278D3090B4ADB0112791206D20F2D
:105E6000D201934208D1282250434019C0680078DB
:105E7000C00703D00C7001E0E868047002480221FA
:105E80004166F0BD7E0100205C0E0020CC0E00209B
:105E9000947B00008601002010B50D480122818806
:105EA0000C4B002911D1C18800290ED141887F29CE
:105EB0000BD8094CA07A002805D0012803D002286D
:105EC00003D1002901D0617210BDD868027010BDE5
:105ED0007E010020947B0000CC0E0020F0B53748F6
:105EE000374B026898880126364D5469002861D1E5
:105EF000D88800285ED15988080A5BD1324FB87A19
:105F0000002857D0012801D0022853D1002903D0FE
:105F100000208446537C48E0286B2A6B0178EF20F0
:105F200001401170A96DAA6D0978014011702549D1
:105F300080310A681378034013708A6A137803402B
:105F40001370096D0A7802400A70002139601F4AF7
:105F5000BE7201201154401CC0B20628FAD31C485E
:105F6000017D490849000175F0BD62798A4219D165
:105F70001548022104608172114F00207880B8809A
:105F800000F07CF8B888401C80B2B8802179884243
:105F9000F6D3E8680078C007E6D00B48002101601E
:105FA0008672F0BD401CC0B210348342DDD860461A
:105FB0000028F6D1E8680670F0BD000078010020E6
:105FC0007E010020947B0000CC0E00208601002082
:105FD0008040004102490120C968087070470000F4
:105FE000947B0000F0B5214A214B10789788C106B8
:105FF0003807D488C90E000F0122002C2ED11D4D68
:10600000AE7A002E03D0012E01D0022E26D1174CDD
:106010000029648804D0012920D0022904D01DE081
:10602000012C1BD12A72F0BD002C17D1062815D2E5
:106030001149095C012911D100280BD028214143C5
:10604000C91889683C060978E40FC909C901E40147
:10605000A14203D1022E04D0002802D0D8680270D9
:10606000F0BD80210843E872F0BD00007E010020F1
:10607000947B0000CC0E002086010020F0B5504C2F
:106080004E48E188026800297DD10023807AD168DA
:106090009C46002877D0012875D0022873D10020B3
:1060A000A38812797EE00D789D4278D100244B6858
:1060B00017E00020EF26DA680DE0957828272D07F5
:1060C0002D0F7D433F4F401CED19AD68C0B22F78B6
:1060D00037402F7008321D798542EED8641CE4B237
:1060E00010334D78A542E4D8354B00205B884A68D0
:1060F00052E0D4789C424CD1D0688B700121324C54
:1061000000236354491CC9B20629FAD300232BE0AB
:10611000817808270C07CD09C178ED018907890F1F
:106120001035240F0D43282126464E43254971186A
:106130008E683570CD682E783E402E704E69057998
:106140003570CF6809263D783540AD1C3D708D68AF
:106150002D78ED0902D0C96804250D7001211A4D72
:106160005B1C2955DBB2083011799942D0D816480A
:1061700016494079012808D00A7F042002435008BC
:1061800040000877F0BD13E009E0087FFA221040D4
:10619000F7E7401CC0B210328542AAD805E0401C87
:1061A000C0B20831824200D97DE760460028E9D1BB
:1061B00004490120C9680870E4E70000CC0E002003
:1061C0007E010020947B000086010020A040004159
:1061D00002490120C968087070470000947B0000E4
:1061E000F8B5154D0646C8242946012001F012FADB
:1061F00001281ED13146032001F00CFA012818D1E4
:106200002946012001F006FA012812D1694603202F
:1062100000F0F2FA01280CD16946032000F014FBCB
:10622000012806D10098641E800303D4002CE7DC0B
:106230001420F8BD0120F8BDF0ED00E000200B4A6D
:106240004B21090100BF00BF00BF00BF00BF00BF5E
:1062500000BF00BF00BF93681B0601D50120704737
:10626000401C00B28842EDDB00207047002800414E
:10627000F0B5254C0746606816460D461021884348
:106280006060384600F058F80028FAD0A16820462F
:1062900080239943A160A1680227B943A160082126
:1062A0006268012D01D98A4300E00A434260C26856
:1062B0000024AF1E18E0FFF7C1FFFFF7BFFF124831
:1062C00081688022914381608168022291438160CC
:1062D000012D05D9BC4203D1416808221143416018
:1062E000C0683070641C761CAC42E4D30648416838
:1062F000202291434160826880218A4382608268C3
:1063000002218A438260F0BD0028004110B5094C8B
:10631000A16880229143A160A16802229143A160FB
:10632000E060FFF78BFFFFF789FFA068C007C01789
:10633000401C10BD0028004170B5134C0546A068F4
:1063400080218843A060A06802218843A0602026A5
:1063500011E06068B0436060A1688806FCD4E56025
:10636000606830436060FFF769FF002806D1FFF7DF
:1063700065FF002802D1A0680006EAD5A068C00722
:10638000C017401C70BD00000028004138B504460D
:10639000FBF798FD2146002000F056FA012817D19E
:1063A0000521090701F046F9012811D1FF242D34F8
:1063B00005256D076946012000F046FA012807D13E
:1063C00000992846884304D0641E002CF2DC152076
:1063D00038BD0021022001F02DF938BD30B5124C36
:1063E0002568AD08AD002560850702D02568054306
:1063F00025600D48CC0704210838002C846801D0A2
:106400000C4300E08C438460D2070821002A826894
:1064100001D00A4300E08A438260C168090A090288
:106420001943C16030BD00000801005C30B5114C5B
:1064300025682560850703D025680002054325608F
:10644000CC070E480C49846801D00C4300E08C4313
:106450008460D2070A49826801D00A4300E08A4377
:106460008260C168FF22120491431A040A43C26089
:1064700030BD00000801005C000400000001005C69
:1064800000080000F8B5FBF7EFFD364C60684008E7
:1064900040006060A06800090001A060A0680226BA
:1064A0003043A0606068B0436060A068F02188431A
:1064B000A060A06820210843A06060680427B8435A
:1064C0006060A0680F2109028843A060A0683102C3
:1064D0000843A0606168082001436160224D69683B
:1064E00001436960A0680F2109038843A060A06888
:1064F000A0600022422311460120FFF76FFFA86829
:106500000F2109038843A860A868A86060688021FB
:1065100008436060A06800010009A060A068490508
:106520000843A0600022472311460220FFF77EFFA8
:106530000E48426801210A43426042683243426089
:1065400042683A4342600A4A116002680A430260A4
:1065500002683243026002683A4302600548016003
:10656000F8BD00000044005C0042005C0001005CDB
:1065700080E200E000E100E002490120486030BF15
:10658000704700004000005CFCF736F8FEF704FDA1
:106590000C49002008600C4908700C4908700C492F
:1065A0000870FFF7CDF9002000F020FBFEF7C8FDD2
:1065B000FBF7EAFCFBF766FD01F020F8FFF7DCFFD4
:1065C000F4E7000000010020400100204501002008
:1065D0004C010020F8B5104E0E4F31680120CD1946
:1065E0004002F9F7A0FE441E08D03946284632681A
:1065F00000F0B8F830684519641EF6D10120400259
:106600003168F9F790FE0A0003D03946284600F0B9
:10661000A9F8F8BD28130020C8010020F0B5944661
:106620008E4680222D4E0027069C05990546062899
:1066300009D030460770477087702478C01C640703
:106640000DD407700CE077702478B01C640701D477
:10665000077000E00270401C0770042407E002701D
:10666000401C077047708770C7700824C01C002B3F
:1066700012D10822027047708A7882704A78C270FC
:106680000A7802714771091D8A7882714A78C2714D
:1066900009780172083008346146401C032903D090
:1066A000042905D0302700E018270C49303902E0D2
:1066B0000A49182718397246402A3A4608D000F08D
:1066C00051F8E019062D07D0761C411E3170F0BD3F
:1066D000002100F059F8F4E7004EF6E720130020FF
:1066E000F0B51649144E0D7830466438876E4C78F4
:1066F0004B888A880020C988212D0ED0A12D0BD16E
:10670000FE2C09D1002B07D1002A05D1012903D184
:106710003870012030600120F0BDFF2CFCD1002B2F
:10672000FAD1002AF8D10029F6D10548FD22C17816
:106730001140C170EFE70000C00E00207E01002074
:10674000A801002030B5002308E004780D78AC42A1
:1067500001D0012304E0401C491C521E002AF4D140
:10676000184630BD04E00B780370401C491C521ED3
:10677000002AF8D1704704E00B780370401C491CD4
:10678000521E002AF8D1704702E00170401C521ED0
:10679000002AFAD17047000070B5144C022801D0CD
:1067A000012802D1E17889071ED42821104D4143E8
:1067B0004A19D36808261978314019700923D2681C
:1067C0001940891C1170E17849070DD502280BD1B9
:1067D000E96D04200870E078FB210840E0700D228C
:1067E0000221044800F0AAFE70BD0000A8010020AC
:1067F000947B00004017002070B50D460646C82463
:106800002A463146012000F041F8641E022801D1D9
:10681000002CF5D170BD10B50446F021022000F027
:1068200009FF01280FD121460320FFF7E5FF0128CA
:1068300009D12146032000F007F8012803D10021E7
:10684000022000F0F7FE10BD70B50D460646C824C4
:106850002A463146002000F019F8641E022801D1B2
:10686000002CF5D170BD10B50C460146012000F09A
:10687000D1FE012809D121460320FFF7BDFF0128E1
:1068800003D121460320FFF7DFFF10BDF0B5CE078F
:106890008907F60FCD0FB446411C614469400024BE
:1068A000C907C90F8E46654914608E6823462027A4
:1068B0003E438E604F680226B7434F600F683743F0
:1068C0000F600F680426B7430F600F6837430F60EF
:1068D0000028086802D00227384301E00227B843A5
:1068E000086008460968B1430160016831430160EE
:1068F000076802210F4307600768B743076007680E
:10690000374307606746002F076801D00F4300E058
:106910008F43076007460068B043386038683043EB
:1069200038603868002D01D0084300E088433860A3
:106930003868B043386038683043386070460028A3
:10694000386801D0084300E0884338603868B043B5
:1069500038603868304338603D68022085433D60C8
:106960003D68B5433D60396831433960396801435A
:1069700039603D68B5433D603968314339607968B5
:1069800001437960B86820218843B8603868B04313
:106990003860386830433860002039460D68B543A8
:1069A0000D600D680F68AD07ED0F37430F60854030
:1069B0002B43401C0328F1DB012B18D0022B02D003
:1069C000042B39D004230868B043086008683043BA
:1069D000086088682022104388604868022290433B
:1069E0004860FEF773FEFEF771FE1846F0BD012009
:1069F0000B68B3430B600B680D689B07DB0F3543D7
:106A00000D60002B05D0136803431360002C0FD0DA
:106A100000244000ECD10868B043086008680A68A8
:106A20008007C00F32430A60844203D10123CAE7C2
:106A30000124EEE70523C6E70323C4E70046005C14
:106A4000F8B5224C2249207C012687061F48BF0E3C
:106A50002774803803780B7002794A70027B057ABC
:106A600012022A434A80027D057C12022A438A8050
:106A7000027F007E12020243CA80881E0670154DF6
:106A80000420287000201449002A08604860086625
:106A9000486608D0180615D5FAF7F0FB207C80214F
:106AA000084320740CE0FAF7E9FB09480078000677
:106AB00006D402202870217C802001432174F8BD77
:106AC0002E70F8BD402007432774F8BD8040004178
:106AD0007E010020804100415C0E0020F8B5044694
:106AE0000346282043431D481D49C058002C057803
:106AF00006D10868012240195202904200D9FEE7EF
:106B00001749200147180A58BE68B6180096134E58
:106B100052199E19F3690A502A461846009900F046
:106B200027F801203169002C087004D0FA68294642
:106B300000989047F8BD0B48C0880028FAD0084953
:106B400009688142F6D1FAF799FB074902200870DB
:106B50000648BF22017C11400174F8BD947B0000FF
:106B60005C0E00207E0100208041004180400041F9
:106B700002E003780B70491C521EFAD270470000E5
:106B800010B500210A460B4B01E019695A691C69CE
:106B90008C42FAD15C699442F7D141710B0A0371BE
:106BA000090CC170110A8170110C4170110E017035
:106BB00010BD00004023005C01490968081A7047B5
:106BC000E40100200148006870470000E401002053
:106BD00004480168491C01600348016A012211430D
:106BE00001627047E40100204023005C0149086015
:106BF00070470000E401002000B5024600F05EF896
:106C00002B480168090A09020160016801602949ED
:106C1000C86940084000C8610868C009C001086030
:106C200008685379184308604868C009C001486083
:106C30004868137918434860886880098001886033
:106C40008868D378184388600869800980010861E2
:106C50000869937818430861486940094001486110
:106C600048695378184348618869000A00028861BE
:106C70008869127810438861086AC009C0010862F7
:106C80000A6A7F2002430A62CA6A8243CA62CA6AE7
:106C90000243CA62C869C008C000C861C869052249
:106CA0001043C861012004490007086000BD0000CE
:106CB0000021005C0023005C00E100E00548C169A0
:106CC00049084900C16101200349000708600349E0
:106CD000086070470023005C80E100E080E200E093
:106CE0000549096A026811800168891C0160C16850
:106CF000491CC16070470000000800410549096A4D
:106D0000026811700168491C0160C168491CC160BA
:106D10007047000000080041034A0021D161016969
:106D2000491C01617047000000080041034A00212E
:106D3000D1610169491C01617047000000080041F0
:106D40004168054A0988D16104494968891C416044
:106D50000169491C0161704700080041400E002094
:106D60004168054A0978D16104494968491C416074
:106D70000169491C0161704700080041400E002074
:106D800005480822416B09781140426B491C11707B
:106D9000806B012101707047947B00007047704741
:106DA000F7B5194B040B9D440127054624036E4695
:106DB0003F0332463946204600F020F92805000DF1
:106DC00085191248FA10684481682846FFF7BAFC12
:106DD000002814D00D48FA10684481682846F9F755
:106DE0001FFA204600F040F80025FF2172196019B3
:106DF000013100F025F9FF350135BD42F5D3034BD4
:106E00000C339D44F0BD000000F0FFFF00100000B7
:106E1000FEB5144C074620680D460426B04320609A
:106E2000062168460170012100F07CF9206830439A
:106E3000206000F06DF92068B0432060684607705C
:106E4000290C4170290A8170C570602F08D0042177
:106E500000F068F920683043206000F059F9FEBD69
:106E60000121F5E70042005C10B501462020FFF744
:106E7000CFFF10BD70B50120000400F04DFA24488A
:106E800081680F22120291438160816801235B02B5
:106E900019438160436804218B43436003680B43BB
:106EA00003601C48C3681B091B01C360C368C3603F
:106EB000C468F0239C43C460C468C460C46894433D
:106EC000C460C468C4608468240924018460846840
:106ED0008460446864086400446004686408640072
:106EE0000460446802252C43446084689C438460A9
:106EF000836810242343836083689343836082689C
:106F0000826042688A43426002688A43026070BDC0
:106F10000042005C0040005C10B5FFF7ABFFFEF7DD
:106F20000FFDFEF7CDFC10BDF8B50120000400F008
:106F3000FDF92C4881680F2212029143816081681B
:106F400001256D0229438160436804218B4343601E
:106F500003680B430360244883681B091B0183609B
:106F6000836803242343836043685B085B004360BA
:106F700003680124234303604368022633434360CC
:106F80008468F0239C438460846810273C438460B9
:106F9000846894438460846803273F023C43846090
:106FA00044688C43446004688C430460C1680909E8
:106FB0000901C160C1683143C160C1689943C160C2
:106FC000C16820231943C160C1689143C160C16891
:106FD0002943C160681C412109068860802000F0B7
:106FE000B5F8F8BD0042005C0040005C10B5002020
:106FF000FEF774FCFFF798FF10BD0000F7B584B0F2
:107000000F46044600F0FAFA0C4D28680426B043F7
:107010002860032069460870200C4870200A887098
:10702000CC703146684600F07DF83946069800F08D
:1070300055F828683043286007B0F0BD0042005C76
:10704000F7B5174C0546206884B00F460426B043B8
:1070500020600620694608700121684600F062F849
:1070600020683043206000F053F82068B04320606F
:10707000022069460870280C4870280A8870CD7074
:107080000421684600F04EF83946069800F04AF8A8
:1070900020683043206000F03BF807B0F0BD0000EE
:1070A0000042005C38B50B4C20680425A8432060E2
:1070B0000520694608700121684600F033F8012177
:1070C000054800F00BF8206828432060024800784B
:1070D00038BD00000042005C5C010020F8B50746A6
:1070E00041250A482D060E46A86000240AE001202A
:1070F000686001E000F082FA6868C007FAD1286889
:107100003855641CB442F2D3F8BD000003020000FD
:1071100010B5FFF7C7FFC00702D000F06FFAF8E71D
:1071200010BD000030B54123074A1B069A600022BB
:10713000012506E0845C1C605D605C68E407FCD1AE
:10714000521C8A42F6D330BD050200003EB5094C00
:1071500021680425A943216001216A4611705070FD
:1071600002216846FFF7DEFF206828432060FFF712
:10717000CFFF3EBD0042005CFEB55F4800270169BD
:107180008CB2446100684007C60F5C48807E0128CD
:107190002DD0022802D003284FD128E05749886813
:1071A000096988421DD90522144247D0534A0092EA
:1071B000514A9269D306DB0E1022D21AD5B2002EA4
:1071C00006D04F4E4A19824208D9401AC5B205E08E
:1071D0004C4EF7E70098B0476D1EEDB2002DF9D187
:1071E00072E0600777D545490020887625E042485F
:1071F0008069000AC00619D040480090002E06D0D1
:10720000414801903C488069C004C50E06E03F48F3
:10721000F7E70199009888476D1EEDB2002DF8D16F
:1072200036481822018B224011430183334AD1682A
:107230009068814203D30020907601274BE01169CA
:10724000884248D905231C4245D02C4A927E012A07
:1072500002D0032A1ED03EE0274A13689B073AD586
:10726000264B00939269D204D30E1022D21AD5B2C3
:10727000002E06D0264E4A19824208D9401AC5B2BD
:1072800005E0244EF7E70098B0476D1EEDB2002DE3
:10729000F9D119E0194A0092174A9269D204D30E23
:1072A0001022D21AD5B2002E06D0154E4A198242AB
:1072B00008D9401AC5B205E0124EF7E70098B0476A
:1072C0006D1EEDB2002DF9D10C48FF22018B113259
:1072D0001440214301830020002F0CD00648416850
:1072E000090A0902416005484269002A02D0018B5F
:1072F000806890470120FEBD00080041400E00203C
:10730000416D0000616D0000E16C0000FD6C00004B
:10731000196D00002D6D000003490A6902430A61DE
:10732000CA688243CA6070474000005C0349CA686B
:107330000243CA600A6982430A6170474000005CE8
:1073400007490020087007488168090B090381601C
:107350008168054A1143816004494005086070470F
:10736000460100200021005C6307000000E100E00E
:1073700010B51049C868C21DF93203D0FF30801C17
:1073800002D003E0012000E00220C8600A48042483
:10739000C1782143C1700949022000F0C7F80848AC
:1073A0000D22017E214301760221024800F0C6F839
:1073B00010BD000040170020A8010020395800002F
:1073C000E040004101490860704700009001002042
:1073D00001490860704700009401002030B523493E
:1073E00000220A604A600A61224B4A61CB608A61CE
:1073F0000A624A62CB618A620A634A63CB628A6329
:107400000A644A64CB638A640A654A65CB648A6508
:10741000174C0A668C60CB658C66CB664A6616494B
:1074200001230B741E240C751449164D49680C7801
:107430001C400C70114C803CE1680A70104924C15A
:107440000A704A708A70CA700F490B700F49086041
:107450000F490A600F490A606269C1791170C179E8
:10746000E01DF9304068017030BD00005C0E002066
:10747000D80E0020195A000080400041147C000002
:10748000CC0E00201B5A000086010020780100204D
:107490009001002094010020012807D0022805D087
:1074A000032803D0042801D0052809D128235843F4
:1074B000054B0449C01820300A7C007982430A74C5
:1074C0007047000080400041947B00000849002084
:1074D000097A012907D107481022017F1143490881
:1074E000490001770120044A012111707047000012
:1074F000CC0E0020A04000418C01002010B5084BAC
:107500000A01D418A0600020985028235943064B44
:107510000448C9182031027C09790A43027410BD5D
:107520005C0E002080400041947B0000024A000174
:107530008018C160704700005C0E002070B50C4DD3
:107540000C0163195E68002E01D0002070BD5A60E6
:107550009860282359430020074B28510548C91833
:107560002031027C09790A430274012070BD0000B9
:107570005C0E002080400041947B000003490028FD
:1075800002D00620086070470220FBE79801002027
:107590000F48416840229143416082680F210906EB
:1075A0008A438260826801235B061A4382604268D4
:1075B00080239A43426082681201120982608268C5
:1075C000826082688A4382608168816070470000BF
:1075D0000043005C064801214078012803D005489B
:1075E000C068017070470448FF220270F9E700008C
:1075F0007E010020947B00007C01002004485A2179
:1076000001600268D207FBD0A5210160704700002D
:107610000020005C70B50D460646C82400232A46AB
:107620003146012000F024F8641E022801D1002C0C
:10763000F4D170BD70B50D460646C82400232A4615
:107640003146184600F014F8641E022801D1002CBF
:10765000F4D170BD10B50C4601460120FFF7DAFFEA
:10766000012803D121460320FFF7D4FF10BD0000FD
:10767000FFB5CB078907DB0FCE0FC118002401250A
:1076800071402940704F8C46B968964620221143BC
:10769000B9607A6802218A437A603A681143396096
:1076A0003A6804218A433A603A68114339600028F5
:1076B000386802D00221084301E002218843386083
:1076C000396804208143396039680143396038687A
:1076D0000221884338603A68042082433A603A685D
:1076E00002433A60002B03D03A680A433A6002E052
:1076F0003B688B433B603B68042083433B603B68B3
:1077000003433B603A68002E01D00A4300E08A43FD
:107710003A603B6883433B603B6803433B6062469F
:10772000002A3A6801D00A4300E08A433A603A6886
:107730003B4682433A603A6802433A603A68022123
:107740008A433A603A6882433A603A6802433A6050
:107750001A680A431A601A6882431A601A68024358
:107760001A605A680A435A609968202291439960C6
:1077700019688143196019680143196000211E6866
:1077800086431E601E681F68B607F60F07431F601A
:107790008E403443491C0329F1DB012C02D00399AC
:1077A000002939D0196881431960196801431960AB
:1077B000996820221143996059680227B94359609A
:1077C0000024012176460E421E680DD03E431E6005
:1077D0001E6886431E601E6806431E60002C01D092
:1077E000002409E0012407E0BE431E601E688643B2
:1077F0001E601E6806431E604900E3D11968002C14
:1078000001D0394300E0B943196019688143196018
:1078100019680143196004E0022C11D0042C11D026
:1078200004259868202108439860586802218843FD
:107830005860FDF74BFFFDF749FF284604B0F0BD47
:107840000225EEE70325ECE70046005CF8B53D496C
:1078500005016B183C49282646435A681C1D7618BA
:10786000002A1ED0706937490778495998681D4623
:107870004118306ABA4208D93A4600F06DF82868D3
:10788000C01928602068C01B06E000F065F8286871
:1078900021684018286000202060316902200870AB
:1078A000F8BD2A4C06280DD02036207C317988433B
:1078B00020742448DA68415998689047214900208B
:1078C0004851F8BD1F4B22787033587A0127824205
:1078D00006D0207000281FD0987A022800D09F720E
:1078E000D87A02060BD54006400ED87228225043A3
:1078F0004018C068082201781140491C0170207CA2
:1079000014494006400E207411480770C9880029A8
:10791000D4D002210170D1E70C48EF2280300679E3
:1079200016400671067A16400672067B16400673EC
:10793000067C16400674067D164006750020186009
:107940009872CDE75C0E0020947B000080400041DF
:10795000804100417E01002030B593089207920FCC
:1079600001E020C905605B1EFBD202E00B780370CA
:10797000491C521EFAD230BD084610B551020246CB
:10798000FFF70DFA002010BD70B501250400ED07CA
:107990004C4020D4441A01D2001B0919C60D4B00DB
:1079A000F2B2FF2A29D01B0E2CD000020C02D31AEF
:1079B0002C43DC402843051910D2280A02D3401C6E
:1079C0006D0611D0761EF6058019FF2A00DA70BD0B
:1079D000C00DC00570BD694000F04CF801200543A2
:1079E000C541521C761CE8E764089C40C90161400F
:1079F0008900E7D10124A043E4E71B0E440200D034
:107A0000034870BD002AFCD1C00FC00770BD00BF85
:107A10000000C07F01230200DB050A430DD4DA42D7
:107A200003D49A4207D488427047D84214D4D9422A
:107A300012D48842704780427047DA4203D59A4296
:107A4000F9D5814270475B004200DA4204D24A0015
:107A5000DA4201D28142704710B5024AF9F7F4F8D0
:107A600010BD00BF0900160470B501250400ED0724
:107A70004C4022D4441A02D26C40001B0919C60D96
:107A80004B00F2B2FF2A4BD01B0E50D000020C026A
:107A9000D31A2C43DC40A843051B05D5AD0019D3F0
:107AA0006D08761E521E37D0F605280A01D28019BD
:107AB00070BD70416D0603D070BD6940FFF76AFF6D
:107AC0009C4009026140490001D0401E70BD012464
:107AD000A04370BD6D081DD001202B0C01D12D04D9
:107AE00010302B0E01D12D0208302B0F01D12D01AA
:107AF000001DAB0F01D1AD00801CEB0F01D16D005B
:107B0000401C6D00361A121A680AF5054019012A40
:107B100002DB70BD002070BDC036300AC00770BDEA
:107B20001B0E440201D1FF2B00D1024870BD002A78
:107B3000F0D070BD0000C07F30313233343536377D
:107B40003839414243444546EB3C904D53444F53F2
:107B5000352E3000020108000180000010F81000EE
:107B60000100010000000000000000008000291E4C
:107B7000CABD1A4E4F204E414D452020202046417F
:107B80005431322020204E30365F4E2E552E4C2E52
:107B90004C0800006041004100000000004100412D
:107BA000204100418041004140410041000000006F
:107BB000E04100410000000040000000644100413D
:107BC0000000000004410041244100418441004183
:107BD0004441004100000000E4410041E441004113
:107BE000020000006841004100000000084100411F
:107BF0002841004188410041484100410000000007
:107C0000E8410041E8410041040000006C410041AE
:107C1000000000000C4100412C4100418C4100411A
:107C20004C41004100000000EC410041EC410041AA
:107C300008000000704100410000000010410041B8
:107C4000304100419041004150410041000000009E
:107C5000F0410041F041004110000000744100413A
:107C600000000000144100413441004194410041B2
:107C70005441004100000000F4410041F441004142
:107C80002000000000000000000000000041004152
:107C9000204100418041004140410041000000007E
:107CA00000000000C0410041800000000705010203
:107CB00040000000070582024000000009040000A7
:107CC0000208065000000000AC7C00000902200001
:107CD000010100E031000000A001002012011001AC
:107CE00000000020B5041080000100000001000029
:107CF000CC7C0000008002021F0000184C4150495B
:107D0000532020204D534353205343534920427561
:107D10006C6B2020312E3030031600000000000074
:107D20000000002002000000000000000000000031
:107D300004160001FB02000000000000000000002B
:107D4000000000000000000080807F7E7D7C7B7A48
:107D50007978777676757473727171706F6E6E6DF7
:107D60006C6C6B6A6A69686867666665646463639D
:107D700062616160605F5F5E5E5D5D5C5C5B5B5A23
:107D80005A59595858575756565555555454535390
:107D900052525251515050504F4F4F4E4E4D4D4DEB
:107DA0004C4C4C4B4B4B4A4A4A4949494848484736
:107DB0004747474646464545454444444443434374
:107DC0004342424242414141E87D0000040100201B
:107DD0000001000004010000E87E00000402002011
:107DE000D439000020010000000000000000000065
:107DF0000000000000000000000000000000000083
:107E00000000000000000000000000000000000072
:107E10000000000000000000000000000000000062
:107E20000000000000000000000000000000000052
:107E30000000000000000000000000000000000042
:107E40000000000000000000000000000000000032
:107E50000000000000000000000000000000000022
:107E60000000000000000000000000000000000012
:107E700000000000000000000000000004000000FE
:107E80000000000000010000BC7C000000000000B9
:107E900000000000000000000000000000000000E2
:107EA00000000000000000000000000000000000D2
:107EB000000000000000000020130020201500201A
:107EC000201300202015002000000000000000000A
:107ED00000000000000000000000000000000000A2
:087EE00000000000000000009A
:04000005000000C136
:00000001FF
