Component: ARM Compiler 5.06 update 3 (build 300) Tool: armlink [4d35c9]

==============================================================================

Section Cross References

    main.o(i.main) refers to common.o(i.Peripheral_Initial) for Peripheral_Initial
    main.o(i.main) refers to state.o(i.ST_PWR_UP_LED_PATTERN) for ST_PWR_UP_LED_PATTERN
    main.o(i.main) refers to clock_drv.o(i.clk_setLsCrystal32Khz) for clk_setLsCrystal32Khz
    main.o(i.main) refers to rtc.o(i.rtc_SetTickSecond) for rtc_SetTickSecond
    main.o(i.main) refers to state.o(i.StateManager) for StateManager
    main.o(i.main) refers to keyledvbus.o(i.Key_task) for Key_task
    main.o(i.main) refers to keyledvbus.o(i.Led_task) for Led_task
    main.o(i.main) refers to wdt.o(i.wdt_clear) for wdt_clear
    main.o(i.main) refers to lp_manage.o(i.lp_setHaltMode) for lp_setHaltMode
    main.o(i.main) refers to common.o(.ARM.__AT_0x20000100) for m_cCurrentState
    main.o(i.main) refers to common.o(.data) for m_cLast_USB_MSCD_MODE
    main.o(i.main) refers to common.o(.data) for m_cSysTimeTick
    main.o(i.main) refers to common.o(.data) for m_USB_HostAdapter
    common.o(i.Detect_Battery) refers to clock_drv.o(i.sys_enablePeripheral) for sys_enablePeripheral
    common.o(i.Detect_Battery) refers to clock_drv.o(i.sys_disablePeripheral) for sys_disablePeripheral
    common.o(i.ImageVerify_ChecksumCalc) refers to ssioflash.o(i.ssioFlash_init_24Mhz) for ssioFlash_init_24Mhz
    common.o(i.ImageVerify_ChecksumCalc) refers to flash_drv.o(i.ReadPage) for ReadPage
    common.o(i.ImageVerify_ChecksumCalc) refers to ssioflash.o(i.ssioFlash_read) for ssioFlash_read
==============================================================================

Removing Unused input sections from the image.

    Removing main.o(.rev16_text), (4 bytes).
    Removing main.o(.revsh_text), (4 bytes).
    Removing common.o(.rev16_text), (4 bytes).
    Removing common.o(.revsh_text), (4 bytes).
    Removing common.o(i.CHK_DP_DM_CONDITION), (128 bytes).
    Removing common.o(i.CharToHex), (42 bytes).
    Removing common.o(i.Detect_Battery), (68 bytes).
    Removing common.o(i.HexToChar), (16 bytes).
    Removing common.o(i.IsAlphabetDigital), (28 bytes).
    Removing common.o(i.IsHexChar), (28 bytes).
    Removing common.o(i.TURN_ON_GLED1_128Hz), (80 bytes).
    Removing common.o(i.fGetVlsLv), (68 bytes).
    Removing common.o(.constdata), (10 bytes).
    Removing common.o(.constdata), (13 bytes).
    Removing common.o(.constdata), (13 bytes).
    Removing common.o(.data), (4 bytes).
    Removing common.o(.data), (1 bytes).
    Removing common.o(.data), (8 bytes).
==============================================================================

Image Symbol Table

    Local Symbols

    Symbol Name                              Value     Ov Type        Size  Object(Section)

    RESET                                    0x00000000   Section      192  startup_ml630q466.o(RESET)
    ../clib/angel/boardlib.s                 0x00000000   Number         0  boardshut.o ABSOLUTE
    ../clib/angel/boardlib.s                 0x00000000   Number         0  boardinit1.o ABSOLUTE
    ../clib/angel/boardlib.s                 0x00000000   Number         0  boardinit2.o ABSOLUTE
    ../clib/angel/boardlib.s                 0x00000000   Number         0  boardinit3.o ABSOLUTE
    ../clib/angel/handlers.s                 0x00000000   Number         0  __scatter_copy.o ABSOLUTE
    ../clib/angel/handlers.s                 0x00000000   Number         0  __scatter_zi.o ABSOLUTE
    ../clib/angel/kernel.s                   0x00000000   Number         0  rtexit2.o ABSOLUTE
    ../clib/angel/kernel.s                   0x00000000   Number         0  __rtentry4.o ABSOLUTE
    ../clib/angel/kernel.s                   0x00000000   Number         0  __rtentry.o ABSOLUTE
    ../clib/angel/kernel.s                   0x00000000   Number         0  __rtentry2.o ABSOLUTE
    ../clib/angel/kernel.s                   0x00000000   Number         0  rtexit.o ABSOLUTE
    ../clib/angel/rt.s                       0x00000000   Number         0  rt_div0.o ABSOLUTE
    ../clib/angel/rt.s                       0x00000000   Number         0  rt_raise.o ABSOLUTE
    ../clib/angel/rt.s                       0x00000000   Number         0  aeabi_idiv0_sigfpe.o ABSOLUTE
    ../clib/angel/rt.s                       0x00000000   Number         0  aeabi_idiv0.o ABSOLUTE
    ../clib/angel/scatterp.s                 0x00000000   Number         0  __scatter.o ABSOLUTE
    ../clib/angel/startup.s                  0x00000000   Number         0  __main.o ABSOLUTE
    ../clib/angel/sys.s                      0x00000000   Number         0  sys_stackheap_outer.o ABSOLUTE
    ../clib/angel/sys.s                      0x00000000   Number         0  libspace.o ABSOLUTE
    ../clib/angel/sys.s                      0x00000000   Number         0  indicate_semi.o ABSOLUTE
    ../clib/angel/sys.s                      0x00000000   Number         0  use_no_semi.o ABSOLUTE
    ../clib/angel/sys.s                      0x00000000   Number         0  tempstk.o ABSOLUTE
    ../clib/angel/sysapp.c                   0x00000000   Number         0  sys_command.o ABSOLUTE
    ../clib/angel/sysapp.c                   0x00000000   Number         0  sys_wrch.o ABSOLUTE
    ../clib/angel/sysapp.c                   0x00000000   Number         0  sys_exit.o ABSOLUTE
    ../clib/armsys.c                         0x00000000   Number         0  no_argv.o ABSOLUTE
    ../clib/armsys.c                         0x00000000   Number         0  _get_argv_nomalloc.o ABSOLUTE
    ../clib/armsys.c                         0x00000000   Number         0  argv_veneer.o ABSOLUTE
    ../clib/division.s                       0x00000000   Number         0  aeabi_sdiv_div0.o ABSOLUTE
    ../clib/division.s                       0x00000000   Number         0  aeabi_sdiv.o ABSOLUTE
    ../clib/heapalloc.c                      0x00000000   Number         0  hrguard.o ABSOLUTE
    ../clib/heapaux.c                        0x00000000   Number         0  heapauxi.o ABSOLUTE
    ../clib/libinit.s                        0x00000000   Number         0  libshutdown.o ABSOLUTE
    ../clib/libinit.s                        0x00000000   Number         0  libshutdown2.o ABSOLUTE
    ../clib/libinit.s                        0x00000000   Number         0  libinit.o ABSOLUTE
    ../clib/libinit.s                        0x00000000   Number         0  libinit2.o ABSOLUTE
    ../clib/memcpset.c                       0x00000000   Number         0  rt_memcpy.o ABSOLUTE
    ../clib/memcpset.c                       0x00000000   Number         0  aeabi_memset.o ABSOLUTE
    ../clib/memcpset.c                       0x00000000   Number         0  rt_memcpy.o ABSOLUTE
    ../clib/memcpset.c                       0x00000000   Number         0  rt_memclr.o ABSOLUTE
    ../clib/signal.c                         0x00000000   Number         0  defsig_segv_inner.o ABSOLUTE
    ../clib/signal.c                         0x00000000   Number         0  defsig_other.o ABSOLUTE
    ../clib/signal.c                         0x00000000   Number         0  defsig_rtmem_formal.o ABSOLUTE
    ../clib/signal.c                         0x00000000   Number         0  defsig_rtmem_outer.o ABSOLUTE
    ../clib/signal.c                         0x00000000   Number         0  defsig_rtmem_inner.o ABSOLUTE
    ../clib/signal.c                         0x00000000   Number         0  defsig_rtred_inner.o ABSOLUTE
    ../clib/signal.c                         0x00000000   Number         0  defsig_exit.o ABSOLUTE
    ../clib/signal.c                         0x00000000   Number         0  defsig_abrt_inner.o ABSOLUTE
    ../clib/signal.c                         0x00000000   Number         0  defsig_fpe_outer.o ABSOLUTE
    ../clib/signal.c                         0x00000000   Number         0  defsig_stak_inner.o ABSOLUTE
    ../clib/signal.c                         0x00000000   Number         0  defsig_fpe_inner.o ABSOLUTE
    ../clib/signal.c                         0x00000000   Number         0  defsig_fpe_formal.o ABSOLUTE
    ../clib/signal.c                         0x00000000   Number         0  defsig_pvfn_inner.o ABSOLUTE
    ../clib/signal.c                         0x00000000   Number         0  defsig_general.o ABSOLUTE
    ../clib/signal.c                         0x00000000   Number         0  __raise.o ABSOLUTE
    ../clib/signal.c                         0x00000000   Number         0  defsig_cppl_inner.o ABSOLUTE
    ../clib/signal.s                         0x00000000   Number         0  defsig.o ABSOLUTE
    ../clib/stdlib.c                         0x00000000   Number         0  exit.o ABSOLUTE
    ../clib/string.c                         0x00000000   Number         0  strcpy.o ABSOLUTE
    ../clib/unhosted.c                       0x00000000   Number         0  uwrite4.o ABSOLUTE
    ../clib/unhosted.c                       0x00000000   Number         0  uread4.o ABSOLUTE
    ../fplib/cfplib/cmpret.c                 0x00000000   Number         0  cmpret.o ABSOLUTE
    ../fplib/cfplib/d2f.c                    0x00000000   Number         0  d2f.o ABSOLUTE
    ../fplib/cfplib/ddiv.c                   0x00000000   Number         0  ddiv.o ABSOLUTE
    ../fplib/cfplib/dmul.c                   0x00000000   Number         0  dmul.o ABSOLUTE
    ../fplib/cfplib/f2d.c                    0x00000000   Number         0  f2d.o ABSOLUTE
    ../fplib/cfplib/fcmpin.c                 0x00000000   Number         0  fcmpin.o ABSOLUTE
    ../fplib/cfplib/fflt.c                   0x00000000   Number         0  fflti.o ABSOLUTE
    ../fplib/cfplib/fpinit.c                 0x00000000   Number         0  fpinit.o ABSOLUTE
    ../fplib/cfplib/nan2.c                   0x00000000   Number         0  fnan2.o ABSOLUTE
    ../fplib/cfplib/retnan.c                 0x00000000   Number         0  retnan.o ABSOLUTE
    ../fplib/faddsub6m.s                     0x00000000   Number         0  faddsub.o ABSOLUTE
    ../fplib/fleqf6m.s                       0x00000000   Number         0  flef.o ABSOLUTE
    ../fplib/usenofp.s                       0x00000000   Number         0  usenofp.o ABSOLUTE
    ..\..\App\fixture\Fixture.c              0x00000000   Number         0  fixture.o ABSOLUTE
    ..\..\App\fixture\dap.c                  0x00000000   Number         0  dap.o ABSOLUTE
    ..\..\App\fixture\errors.c               0x00000000   Number         0  errors.o ABSOLUTE
    ..\..\App\fixture\ssioFlash.c            0x00000000   Number         0  ssioflash.o ABSOLUTE
    ..\..\App\fixture\utils.c                0x00000000   Number         0  utils.o ABSOLUTE
    ..\..\App\main\common.c                  0x00000000   Number         0  common.o ABSOLUTE
    ..\..\App\main\fats.c                    0x00000000   Number         0  fats.o ABSOLUTE
    ..\..\App\main\fattable.c                0x00000000   Number         0  fattable.o ABSOLUTE
    ..\..\App\main\indication.c              0x00000000   Number         0  indication.o ABSOLUTE
    ..\..\App\main\main.c                    0x00000000   Number         0  main.o ABSOLUTE
    ..\..\App\main\state.c                   0x00000000   Number         0  state.o ABSOLUTE
    ..\..\App\main\usb_mscd.c                0x00000000   Number         0  usb_mscd.o ABSOLUTE
    ..\..\driver\ML630Q466\UsbPeri\Core\src\descript.c 0x00000000   Number         0  descript.o ABSOLUTE
    ..\..\driver\ML630Q466\UsbPeri\Core\src\intr.c 0x00000000   Number         0  intr.o ABSOLUTE
    ..\..\driver\ML630Q466\UsbPeri\Core\src\req_clss.c 0x00000000   Number         0  req_clss.o ABSOLUTE
    ..\..\driver\ML630Q466\UsbPeri\Core\src\req_vend.c 0x00000000   Number         0  req_vend.o ABSOLUTE
    ..\..\driver\ML630Q466\UsbPeri\Core\src\request.c 0x00000000   Number         0  request.o ABSOLUTE
    ..\..\driver\ML630Q466\UsbPeri\Core\src\trans.c 0x00000000   Number         0  trans.o ABSOLUTE
    ..\..\driver\ML630Q466\UsbPeri\Core\src\usb_api.c 0x00000000   Number         0  usb_api.o ABSOLUTE
    ..\..\driver\ML630Q466\UsbPeri\Core\src\usb_init.c 0x00000000   Number         0  usb_init.o ABSOLUTE
    ..\..\driver\ML630Q466\UsbPeri\USBMSC\SRC\Scsi\msc_scsi.c 0x00000000   Number         0  msc_scsi.o ABSOLUTE
    ..\..\driver\ML630Q466\clock_drv.c       0x00000000   Number         0  clock_drv.o ABSOLUTE
    ..\..\driver\ML630Q466\flash_drv.c       0x00000000   Number         0  flash_drv.o ABSOLUTE
    ..\..\driver\ML630Q466\irq.c             0x00000000   Number         0  irq.o ABSOLUTE
    ..\..\driver\ML630Q466\irq_vectorc.c     0x00000000   Number         0  irq_vectorc.o ABSOLUTE
    ..\..\driver\ML630Q466\lcd_drv.c         0x00000000   Number         0  lcd_drv.o ABSOLUTE
    ..\..\driver\ML630Q466\lp_manage.c       0x00000000   Number         0  lp_manage.o ABSOLUTE
    ..\..\driver\ML630Q466\rcadc_drv.c       0x00000000   Number         0  rcadc_drv.o ABSOLUTE
    ..\..\driver\ML630Q466\spiFlash_drv.c    0x00000000   Number         0  spiflash_drv.o ABSOLUTE
    ..\..\driver\ML630Q466\ssiof0.c          0x00000000   Number         0  ssiof0.o ABSOLUTE
    ..\..\driver\ML630Q466\wdt.c             0x00000000   Number         0  wdt.o ABSOLUTE
    ..\..\driver\ML630Q466\wrapper\spiFlash\spiFlash_lower.c 0x00000000   Number         0  spiflash_lower.o ABSOLUTE
    ..\..\driver\ML630Q466\wrapper\upper.c   0x00000000   Number         0  upper.o ABSOLUTE
    ..\..\driver\common\keyledvbus.c         0x00000000   Number         0  keyledvbus.o ABSOLUTE
    ..\..\driver\common\rtc.c                0x00000000   Number         0  rtc.o ABSOLUTE
    ..\..\driver\common\tbc.c                0x00000000   Number         0  tbc.o ABSOLUTE
    ..\\..\\App\\fixture\\Fixture.c          0x00000000   Number         0  fixture.o ABSOLUTE
    ..\\..\\App\\fixture\\dap.c              0x00000000   Number         0  dap.o ABSOLUTE
    ..\\..\\App\\fixture\\ssioFlash.c        0x00000000   Number         0  ssioflash.o ABSOLUTE
    ..\\..\\App\\main\\common.c              0x00000000   Number         0  common.o ABSOLUTE
    ..\\..\\App\\main\\fats.c                0x00000000   Number         0  fats.o ABSOLUTE
    ..\\..\\App\\main\\fattable.c            0x00000000   Number         0  fattable.o ABSOLUTE
    ..\\..\\App\\main\\indication.c          0x00000000   Number         0  indication.o ABSOLUTE
    ..\\..\\App\\main\\main.c                0x00000000   Number         0  main.o ABSOLUTE
    ..\\..\\App\\main\\state.c               0x00000000   Number         0  state.o ABSOLUTE
    ..\\..\\App\\main\\usb_mscd.c            0x00000000   Number         0  usb_mscd.o ABSOLUTE
    ..\\..\\driver\\ML630Q466\\clock_drv.c   0x00000000   Number         0  clock_drv.o ABSOLUTE
    ..\\..\\driver\\ML630Q466\\flash_drv.c   0x00000000   Number         0  flash_drv.o ABSOLUTE
    ..\\..\\driver\\ML630Q466\\irq.c         0x00000000   Number         0  irq.o ABSOLUTE
    ..\\..\\driver\\ML630Q466\\irq_vectorc.c 0x00000000   Number         0  irq_vectorc.o ABSOLUTE
    ..\\..\\driver\\ML630Q466\\lcd_drv.c     0x00000000   Number         0  lcd_drv.o ABSOLUTE
    ..\\..\\driver\\ML630Q466\\lp_manage.c   0x00000000   Number         0  lp_manage.o ABSOLUTE
    ..\\..\\driver\\ML630Q466\\rcadc_drv.c   0x00000000   Number         0  rcadc_drv.o ABSOLUTE
    ..\\..\\driver\\ML630Q466\\spiFlash_drv.c 0x00000000   Number         0  spiflash_drv.o ABSOLUTE
    ..\\..\\driver\\ML630Q466\\ssiof0.c      0x00000000   Number         0  ssiof0.o ABSOLUTE
    ..\\..\\driver\\ML630Q466\\wdt.c         0x00000000   Number         0  wdt.o ABSOLUTE
    ..\\..\\driver\\ML630Q466\\wrapper\\spiFlash\\spiFlash_lower.c 0x00000000   Number         0  spiflash_lower.o ABSOLUTE
    ..\\..\\driver\\ML630Q466\\wrapper\\upper.c 0x00000000   Number         0  upper.o ABSOLUTE
    ..\\..\\driver\\common\\keyledvbus.c     0x00000000   Number         0  keyledvbus.o ABSOLUTE
    ..\\..\\driver\\common\\rtc.c            0x00000000   Number         0  rtc.o ABSOLUTE
    ..\\..\\driver\\common\\tbc.c            0x00000000   Number         0  tbc.o ABSOLUTE
    RTE\Device\ML630Q466\startup_ML630Q466.s 0x00000000   Number         0  startup_ml630q466.o ABSOLUTE
    RTE\Device\ML630Q466\system_ML630Q466.c  0x00000000   Number         0  system_ml630q466.o ABSOLUTE
    RTE\\Device\\ML630Q466\\system_ML630Q466.c 0x00000000   Number         0  system_ml630q466.o ABSOLUTE
    dc.s                                     0x00000000   Number         0  dc.o ABSOLUTE
    !!!main                                  0x000000c0   Section        8  __main.o(!!!main)
    !!!scatter                               0x000000c8   Section       60  __scatter.o(!!!scatter)
    !!handler_copy                           0x00000104   Section       26  __scatter_copy.o(!!handler_copy)
    !!handler_zi                             0x00000120   Section       28  __scatter_zi.o(!!handler_zi)
    .ARM.Collect$$libinit$$00000000          0x0000013c   Section        2  libinit.o(.ARM.Collect$$libinit$$00000000)
    .ARM.Collect$$libinit$$00000002          0x0000013e   Section        0  libinit2.o(.ARM.Collect$$libinit$$00000002)
    .ARM.Collect$$libinit$$00000004          0x0000013e   Section        0  libinit2.o(.ARM.Collect$$libinit$$00000004)
    .ARM.Collect$$libinit$$0000000A          0x0000013e   Section        0  libinit2.o(.ARM.Collect$$libinit$$0000000A)
    .ARM.Collect$$libinit$$0000000C          0x0000013e   Section        0  libinit2.o(.ARM.Collect$$libinit$$0000000C)
    .ARM.Collect$$libinit$$0000000E          0x0000013e   Section        0  libinit2.o(.ARM.Collect$$libinit$$0000000E)
    .ARM.Collect$$libinit$$00000011          0x0000013e   Section        0  libinit2.o(.ARM.Collect$$libinit$$00000011)
    .ARM.Collect$$libinit$$00000013          0x0000013e   Section        0  libinit2.o(.ARM.Collect$$libinit$$00000013)
    .ARM.Collect$$libinit$$00000015          0x0000013e   Section        0  libinit2.o(.ARM.Collect$$libinit$$00000015)
    .ARM.Collect$$libinit$$00000017          0x0000013e   Section        0  libinit2.o(.ARM.Collect$$libinit$$00000017)
    .ARM.Collect$$libinit$$00000019          0x0000013e   Section        0  libinit2.o(.ARM.Collect$$libinit$$00000019)
    .ARM.Collect$$libinit$$0000001B          0x0000013e   Section        0  libinit2.o(.ARM.Collect$$libinit$$0000001B)
    .ARM.Collect$$libinit$$0000001D          0x0000013e   Section        0  libinit2.o(.ARM.Collect$$libinit$$0000001D)
    .ARM.Collect$$libinit$$0000001F          0x0000013e   Section        0  libinit2.o(.ARM.Collect$$libinit$$0000001F)
    .ARM.Collect$$libinit$$00000021          0x0000013e   Section        0  libinit2.o(.ARM.Collect$$libinit$$00000021)
    .ARM.Collect$$libinit$$00000023          0x0000013e   Section        0  libinit2.o(.ARM.Collect$$libinit$$00000023)
    .ARM.Collect$$libinit$$00000025          0x0000013e   Section        0  libinit2.o(.ARM.Collect$$libinit$$00000025)
    .ARM.Collect$$libinit$$0000002C          0x0000013e   Section        0  libinit2.o(.ARM.Collect$$libinit$$0000002C)
    .ARM.Collect$$libinit$$0000002E          0x0000013e   Section        0  libinit2.o(.ARM.Collect$$libinit$$0000002E)
    .ARM.Collect$$libinit$$00000030          0x0000013e   Section        0  libinit2.o(.ARM.Collect$$libinit$$00000030)
    .ARM.Collect$$libinit$$00000032          0x0000013e   Section        0  libinit2.o(.ARM.Collect$$libinit$$00000032)
    .ARM.Collect$$libinit$$00000033          0x0000013e   Section        2  libinit2.o(.ARM.Collect$$libinit$$00000033)
    .ARM.Collect$$libshutdown$$00000000      0x00000140   Section        2  libshutdown.o(.ARM.Collect$$libshutdown$$00000000)
    .ARM.Collect$$libshutdown$$00000002      0x00000142   Section        0  libshutdown2.o(.ARM.Collect$$libshutdown$$00000002)
    .ARM.Collect$$libshutdown$$00000004      0x00000142   Section        0  libshutdown2.o(.ARM.Collect$$libshutdown$$00000004)
    .ARM.Collect$$libshutdown$$00000007      0x00000142   Section        0  libshutdown2.o(.ARM.Collect$$libshutdown$$00000007)
    .ARM.Collect$$libshutdown$$0000000A      0x00000142   Section        0  libshutdown2.o(.ARM.Collect$$libshutdown$$0000000A)
    .ARM.Collect$$libshutdown$$0000000C      0x00000142   Section        0  libshutdown2.o(.ARM.Collect$$libshutdown$$0000000C)
    .ARM.Collect$$libshutdown$$0000000F      0x00000142   Section        0  libshutdown2.o(.ARM.Collect$$libshutdown$$0000000F)
    .ARM.Collect$$libshutdown$$00000010      0x00000142   Section        2  libshutdown2.o(.ARM.Collect$$libshutdown$$00000010)
    .ARM.Collect$$rtentry$$00000000          0x00000144   Section        0  __rtentry.o(.ARM.Collect$$rtentry$$00000000)
    .ARM.Collect$$rtentry$$00000002          0x00000144   Section        0  __rtentry2.o(.ARM.Collect$$rtentry$$00000002)
    .ARM.Collect$$rtentry$$00000004          0x00000144   Section        6  __rtentry4.o(.ARM.Collect$$rtentry$$00000004)
    .ARM.Collect$$rtentry$$00000009          0x0000014a   Section        0  __rtentry2.o(.ARM.Collect$$rtentry$$00000009)
    .ARM.Collect$$rtentry$$0000000A          0x0000014a   Section        4  __rtentry2.o(.ARM.Collect$$rtentry$$0000000A)
    .ARM.Collect$$rtentry$$0000000C          0x0000014e   Section        0  __rtentry2.o(.ARM.Collect$$rtentry$$0000000C)
    .ARM.Collect$$rtentry$$0000000D          0x0000014e   Section        8  __rtentry2.o(.ARM.Collect$$rtentry$$0000000D)
    .ARM.Collect$$rtexit$$00000000           0x00000156   Section        2  rtexit.o(.ARM.Collect$$rtexit$$00000000)
    .ARM.Collect$$rtexit$$00000002           0x00000158   Section        0  rtexit2.o(.ARM.Collect$$rtexit$$00000002)
    .ARM.Collect$$rtexit$$00000003           0x00000158   Section        4  rtexit2.o(.ARM.Collect$$rtexit$$00000003)
    .ARM.Collect$$rtexit$$00000004           0x0000015c   Section        6  rtexit2.o(.ARM.Collect$$rtexit$$00000004)
    .emb_text                                0x00000164   Section       56  rt_memcpy.o(.emb_text)
    .text                                    0x0000019c   Section       56  startup_ml630q466.o(.text)
    .text                                    0x000001d4   Section        0  strcpy.o(.text)
    .text                                    0x00000220   Section        0  rt_memcpy.o(.text)
    .text                                    0x000002a2   Section        0  aeabi_memset.o(.text)
    .text                                    0x000002b4   Section        0  rt_memclr.o(.text)
    .text                                    0x000002f4   Section        0  uread4.o(.text)
    .text                                    0x00000316   Section        0  uwrite4.o(.text)
    .text                                    0x00000326   Section      346  aeabi_sdiv.o(.text)
    .text                                    0x00000480   Section        0  heapauxi.o(.text)
    .text                                    0x00000488   Section        0  d2f.o(.text)
    .text                                    0x00000504   Section        0  ddiv.o(.text)
    .text                                    0x0000094c   Section        0  dmul.o(.text)
    .text                                    0x00000b94   Section        0  f2d.o(.text)
    .text                                    0x00000be8   Section        0  fflti.o(.text)
    .text                                    0x00000c48   Section        0  fcmpin.o(.text)
    .text                                    0x00000cac   Section        0  cmpret.o(.text)
    .text                                    0x00000cdc   Section        0  fnan2.o(.text)
    .text                                    0x00000cec   Section       62  sys_stackheap_outer.o(.text)
    .text                                    0x00000d2a   Section        0  exit.o(.text)
    .text                                    0x00000d3a   Section        0  retnan.o(.text)
    .text                                    0x00000d98   Section        8  libspace.o(.text)
    .text                                    0x00000da0   Section        0  sys_exit.o(.text)
    .text                                    0x00000dac   Section        2  use_no_semi.o(.text)
    .text                                    0x00000dae   Section        0  indicate_semi.o(.text)
    i.AES_IRQHandler                         0x00000dae   Section        0  irq_vectorc.o(i.AES_IRQHandler)
    i.BroadcastMessage                       0x00000db0   Section        0  state.o(i.BroadcastMessage)
    i.CHECK_IMG_CODE_FWV                     0x00000dcc   Section        0  fixture.o(i.CHECK_IMG_CODE_FWV)
    i.CHECK_IMG_CONF_FWV_SIG                 0x00000de4   Section        0  fixture.o(i.CHECK_IMG_CONF_FWV_SIG)
    i.CHECK_LOGGER_CURRENT                   0x00000e1c   Section        0  fixture.o(i.CHECK_LOGGER_CURRENT)
    i.CMP_IRQHandler                         0x00000edc   Section        0  irq_vectorc.o(i.CMP_IRQHandler)
    i.Check_SysTimeTick                      0x00000ee0   Section        0  state.o(i.Check_SysTimeTick)
    i.ChkCBW                                 0x00000f1c   Section        0  msc_scsi.o(i.ChkCBW)
    i.ChkReadCBW                             0x00000f68   Section        0  msc_scsi.o(i.ChkReadCBW)
    i.DMAC0_IRQHandler                       0x00000fec   Section        0  irq_vectorc.o(i.DMAC0_IRQHandler)
    i.DMAC1_IRQHandler                       0x00000fee   Section        0  irq_vectorc.o(i.DMAC1_IRQHandler)
    i.Default_Handler                        0x00000ff0   Section        0  irq_vectorc.o(i.Default_Handler)
    i.FTM0_IRQHandler                        0x00000ff2   Section        0  irq_vectorc.o(i.FTM0_IRQHandler)
    i.FTM1_IRQHandler                        0x00000ff4   Section        0  irq_vectorc.o(i.FTM1_IRQHandler)
    i.FTM2_IRQHandler                        0x00000ff6   Section        0  irq_vectorc.o(i.FTM2_IRQHandler)
    i.FTM3_IRQHandler                        0x00000ff8   Section        0  irq_vectorc.o(i.FTM3_IRQHandler)
    i.I2C1_IRQHandler                        0x00000ffa   Section        0  irq_vectorc.o(i.I2C1_IRQHandler)
    i.I2CF0_IRQHandler                       0x00000ffc   Section        0  irq_vectorc.o(i.I2CF0_IRQHandler)
    i.LOSC_IRQHandler                        0x00000ffe   Section        0  irq_vectorc.o(i.LOSC_IRQHandler)
    .ARM.__AT_0x00001000                     0x00001000   Section        4  common.o(.ARM.__AT_0x00001000)
    i.ChkWriteCBW                            0x00001004   Section        0  msc_scsi.o(i.ChkWriteCBW)
    i.EXI_IRQHandler                         0x00001088   Section        0  irq_vectorc.o(i.EXI_IRQHandler)
    i.EXT_int                                0x000010f0   Section        0  intr.o(i.EXT_int)
    i.EraseProgramApp                        0x000011f0   Section        0  flash_drv.o(i.EraseProgramApp)
    i.EraseSector                            0x00001230   Section        0  flash_drv.o(i.EraseSector)
    i.Exec_Request                           0x0000127c   Section        0  trans.o(i.Exec_Request)
    Exec_Request                             0x0000127d   Thumb Code   134  trans.o(i.Exec_Request)
    i.FATS_DIR_LPROG                         0x0000130c   Section        0  fats.o(i.FATS_DIR_LPROG)
    i.FATS_FAT                               0x0000152c   Section        0  fats.o(i.FATS_FAT)
    i.FATS_FAT_LPROG                         0x000015d4   Section        0  fats.o(i.FATS_FAT_LPROG)
    i.FATS_StreamFileName                    0x0000160c   Section        0  fats.o(i.FATS_StreamFileName)
    i.FATS_StreamRead                        0x000016fc   Section        0  fats.o(i.FATS_StreamRead)
    i.FATS_StreamWrite                       0x00001764   Section        0  fats.o(i.FATS_StreamWrite)
    i.FIXTURE_ADC_ZERO_OFFSET                0x00001858   Section        0  fixture.o(i.FIXTURE_ADC_ZERO_OFFSET)
    i.FIXTURE_CHK_ERROR_NUM                  0x000018e0   Section        0  fixture.o(i.FIXTURE_CHK_ERROR_NUM)
    i.FIXTURE_I2C_CLOSE                      0x00001938   Section        0  fixture.o(i.FIXTURE_I2C_CLOSE)
    i.FIXTURE_INIT                           0x00001970   Section        0  fixture.o(i.FIXTURE_INIT)
    i.FIXTURE_MAIN                           0x000019a0   Section        0  fixture.o(i.FIXTURE_MAIN)
    i.FIXTURE_SWD_CLOSE                      0x00001a30   Section        0  fixture.o(i.FIXTURE_SWD_CLOSE)
    i.FIXTURE_SWD_OPEN_MCU_RESET             0x00001a88   Section        0  fixture.o(i.FIXTURE_SWD_OPEN_MCU_RESET)
    i.FIXTURE_SWD_OPEN_MCU_RUN               0x00001ae4   Section        0  fixture.o(i.FIXTURE_SWD_OPEN_MCU_RUN)
    i.FIXTURE_USB_CLOSE                      0x00001b38   Section        0  fixture.o(i.FIXTURE_USB_CLOSE)
    i.FIXTURE_WAIT_DOOR_OPEN                 0x00001b94   Section        0  fixture.o(i.FIXTURE_WAIT_DOOR_OPEN)
    i.FlashInit                              0x00001bbc   Section        0  flash_drv.o(i.FlashInit)
    i.GET_MCP3421_ADDRESS                    0x00001bc8   Section        0  fixture.o(i.GET_MCP3421_ADDRESS)
    i.G_ONLY                                 0x00001d14   Section        0  keyledvbus.o(i.G_ONLY)
    i.GetEvent                               0x00001d34   Section        0  state.o(i.GetEvent)
    i.GetMessage                             0x00001d68   Section        0  state.o(i.GetMessage)
    i.ImageVerify_ChecksumCalc               0x00001da0   Section        0  common.o(i.ImageVerify_ChecksumCalc)
    i.JTAG_to_SWD_Sequence                   0x00001ec4   Section        0  dap.o(i.JTAG_to_SWD_Sequence)
    i.Key_PostRelease                        0x00001f5c   Section        0  keyledvbus.o(i.Key_PostRelease)
    Key_PostRelease                          0x00001f5d   Thumb Code    40  keyledvbus.o(i.Key_PostRelease)
    i.Key_task                               0x00001f88   Section        0  keyledvbus.o(i.Key_task)
    i.LTBC_IRQHandler                        0x00002040   Section        0  irq_vectorc.o(i.LTBC_IRQHandler)
    i.Led_reset                              0x00002068   Section        0  keyledvbus.o(i.Led_reset)
    i.Led_task                               0x00002084   Section        0  keyledvbus.o(i.Led_task)
    i.MakeSenseData                          0x00002354   Section        0  msc_scsi.o(i.MakeSenseData)
    i.MeasureCurrent                         0x0000237c   Section        0  fixture.o(i.MeasureCurrent)
    i.MediaCapacity                          0x00002530   Section        0  upper.o(i.MediaCapacity)
    i.MediaChange                            0x00002538   Section        0  upper.o(i.MediaChange)
    i.MediaCheck                             0x0000254c   Section        0  upper.o(i.MediaCheck)
    i.MediaGetID                             0x00002554   Section        0  upper.o(i.MediaGetID)
    i.MediaInitialize                        0x0000255c   Section        0  upper.o(i.MediaInitialize)
    i.MediaRead                              0x00002564   Section        0  upper.o(i.MediaRead)
    i.MediaStatus                            0x0000256c   Section        0  upper.o(i.MediaStatus)
    i.MediaVerify                            0x00002574   Section        0  upper.o(i.MediaVerify)
    i.MediaWrite                             0x0000257c   Section        0  upper.o(i.MediaWrite)
    i.NMI_Handler                            0x00002584   Section        0  irq_vectorc.o(i.NMI_Handler)
    i.NVIC_ClearPendingIRQ                   0x00002588   Section        0  usb_mscd.o(i.NVIC_ClearPendingIRQ)
    NVIC_ClearPendingIRQ                     0x00002589   Thumb Code    18  usb_mscd.o(i.NVIC_ClearPendingIRQ)
    i.NVIC_ClearPendingIRQ                   0x000025a0   Section        0  irq_vectorc.o(i.NVIC_ClearPendingIRQ)
    NVIC_ClearPendingIRQ                     0x000025a1   Thumb Code    18  irq_vectorc.o(i.NVIC_ClearPendingIRQ)
    i.NVIC_EnableIRQ                         0x000025b8   Section        0  usb_mscd.o(i.NVIC_EnableIRQ)
    NVIC_EnableIRQ                           0x000025b9   Thumb Code    18  usb_mscd.o(i.NVIC_EnableIRQ)
    i.PROGRAM_ON_OFF                         0x000025d0   Section        0  fixture.o(i.PROGRAM_ON_OFF)
    i.Peripheral_Initial                     0x000025f8   Section        0  common.o(i.Peripheral_Initial)
    i.PostEvent                              0x00002684   Section        0  state.o(i.PostEvent)
    i.PostMessage                            0x000026ac   Section        0  state.o(i.PostMessage)
    i.ProgramImage                           0x000026dc   Section        0  flash_drv.o(i.ProgramImage)
    i.ProgramPage                            0x00002740   Section        0  flash_drv.o(i.ProgramPage)
    i.RAD_IRQHandler                         0x00002780   Section        0  irq_vectorc.o(i.RAD_IRQHandler)
    i.RTC_IRQHandler                         0x00002782   Section        0  irq_vectorc.o(i.RTC_IRQHandler)
    i.R_ONLY                                 0x00002790   Section        0  keyledvbus.o(i.R_ONLY)
    i.ReadPage                               0x000027b0   Section        0  flash_drv.o(i.ReadPage)
    i.SAD_IRQHandler                         0x000027ec   Section        0  irq_vectorc.o(i.SAD_IRQHandler)
    i.SCSICommandRequest                     0x000027f0   Section        0  msc_scsi.o(i.SCSICommandRequest)
    i.SCSIEventProc                          0x00002970   Section        0  msc_scsi.o(i.SCSIEventProc)
    i.SCSIFormatUnit                         0x00002e2c   Section        0  msc_scsi.o(i.SCSIFormatUnit)
    i.SCSIInitialize                         0x00002f68   Section        0  msc_scsi.o(i.SCSIInitialize)
    i.SCSIInquiry                            0x00003004   Section        0  msc_scsi.o(i.SCSIInquiry)
    i.SCSIModeSense                          0x00003128   Section        0  msc_scsi.o(i.SCSIModeSense)
    i.SCSIPreventAllowMediumRemoval          0x000032bc   Section        0  msc_scsi.o(i.SCSIPreventAllowMediumRemoval)
    i.SCSIRead                               0x00003334   Section        0  msc_scsi.o(i.SCSIRead)
    i.SCSIReadCapacity                       0x00003518   Section        0  msc_scsi.o(i.SCSIReadCapacity)
    i.SCSIRequestSense                       0x000036ac   Section        0  msc_scsi.o(i.SCSIRequestSense)
    i.SCSISendDiagnostic                     0x000037c0   Section        0  msc_scsi.o(i.SCSISendDiagnostic)
    i.SCSIStartStopUnit                      0x0000384c   Section        0  msc_scsi.o(i.SCSIStartStopUnit)
    i.SCSITestUnitReady                      0x000038dc   Section        0  msc_scsi.o(i.SCSITestUnitReady)
    i.SCSIVerify10                           0x00003958   Section        0  msc_scsi.o(i.SCSIVerify10)
    i.SCSIWrite                              0x00003ac4   Section        0  msc_scsi.o(i.SCSIWrite)
    i.SIO0_IRQHandler                        0x00003ca4   Section        0  irq_vectorc.o(i.SIO0_IRQHandler)
    i.SIOF0_IRQHandler                       0x00003ca6   Section        0  irq_vectorc.o(i.SIOF0_IRQHandler)
    i.STM32_FlashHalfPageProg                0x00003cb0   Section        0  fixture.o(i.STM32_FlashHalfPageProg)
    i.STM32_FlashMassErase                   0x00003fc8   Section        0  fixture.o(i.STM32_FlashMassErase)
    i.STM32_FlashProg                        0x00004088   Section        0  fixture.o(i.STM32_FlashProg)
    i.STM32_FlashVerify                      0x00004150   Section        0  fixture.o(i.STM32_FlashVerify)
    i.STM32_MCU_RESTART_HALT                 0x00004c60   Section        0  fixture.o(i.STM32_MCU_RESTART_HALT)
    i.STM32_OptionByteProg                   0x00004d50   Section        0  fixture.o(i.STM32_OptionByteProg)
    i.STM32_UnlockNVM                        0x00004db4   Section        0  fixture.o(i.STM32_UnlockNVM)
    i.STM32_Unlock_OPTLOCK                   0x00004df8   Section        0  fixture.o(i.STM32_Unlock_OPTLOCK)
    i.STM32_Unlock_PELOCK                    0x00004e68   Section        0  fixture.o(i.STM32_Unlock_PELOCK)
    i.STM32_Unlock_PRGLOCK                   0x00004ebc   Section        0  fixture.o(i.STM32_Unlock_PRGLOCK)
    i.STM32_WAIT_FLASH_SR_BSY                0x00004f2c   Section        0  fixture.o(i.STM32_WAIT_FLASH_SR_BSY)
    i.ST_PWR_UP_LED_PATTERN                  0x00004f98   Section        0  state.o(i.ST_PWR_UP_LED_PATTERN)
    i.SUB_CHECK_FWV                          0x00004fc4   Section        0  fixture.o(i.SUB_CHECK_FWV)
    i.SWD_CLEAR_BIT                          0x00005024   Section        0  dap.o(i.SWD_CLEAR_BIT)
    i.SWD_READ_BIT                           0x00005042   Section        0  dap.o(i.SWD_READ_BIT)
    i.SWD_SET_BIT                            0x00005056   Section        0  dap.o(i.SWD_SET_BIT)
    i.SpiFlashCapacity                       0x00005074   Section        0  spiflash_lower.o(i.SpiFlashCapacity)
    i.SpiFlashCheck                          0x00005088   Section        0  spiflash_lower.o(i.SpiFlashCheck)
    i.SpiFlashGetID                          0x000050d0   Section        0  spiflash_lower.o(i.SpiFlashGetID)
    i.SpiFlashInitialize                     0x000050dc   Section        0  spiflash_lower.o(i.SpiFlashInitialize)
    i.SpiFlashStatus                         0x000050f0   Section        0  spiflash_lower.o(i.SpiFlashStatus)
    i.SpiFlashVerify                         0x00005100   Section        0  spiflash_lower.o(i.SpiFlashVerify)
    i.StateManager                           0x00005140   Section        0  state.o(i.StateManager)
    i.StreamRead                             0x000053d4   Section        0  fats.o(i.StreamRead)
    i.StreamWrite                            0x000054a4   Section        0  fats.o(i.StreamWrite)
    i.SystemInit                             0x000055e0   Section        0  system_ml630q466.o(i.SystemInit)
    i.TM0_IRQHandler                         0x000055e2   Section        0  irq_vectorc.o(i.TM0_IRQHandler)
    i.TM1K_IRQHandler                        0x000055e4   Section        0  irq_vectorc.o(i.TM1K_IRQHandler)
    i.TM1_IRQHandler                         0x000055e6   Section        0  irq_vectorc.o(i.TM1_IRQHandler)
    i.TM2_IRQHandler                         0x000055e8   Section        0  irq_vectorc.o(i.TM2_IRQHandler)
    i.TM3_IRQHandler                         0x000055ea   Section        0  irq_vectorc.o(i.TM3_IRQHandler)
    i.TM4_IRQHandler                         0x000055ec   Section        0  irq_vectorc.o(i.TM4_IRQHandler)
    i.TM5_IRQHandler                         0x000055ee   Section        0  irq_vectorc.o(i.TM5_IRQHandler)
    i.TM6_IRQHandler                         0x000055f0   Section        0  irq_vectorc.o(i.TM6_IRQHandler)
    i.TM7_IRQHandler                         0x000055f2   Section        0  irq_vectorc.o(i.TM7_IRQHandler)
    i.TurnOffAllLED                          0x000055f4   Section        0  keyledvbus.o(i.TurnOffAllLED)
    i.TurnOnAllLED                           0x00005614   Section        0  keyledvbus.o(i.TurnOnAllLED)
    i.UA0_IRQHandler                         0x00005634   Section        0  irq_vectorc.o(i.UA0_IRQHandler)
    i.UAF0_IRQHandler                        0x00005636   Section        0  irq_vectorc.o(i.UAF0_IRQHandler)
    i.USB_IRQHandler                         0x00005638   Section        0  irq_vectorc.o(i.USB_IRQHandler)
    i.USB_MSCD_MAIN                          0x00005640   Section        0  usb_mscd.o(i.USB_MSCD_MAIN)
    i.VLS_IRQHandler                         0x000056c8   Section        0  irq_vectorc.o(i.VLS_IRQHandler)
    i.WRITE_BIT0_4                           0x000056cc   Section        0  dap.o(i.WRITE_BIT0_4)
    i.Wait_128Hz                             0x00005710   Section        0  common.o(i.Wait_128Hz)
    i.Wait_RAW_128Hz                         0x00005730   Section        0  common.o(i.Wait_RAW_128Hz)
    i.Y_ONLY                                 0x00005750   Section        0  keyledvbus.o(i.Y_ONLY)
    i.__ARM_common_switch8                   0x00005770   Section        0  state.o(i.__ARM_common_switch8)
    i.cbf_bulk_rx                            0x0000578c   Section        0  msc_scsi.o(i.cbf_bulk_rx)
    i.cbf_bulk_rx_cbw                        0x000057b4   Section        0  msc_scsi.o(i.cbf_bulk_rx_cbw)
    i.cbf_bulk_tx                            0x000057dc   Section        0  msc_scsi.o(i.cbf_bulk_tx)
    i.cbf_bulk_tx_csw                        0x00005838   Section        0  msc_scsi.o(i.cbf_bulk_tx_csw)
    i.cbf_bulk_tx_read                       0x00005870   Section        0  msc_scsi.o(i.cbf_bulk_tx_read)
    i.cbf_dmy                                0x00005888   Section        0  msc_scsi.o(i.cbf_dmy)
    i.change_big_endian_l                    0x0000588a   Section        0  msc_scsi.o(i.change_big_endian_l)
    i.class_func                             0x0000589c   Section        0  req_clss.o(i.class_func)
    i.clk_disHsclk                           0x000058c0   Section        0  clock_drv.o(i.clk_disHsclk)
    i.clk_setHsPll24Mhz                      0x000058dc   Section        0  clock_drv.o(i.clk_setHsPll24Mhz)
    i.clk_setLsCrystal32Khz                  0x00005940   Section        0  clock_drv.o(i.clk_setLsCrystal32Khz)
    i.connectToTarget                        0x00005968   Section        0  utils.o(i.connectToTarget)
    i.delayMs                                0x000059e0   Section        0  dap.o(i.delayMs)
    i.dummy_cbf                              0x00005a18   Section        0  usb_init.o(i.dummy_cbf)
    dummy_cbf                                0x00005a19   Thumb Code     2  usb_init.o(i.dummy_cbf)
    i.dummy_cbf_reset                        0x00005a1a   Section        0  usb_init.o(i.dummy_cbf_reset)
    dummy_cbf_reset                          0x00005a1b   Thumb Code     2  usb_init.o(i.dummy_cbf_reset)
    i.fFatTime2Rtc                           0x00005a1c   Section        0  fats.o(i.fFatTime2Rtc)
    i.fRtc2FatTime                           0x00005a86   Section        0  fats.o(i.fRtc2FatTime)
    i.func_Clear_Feature                     0x00005aec   Section        0  request.o(i.func_Clear_Feature)
    i.func_Get_Configuration                 0x00005bb0   Section        0  request.o(i.func_Get_Configuration)
    i.func_Get_Descriptor                    0x00005c04   Section        0  request.o(i.func_Get_Descriptor)
    i.func_Get_Interface                     0x00005d20   Section        0  request.o(i.func_Get_Interface)
    i.func_Get_Status                        0x00005d8c   Section        0  request.o(i.func_Get_Status)
    i.func_Set_Address                       0x00005e98   Section        0  request.o(i.func_Set_Address)
    i.func_Set_Configuration                 0x00005edc   Section        0  request.o(i.func_Set_Configuration)
    i.func_Set_Descriptor                    0x00005fd4   Section        0  request.o(i.func_Set_Descriptor)
    i.func_Set_Feature                       0x00005fe4   Section        0  request.o(i.func_Set_Feature)
    i.func_Set_Interface                     0x0000607c   Section        0  request.o(i.func_Set_Interface)
    i.func_Synch_Frame                       0x000061d0   Section        0  request.o(i.func_Synch_Frame)
    i.haltTarget                             0x000061e0   Section        0  utils.o(i.haltTarget)
    i.i2Fn_WaitMCF                           0x0000623c   Section        0  fixture.o(i.i2Fn_WaitMCF)
    i.i2cReadBytes                           0x00006270   Section        0  fixture.o(i.i2cReadBytes)
    i.i2cWrite1Byte                          0x0000630c   Section        0  fixture.o(i.i2cWrite1Byte)
    i.i2cWriteBusAddress                     0x00006338   Section        0  fixture.o(i.i2cWriteBusAddress)
    i.initDp                                 0x0000638c   Section        0  dap.o(i.initDp)
    i.irq_ext0_init                          0x000063dc   Section        0  irq.o(i.irq_ext0_init)
    i.irq_ext2_init                          0x0000642c   Section        0  irq.o(i.irq_ext2_init)
    i.keyled_init                            0x00006484   Section        0  keyledvbus.o(i.keyled_init)
    i.lp_setHaltMode                         0x00006578   Section        0  lp_manage.o(i.lp_setHaltMode)
    i.main                                   0x00006588   Section        0  main.o(i.main)
    i.make_format_data                       0x000065d4   Section        0  msc_scsi.o(i.make_format_data)
    i.make_mode_page                         0x0000661c   Section        0  msc_scsi.o(i.make_mode_page)
    i.mass_bulk_only_func                    0x000066e0   Section        0  msc_scsi.o(i.mass_bulk_only_func)
    i.memcmp                                 0x00006744   Section        0  msc_scsi.o(i.memcmp)
    i.memcpy                                 0x00006764   Section        0  msc_scsi.o(i.memcpy)
    i.memcpy_dc                              0x00006776   Section        0  msc_scsi.o(i.memcpy_dc)
    i.memset                                 0x00006788   Section        0  msc_scsi.o(i.memset)
    i.msc_clear_feature                      0x00006798   Section        0  msc_scsi.o(i.msc_clear_feature)
    i.readAP                                 0x000067f8   Section        0  dap.o(i.readAP)
    i.readApId                               0x00006816   Section        0  dap.o(i.readApId)
    i.readDP                                 0x00006848   Section        0  dap.o(i.readDP)
    i.readMem                                0x00006866   Section        0  utils.o(i.readMem)
    i.readReg                                0x0000688c   Section        0  dap.o(i.readReg)
    i.read_Device_Requests                   0x00006a40   Section        0  trans.o(i.read_Device_Requests)
    i.read_FIFO                              0x00006adc   Section        0  trans.o(i.read_FIFO)
    i.read_fifo                              0x00006b70   Section        0  trans.o(i.read_fifo)
    i.rtc_GetRealTime                        0x00006b80   Section        0  rtc.o(i.rtc_GetRealTime)
    i.rtc_GetSecondsElapsed                  0x00006bb8   Section        0  rtc.o(i.rtc_GetSecondsElapsed)
    i.rtc_GetTickSecond                      0x00006bc4   Section        0  rtc.o(i.rtc_GetTickSecond)
    i.rtc_Interrupt                          0x00006bd0   Section        0  rtc.o(i.rtc_Interrupt)
    i.rtc_SetTickSecond                      0x00006bec   Section        0  rtc.o(i.rtc_SetTickSecond)
    i.rtc_StartRealTime                      0x00006bf8   Section        0  rtc.o(i.rtc_StartRealTime)
    i.rtc_StopRealTime                       0x00006cbc   Section        0  rtc.o(i.rtc_StopRealTime)
    i.s_ssiof_readSingleData_16              0x00006ce0   Section        0  ssiof0.o(i.s_ssiof_readSingleData_16)
    s_ssiof_readSingleData_16                0x00006ce1   Thumb Code    22  ssiof0.o(i.s_ssiof_readSingleData_16)
    i.s_ssiof_readSingleData_8               0x00006cfc   Section        0  ssiof0.o(i.s_ssiof_readSingleData_8)
    s_ssiof_readSingleData_8                 0x00006cfd   Thumb Code    22  ssiof0.o(i.s_ssiof_readSingleData_8)
    i.s_ssiof_writeDummyData_16              0x00006d18   Section        0  ssiof0.o(i.s_ssiof_writeDummyData_16)
    s_ssiof_writeDummyData_16                0x00006d19   Thumb Code    14  ssiof0.o(i.s_ssiof_writeDummyData_16)
    i.s_ssiof_writeDummyData_8               0x00006d2c   Section        0  ssiof0.o(i.s_ssiof_writeDummyData_8)
    s_ssiof_writeDummyData_8                 0x00006d2d   Thumb Code    14  ssiof0.o(i.s_ssiof_writeDummyData_8)
    i.s_ssiof_writeSingleData_16             0x00006d40   Section        0  ssiof0.o(i.s_ssiof_writeSingleData_16)
    s_ssiof_writeSingleData_16               0x00006d41   Thumb Code    24  ssiof0.o(i.s_ssiof_writeSingleData_16)
    i.s_ssiof_writeSingleData_8              0x00006d60   Section        0  ssiof0.o(i.s_ssiof_writeSingleData_8)
    s_ssiof_writeSingleData_8                0x00006d61   Thumb Code    24  ssiof0.o(i.s_ssiof_writeSingleData_8)
    i.set_stall_rx                           0x00006d80   Section        0  msc_scsi.o(i.set_stall_rx)
    i.spiFlash_init                          0x00006d9c   Section        0  spiflash_drv.o(i.spiFlash_init)
    i.spiFlash_read                          0x00006d9e   Section        0  spiflash_drv.o(i.spiFlash_read)
    i.ssioFlash_ProgramImage                 0x00006da0   Section        0  ssioflash.o(i.ssioFlash_ProgramImage)
    i.ssioFlash_erase                        0x00006e10   Section        0  ssioflash.o(i.ssioFlash_erase)
    i.ssioFlash_erasePage4K                  0x00006e68   Section        0  ssioflash.o(i.ssioFlash_erasePage4K)
    i.ssioFlash_exit                         0x00006e74   Section        0  ssioflash.o(i.ssioFlash_exit)
    i.ssioFlash_exit_CY32K                   0x00006f18   Section        0  ssioflash.o(i.ssioFlash_exit_CY32K)
    i.ssioFlash_init                         0x00006f28   Section        0  ssioflash.o(i.ssioFlash_init)
    i.ssioFlash_init_24Mhz                   0x00006fec   Section        0  ssioflash.o(i.ssioFlash_init_24Mhz)
    i.ssioFlash_read                         0x00006ffc   Section        0  ssioflash.o(i.ssioFlash_read)
    i.ssioFlash_write                        0x00007040   Section        0  ssioflash.o(i.ssioFlash_write)
    i.ssio_rdsr                              0x000070a4   Section        0  ssioflash.o(i.ssio_rdsr)
    i.ssio_read                              0x000070dc   Section        0  ssioflash.o(i.ssio_read)
    i.ssio_wait_write                        0x00007110   Section        0  ssioflash.o(i.ssio_wait_write)
    i.ssio_write                             0x00007124   Section        0  ssioflash.o(i.ssio_write)
    i.ssio_wrsr                              0x0000714c   Section        0  ssioflash.o(i.ssio_wrsr)
    i.ssiof0_continue                        0x00007178   Section        0  ssiof0.o(i.ssiof0_continue)
    i.sys_disablePeripheral                  0x00007318   Section        0  clock_drv.o(i.sys_disablePeripheral)
    i.sys_enablePeripheral                   0x0000732c   Section        0  clock_drv.o(i.sys_enablePeripheral)
    i.tbc_Init                               0x00007340   Section        0  tbc.o(i.tbc_Init)
    i.tx_CSW                                 0x00007370   Section        0  msc_scsi.o(i.tx_CSW)
    i.usb_class_callback                     0x000073c4   Section        0  usb_api.o(i.usb_class_callback)
    i.usb_clear_feature_callback             0x000073d0   Section        0  usb_api.o(i.usb_clear_feature_callback)
    i.usb_init                               0x000073dc   Section        0  usb_init.o(i.usb_init)
    i.usb_int_disable                        0x00007498   Section        0  usb_api.o(i.usb_int_disable)
    i.usb_remote_wakeup                      0x000074cc   Section        0  usb_api.o(i.usb_remote_wakeup)
    i.usb_rx_start                           0x000074fc   Section        0  usb_api.o(i.usb_rx_start)
    i.usb_set_callback                       0x0000752c   Section        0  usb_api.o(i.usb_set_callback)
    i.usb_tx_start                           0x0000753c   Section        0  usb_api.o(i.usb_tx_start)
    i.usbmsc_media_protect                   0x0000757c   Section        0  common.o(i.usbmsc_media_protect)
    i.vbus_init                              0x00007590   Section        0  keyledvbus.o(i.vbus_init)
    i.vendor_func                            0x000075d4   Section        0  req_vend.o(i.vendor_func)
    i.wdt_clear                              0x000075fc   Section        0  wdt.o(i.wdt_clear)
    i.writeAP                                0x00007614   Section        0  dap.o(i.writeAP)
    i.writeDP                                0x00007634   Section        0  dap.o(i.writeDP)
    i.writeMem                               0x00007654   Section        0  utils.o(i.writeMem)
    i.writeReg                               0x00007670   Section        0  dap.o(i.writeReg)
    i.write_FIFO                             0x0000784c   Section        0  trans.o(i.write_FIFO)
    i.write_fifo                             0x00007958   Section        0  trans.o(i.write_fifo)
    write_fifo                               0x00007959   Thumb Code    32  trans.o(i.write_fifo)
    i.xxMediaRead                            0x00007978   Section        0  spiflash_lower.o(i.xxMediaRead)
    xxMediaRead                              0x00007979   Thumb Code    16  spiflash_lower.o(i.xxMediaRead)
    x$fpl$fadd                               0x00007988   Section      140  faddsub.o(x$fpl$fadd)
    _fadd1                                   0x00007995   Thumb Code     0  faddsub.o(x$fpl$fadd)
    x$fpl$fleqf                              0x00007a14   Section       84  flef.o(x$fpl$fleqf)
    x$fpl$fsub                               0x00007a68   Section      208  faddsub.o(x$fpl$fsub)
    _fsub1                                   0x00007a75   Thumb Code     0  faddsub.o(x$fpl$fsub)
    .constdata                               0x00007b38   Section       16  common.o(.constdata)
    x$fpl$usenofp                            0x00007b38   Section        0  usenofp.o(x$fpl$usenofp)
    .constdata                               0x00007b48   Section       74  fats.o(.constdata)
    .constdata                               0x00007b94   Section      280  trans.o(.constdata)
    .constdata                               0x00007cac   Section       16  msc_scsi.o(.constdata)
    EP_desc                                  0x00007cac   Data          16  msc_scsi.o(.constdata)
    .constdata                               0x00007cbc   Section       16  msc_scsi.o(.constdata)
    IF_desc0                                 0x00007cbc   Data          16  msc_scsi.o(.constdata)
    .constdata                               0x00007ccc   Section       16  msc_scsi.o(.constdata)
    CFG_desc                                 0x00007ccc   Data          16  msc_scsi.o(.constdata)
    .constdata                               0x00007cdc   Section      108  msc_scsi.o(.constdata)
    .constdata                               0x00007d48   Section      128  ddiv.o(.constdata)
    ddiv_reciptbl                            0x00007d48   Data         128  ddiv.o(.constdata)
    .ARM.__AT_0x20000000                     0x20000000   Section      256  common.o(.ARM.__AT_0x20000000)
    .ARM.__AT_0x20000100                     0x20000100   Section        4  common.o(.ARM.__AT_0x20000100)
    .data                                    0x20000104   Section        4  common.o(.data)
    .data                                    0x20000108   Section       32  common.o(.data)
    .data                                    0x20000128   Section        4  common.o(.data)
    .data                                    0x2000012c   Section        4  common.o(.data)
    .data                                    0x20000130   Section        4  common.o(.data)
    .data                                    0x20000134   Section        2  common.o(.data)
    .data                                    0x20000136   Section        4  common.o(.data)
    .data                                    0x2000013a   Section        1  common.o(.data)
    .data                                    0x2000013c   Section        4  common.o(.data)
    .data                                    0x20000140   Section        1  common.o(.data)
    .data                                    0x20000142   Section        2  common.o(.data)
    .data                                    0x20000144   Section        1  common.o(.data)
    .data                                    0x20000145   Section        1  common.o(.data)
    .data                                    0x20000146   Section        1  common.o(.data)
    .data                                    0x20000147   Section        1  common.o(.data)
    .data                                    0x20000148   Section        2  common.o(.data)
    .data                                    0x2000014a   Section        1  common.o(.data)
    .data                                    0x2000014b   Section        1  common.o(.data)
    .data                                    0x2000014c   Section        1  common.o(.data)
    .data                                    0x2000014d   Section        1  common.o(.data)
    .data                                    0x20000150   Section        4  common.o(.data)
    .data                                    0x20000154   Section        1  common.o(.data)
    .data                                    0x20000158   Section        4  common.o(.data)
    .data                                    0x2000015c   Section        1  common.o(.data)
    .data                                    0x20000160   Section        4  state.o(.data)
    vStateCtrl                               0x20000160   Data           4  state.o(.data)
    .data                                    0x20000164   Section       12  fats.o(.data)
    s_iPos                                   0x20000164   Data           2  fats.o(.data)
    s_iCodeFileStartSector                   0x20000166   Data           2  fats.o(.data)
    s_iConfFileStartSector                   0x20000168   Data           2  fats.o(.data)
    s_cPtr                                   0x2000016c   Data           4  fats.o(.data)
    .data                                    0x20000170   Section        8  keyledvbus.o(.data)
    vLedCnt                                  0x20000170   Data           1  keyledvbus.o(.data)
    vKeyPress                                0x20000172   Data           2  keyledvbus.o(.data)
    vKeyPHCnt                                0x20000174   Data           2  keyledvbus.o(.data)
    vLedCtrl                                 0x20000176   Data           2  keyledvbus.o(.data)
    .data                                    0x20000178   Section        4  trans.o(.data)
    .data                                    0x2000017c   Section       10  trans.o(.data)
    .data                                    0x20000186   Section        6  trans.o(.data)
    .data                                    0x2000018c   Section        1  trans.o(.data)
    .data                                    0x20000190   Section        4  trans.o(.data)
    .data                                    0x20000194   Section        4  trans.o(.data)
    .data                                    0x20000198   Section        4  upper.o(.data)
    .data                                    0x2000019c   Section        4  upper.o(.data)
    .data                                    0x200001a0   Section        8  msc_scsi.o(.data)
    CFG_if                                   0x200001a0   Data           8  msc_scsi.o(.data)
    .data                                    0x200001a8   Section       60  msc_scsi.o(.data)
    .data                                    0x200001e4   Section        4  rtc.o(.data)
    .data                                    0x200001e8   Section       28  fixture.o(.data)
    ui                                       0x200001ea   Data           2  fixture.o(.data)
    i                                        0x200001ec   Data           2  fixture.o(.data)
    j                                        0x200001ee   Data           2  fixture.o(.data)
    rec                                      0x200001f0   Data           3  fixture.o(.data)
    .bss                                     0x20000204   Section     1024  common.o(.bss)
    .bss                                     0x20000604   Section     2048  common.o(.bss)
    .bss                                     0x20000e04   Section       40  common.o(.bss)
    .bss                                     0x20000e2c   Section       20  common.o(.bss)
    .bss                                     0x20000e40   Section       28  ssiof0.o(.bss)
    s_ctrlParam                              0x20000e40   Data          28  ssiof0.o(.bss)
    .bss                                     0x20000e5c   Section      124  trans.o(.bss)
    .bss                                     0x20000ed8   Section      512  usb_init.o(.bss)
    .bss                                     0x200010d8   Section       24  upper.o(.bss)
    .bss                                     0x200010f0   Section      512  spiflash_lower.o(.bss)
    .bss                                     0x200012f0   Section     1138  msc_scsi.o(.bss)
    .bss                                     0x20001764   Section       20  fixture.o(.bss)
    f                                        0x20001764   Data          20  fixture.o(.bss)
    .bss                                     0x20001778   Section       96  libspace.o(.bss)
    HEAP                                     0x200017d8   Section     8192  startup_ml630q466.o(HEAP)
    Heap_Mem                                 0x200017d8   Data        8192  startup_ml630q466.o(HEAP)
    STACK                                    0x200037d8   Section     1024  startup_ml630q466.o(STACK)
    Stack_Mem                                0x200037d8   Data        1024  startup_ml630q466.o(STACK)
    __initial_sp                             0x20003bd8   Data           0  startup_ml630q466.o(STACK)

    Global Symbols

    Symbol Name                              Value     Ov Type        Size  Object(Section)

    BuildAttributes$$THM_ISAv3M$S$PE$A:L22$X:L11$S22$IEEE1$IW$USESV6$~STKCKD$USESV7$~SHL$OSPACE$ROPI$EBA8$UX$STANDARDLIB$REQ8$PRES8$EABIv2 0x00000000   Number         0  anon$$obj.o ABSOLUTE
    __ARM_use_no_argv                        0x00000000   Number         0  main.o ABSOLUTE
    __Vectors                                0x00000000   Data           4  startup_ml630q466.o(RESET)
    __ARM_exceptions_init                     - Undefined Weak Reference
    __alloca_initialize                       - Undefined Weak Reference
    __arm_preinit_                            - Undefined Weak Reference
    __cpp_initialize__aeabi_                  - Undefined Weak Reference
    __cxa_finalize                            - Undefined Weak Reference
    __rt_locale                               - Undefined Weak Reference
    __sigvec_lookup                           - Undefined Weak Reference
    _atexit_init                              - Undefined Weak Reference
    _call_atexit_fns                          - Undefined Weak Reference
    _clock_init                               - Undefined Weak Reference
    _fp_trap_init                             - Undefined Weak Reference
    _fp_trap_shutdown                         - Undefined Weak Reference
    _get_lc_collate                           - Undefined Weak Reference
    _get_lc_ctype                             - Undefined Weak Reference
    _get_lc_monetary                          - Undefined Weak Reference
    _get_lc_numeric                           - Undefined Weak Reference
    _get_lc_time                              - Undefined Weak Reference
    _getenv_init                              - Undefined Weak Reference
    _handle_redirection                       - Undefined Weak Reference
    _init_alloc                               - Undefined Weak Reference
    _init_user_alloc                          - Undefined Weak Reference
    _initio                                   - Undefined Weak Reference
    _rand_init                                - Undefined Weak Reference
    _signal_finish                            - Undefined Weak Reference
    _signal_init                              - Undefined Weak Reference
    _terminate_alloc                          - Undefined Weak Reference
    _terminate_user_alloc                     - Undefined Weak Reference
    _terminateio                              - Undefined Weak Reference
    __Vectors_End                            0x000000c0   Data           0  startup_ml630q466.o(RESET)
    __Vectors_Size                           0x000000c0   Number         0  startup_ml630q466.o ABSOLUTE
    __main                                   0x000000c1   Thumb Code     8  __main.o(!!!main)
    __scatterload                            0x000000c9   Thumb Code     0  __scatter.o(!!!scatter)
    __scatterload_rt2                        0x000000c9   Thumb Code    52  __scatter.o(!!!scatter)
    __scatterload_rt2_thumb_only             0x000000c9   Thumb Code     0  __scatter.o(!!!scatter)
    __scatterload_null                       0x000000d9   Thumb Code     0  __scatter.o(!!!scatter)
    __scatterload_copy                       0x00000105   Thumb Code    26  __scatter_copy.o(!!handler_copy)
    __scatterload_zeroinit                   0x00000121   Thumb Code    28  __scatter_zi.o(!!handler_zi)
    __rt_lib_init                            0x0000013d   Thumb Code     0  libinit.o(.ARM.Collect$$libinit$$00000000)
    __rt_lib_init_alloca_1                   0x0000013f   Thumb Code     0  libinit2.o(.ARM.Collect$$libinit$$0000002E)
    __rt_lib_init_argv_1                     0x0000013f   Thumb Code     0  libinit2.o(.ARM.Collect$$libinit$$0000002C)
    __rt_lib_init_atexit_1                   0x0000013f   Thumb Code     0  libinit2.o(.ARM.Collect$$libinit$$0000001B)
    __rt_lib_init_clock_1                    0x0000013f   Thumb Code     0  libinit2.o(.ARM.Collect$$libinit$$00000021)
    __rt_lib_init_cpp_1                      0x0000013f   Thumb Code     0  libinit2.o(.ARM.Collect$$libinit$$00000032)
    __rt_lib_init_exceptions_1               0x0000013f   Thumb Code     0  libinit2.o(.ARM.Collect$$libinit$$00000030)
    __rt_lib_init_fp_1                       0x0000013f   Thumb Code     0  libinit2.o(.ARM.Collect$$libinit$$00000002)
    __rt_lib_init_fp_trap_1                  0x0000013f   Thumb Code     0  libinit2.o(.ARM.Collect$$libinit$$0000001F)
    __rt_lib_init_getenv_1                   0x0000013f   Thumb Code     0  libinit2.o(.ARM.Collect$$libinit$$00000023)
    __rt_lib_init_heap_1                     0x0000013f   Thumb Code     0  libinit2.o(.ARM.Collect$$libinit$$0000000A)
    __rt_lib_init_lc_collate_1               0x0000013f   Thumb Code     0  libinit2.o(.ARM.Collect$$libinit$$00000011)
    __rt_lib_init_lc_ctype_1                 0x0000013f   Thumb Code     0  libinit2.o(.ARM.Collect$$libinit$$00000013)
    __rt_lib_init_lc_monetary_1              0x0000013f   Thumb Code     0  libinit2.o(.ARM.Collect$$libinit$$00000015)
    __rt_lib_init_lc_numeric_1               0x0000013f   Thumb Code     0  libinit2.o(.ARM.Collect$$libinit$$00000017)
    __rt_lib_init_lc_time_1                  0x0000013f   Thumb Code     0  libinit2.o(.ARM.Collect$$libinit$$00000019)
    __rt_lib_init_preinit_1                  0x0000013f   Thumb Code     0  libinit2.o(.ARM.Collect$$libinit$$00000004)
    __rt_lib_init_rand_1                     0x0000013f   Thumb Code     0  libinit2.o(.ARM.Collect$$libinit$$0000000E)
    __rt_lib_init_return                     0x0000013f   Thumb Code     0  libinit2.o(.ARM.Collect$$libinit$$00000033)
    __rt_lib_init_signal_1                   0x0000013f   Thumb Code     0  libinit2.o(.ARM.Collect$$libinit$$0000001D)
    __rt_lib_init_stdio_1                    0x0000013f   Thumb Code     0  libinit2.o(.ARM.Collect$$libinit$$00000025)
    __rt_lib_init_user_alloc_1               0x0000013f   Thumb Code     0  libinit2.o(.ARM.Collect$$libinit$$0000000C)
    __rt_lib_shutdown                        0x00000141   Thumb Code     0  libshutdown.o(.ARM.Collect$$libshutdown$$00000000)
    __rt_lib_shutdown_cpp_1                  0x00000143   Thumb Code     0  libshutdown2.o(.ARM.Collect$$libshutdown$$00000002)
    __rt_lib_shutdown_fp_trap_1              0x00000143   Thumb Code     0  libshutdown2.o(.ARM.Collect$$libshutdown$$00000007)
    __rt_lib_shutdown_heap_1                 0x00000143   Thumb Code     0  libshutdown2.o(.ARM.Collect$$libshutdown$$0000000F)
    __rt_lib_shutdown_return                 0x00000143   Thumb Code     0  libshutdown2.o(.ARM.Collect$$libshutdown$$00000010)
    __rt_lib_shutdown_signal_1               0x00000143   Thumb Code     0  libshutdown2.o(.ARM.Collect$$libshutdown$$0000000A)
    __rt_lib_shutdown_stdio_1                0x00000143   Thumb Code     0  libshutdown2.o(.ARM.Collect$$libshutdown$$00000004)
    __rt_lib_shutdown_user_alloc_1           0x00000143   Thumb Code     0  libshutdown2.o(.ARM.Collect$$libshutdown$$0000000C)
    __rt_entry                               0x00000145   Thumb Code     0  __rtentry.o(.ARM.Collect$$rtentry$$00000000)
    __rt_entry_presh_1                       0x00000145   Thumb Code     0  __rtentry2.o(.ARM.Collect$$rtentry$$00000002)
    __rt_entry_sh                            0x00000145   Thumb Code     0  __rtentry4.o(.ARM.Collect$$rtentry$$00000004)
    __rt_entry_li                            0x0000014b   Thumb Code     0  __rtentry2.o(.ARM.Collect$$rtentry$$0000000A)
    __rt_entry_postsh_1                      0x0000014b   Thumb Code     0  __rtentry2.o(.ARM.Collect$$rtentry$$00000009)
    __rt_entry_main                          0x0000014f   Thumb Code     0  __rtentry2.o(.ARM.Collect$$rtentry$$0000000D)
    __rt_entry_postli_1                      0x0000014f   Thumb Code     0  __rtentry2.o(.ARM.Collect$$rtentry$$0000000C)
    __rt_exit                                0x00000157   Thumb Code     0  rtexit.o(.ARM.Collect$$rtexit$$00000000)
    __rt_exit_ls                             0x00000159   Thumb Code     0  rtexit2.o(.ARM.Collect$$rtexit$$00000003)
    __rt_exit_prels_1                        0x00000159   Thumb Code     0  rtexit2.o(.ARM.Collect$$rtexit$$00000002)
    __rt_exit_exit                           0x0000015d   Thumb Code     0  rtexit2.o(.ARM.Collect$$rtexit$$00000004)
    __aeabi_memcpy4                          0x00000165   Thumb Code    56  rt_memcpy.o(.emb_text)
    __aeabi_memcpy8                          0x00000165   Thumb Code     0  rt_memcpy.o(.emb_text)
    Reset_Handler                            0x0000019d   Thumb Code     8  startup_ml630q466.o(.text)
    HardFault_Handler                        0x000001a7   Thumb Code     2  startup_ml630q466.o(.text)
    SVC_Handler                              0x000001a9   Thumb Code     2  startup_ml630q466.o(.text)
    PendSV_Handler                           0x000001ab   Thumb Code     2  startup_ml630q466.o(.text)
    SysTick_Handler                          0x000001ad   Thumb Code     2  startup_ml630q466.o(.text)
    __user_initial_stackheap                 0x000001b1   Thumb Code     0  startup_ml630q466.o(.text)
    strcpy                                   0x000001d5   Thumb Code    70  strcpy.o(.text)
    __aeabi_memcpy                           0x00000221   Thumb Code   130  rt_memcpy.o(.text)
    __rt_memcpy                              0x00000221   Thumb Code     0  rt_memcpy.o(.text)
    __aeabi_memset                           0x000002a3   Thumb Code    18  aeabi_memset.o(.text)
    _memset_w                                0x000002b5   Thumb Code    26  rt_memclr.o(.text)
    _memset                                  0x000002cf   Thumb Code    30  rt_memclr.o(.text)
    __aeabi_memclr                           0x000002ed   Thumb Code     4  rt_memclr.o(.text)
    __rt_memclr                              0x000002ed   Thumb Code     0  rt_memclr.o(.text)
    __aeabi_memclr4                          0x000002f1   Thumb Code     0  rt_memclr.o(.text)
    __aeabi_memclr8                          0x000002f1   Thumb Code     0  rt_memclr.o(.text)
    __rt_memclr_w                            0x000002f1   Thumb Code     4  rt_memclr.o(.text)
    __aeabi_uread4                           0x000002f5   Thumb Code    34  uread4.o(.text)
    __rt_uread4                              0x000002f5   Thumb Code     0  uread4.o(.text)
    __aeabi_uwrite4                          0x00000317   Thumb Code    16  uwrite4.o(.text)
    __rt_uwrite4                             0x00000317   Thumb Code     0  uwrite4.o(.text)
    __aeabi_uidiv                            0x00000327   Thumb Code     0  aeabi_sdiv.o(.text)
    __aeabi_uidivmod                         0x00000327   Thumb Code    20  aeabi_sdiv.o(.text)
    __aeabi_idiv                             0x0000033b   Thumb Code     0  aeabi_sdiv.o(.text)
    __aeabi_idivmod                          0x0000033b   Thumb Code   326  aeabi_sdiv.o(.text)
    __use_two_region_memory                  0x00000481   Thumb Code     2  heapauxi.o(.text)
    __rt_heap_escrow$2region                 0x00000483   Thumb Code     2  heapauxi.o(.text)
    __rt_heap_expand$2region                 0x00000485   Thumb Code     2  heapauxi.o(.text)
    __aeabi_d2f                              0x00000489   Thumb Code     0  d2f.o(.text)
    _d2f                                     0x00000489   Thumb Code   120  d2f.o(.text)
    __aeabi_ddiv                             0x00000505   Thumb Code     0  ddiv.o(.text)
    _ddiv                                    0x00000505   Thumb Code  1072  ddiv.o(.text)
    _drdiv                                   0x00000935   Thumb Code    20  ddiv.o(.text)
    __aeabi_dmul                             0x0000094d   Thumb Code     0  dmul.o(.text)
    _dmul                                    0x0000094d   Thumb Code   558  dmul.o(.text)
    __aeabi_f2d                              0x00000b95   Thumb Code     0  f2d.o(.text)
    _f2d                                     0x00000b95   Thumb Code    80  f2d.o(.text)
    __aeabi_i2f_normalise                    0x00000be9   Thumb Code    72  fflti.o(.text)
    __aeabi_i2f                              0x00000c31   Thumb Code    16  fflti.o(.text)
    _fflt                                    0x00000c31   Thumb Code     0  fflti.o(.text)
    __aeabi_ui2f                             0x00000c41   Thumb Code     6  fflti.o(.text)
    _ffltu                                   0x00000c41   Thumb Code     0  fflti.o(.text)
    __fpl_fcmp_InfNaN                        0x00000c49   Thumb Code    96  fcmpin.o(.text)
    __fpl_cmpreturn                          0x00000cad   Thumb Code    46  cmpret.o(.text)
    __fpl_fcheck_NaN2                        0x00000cdd   Thumb Code    10  fnan2.o(.text)
    __user_setup_stackheap                   0x00000ced   Thumb Code    62  sys_stackheap_outer.o(.text)
    exit                                     0x00000d2b   Thumb Code    16  exit.o(.text)
    __fpl_return_NaN                         0x00000d3b   Thumb Code    94  retnan.o(.text)
    __user_libspace                          0x00000d99   Thumb Code     8  libspace.o(.text)
    __user_perproc_libspace                  0x00000d99   Thumb Code     0  libspace.o(.text)
    __user_perthread_libspace                0x00000d99   Thumb Code     0  libspace.o(.text)
    _sys_exit                                0x00000da1   Thumb Code     8  sys_exit.o(.text)
    __I$use$semihosting                      0x00000dad   Thumb Code     0  use_no_semi.o(.text)
    __use_no_semihosting_swi                 0x00000dad   Thumb Code     2  use_no_semi.o(.text)
    AES_IRQHandler                           0x00000daf   Thumb Code     2  irq_vectorc.o(i.AES_IRQHandler)
    __semihosting_library_function           0x00000daf   Thumb Code     0  indicate_semi.o(.text)
    BroadcastMessage                         0x00000db1   Thumb Code    28  state.o(i.BroadcastMessage)
    CHECK_IMG_CODE_FWV                       0x00000dcd   Thumb Code    14  fixture.o(i.CHECK_IMG_CODE_FWV)
    CHECK_IMG_CONF_FWV_SIG                   0x00000de5   Thumb Code    38  fixture.o(i.CHECK_IMG_CONF_FWV_SIG)
    CHECK_LOGGER_CURRENT                     0x00000e1d   Thumb Code   176  fixture.o(i.CHECK_LOGGER_CURRENT)
    CMP_IRQHandler                           0x00000edd   Thumb Code     2  irq_vectorc.o(i.CMP_IRQHandler)
    Check_SysTimeTick                        0x00000ee1   Thumb Code    52  state.o(i.Check_SysTimeTick)
    ChkCBW                                   0x00000f1d   Thumb Code    64  msc_scsi.o(i.ChkCBW)
    ChkReadCBW                               0x00000f69   Thumb Code   110  msc_scsi.o(i.ChkReadCBW)
    DMAC0_IRQHandler                         0x00000fed   Thumb Code     2  irq_vectorc.o(i.DMAC0_IRQHandler)
    DMAC1_IRQHandler                         0x00000fef   Thumb Code     2  irq_vectorc.o(i.DMAC1_IRQHandler)
    Default_Handler                          0x00000ff1   Thumb Code     2  irq_vectorc.o(i.Default_Handler)
    FTM0_IRQHandler                          0x00000ff3   Thumb Code     2  irq_vectorc.o(i.FTM0_IRQHandler)
    FTM1_IRQHandler                          0x00000ff5   Thumb Code     2  irq_vectorc.o(i.FTM1_IRQHandler)
    FTM2_IRQHandler                          0x00000ff7   Thumb Code     2  irq_vectorc.o(i.FTM2_IRQHandler)
    FTM3_IRQHandler                          0x00000ff9   Thumb Code     2  irq_vectorc.o(i.FTM3_IRQHandler)
    I2C1_IRQHandler                          0x00000ffb   Thumb Code     2  irq_vectorc.o(i.I2C1_IRQHandler)
    I2CF0_IRQHandler                         0x00000ffd   Thumb Code     2  irq_vectorc.o(i.I2CF0_IRQHandler)
    LOSC_IRQHandler                          0x00000fff   Thumb Code     2  irq_vectorc.o(i.LOSC_IRQHandler)
    m_lFV_0123B                              0x00001000   Data           4  common.o(.ARM.__AT_0x00001000)
    ChkWriteCBW                              0x00001005   Thumb Code   116  msc_scsi.o(i.ChkWriteCBW)
    EXI_IRQHandler                           0x00001089   Thumb Code    82  irq_vectorc.o(i.EXI_IRQHandler)
    EXT_int                                  0x000010f1   Thumb Code   228  intr.o(i.EXT_int)
    EraseProgramApp                          0x000011f1   Thumb Code    60  flash_drv.o(i.EraseProgramApp)
    EraseSector                              0x00001231   Thumb Code    66  flash_drv.o(i.EraseSector)
    FATS_DIR_LPROG                           0x0000130d   Thumb Code   492  fats.o(i.FATS_DIR_LPROG)
    FATS_FAT                                 0x0000152d   Thumb Code   160  fats.o(i.FATS_FAT)
    FATS_FAT_LPROG                           0x000015d5   Thumb Code    50  fats.o(i.FATS_FAT_LPROG)
    FATS_StreamFileName                      0x0000160d   Thumb Code   116  fats.o(i.FATS_StreamFileName)
    FATS_StreamRead                          0x000016fd   Thumb Code    96  fats.o(i.FATS_StreamRead)
    FATS_StreamWrite                         0x00001765   Thumb Code   222  fats.o(i.FATS_StreamWrite)
    FIXTURE_ADC_ZERO_OFFSET                  0x00001859   Thumb Code   124  fixture.o(i.FIXTURE_ADC_ZERO_OFFSET)
    FIXTURE_CHK_ERROR_NUM                    0x000018e1   Thumb Code    86  fixture.o(i.FIXTURE_CHK_ERROR_NUM)
    FIXTURE_I2C_CLOSE                        0x00001939   Thumb Code    52  fixture.o(i.FIXTURE_I2C_CLOSE)
    FIXTURE_INIT                             0x00001971   Thumb Code    44  fixture.o(i.FIXTURE_INIT)
    FIXTURE_MAIN                             0x000019a1   Thumb Code   134  fixture.o(i.FIXTURE_MAIN)
    FIXTURE_SWD_CLOSE                        0x00001a31   Thumb Code    84  fixture.o(i.FIXTURE_SWD_CLOSE)
    FIXTURE_SWD_OPEN_MCU_RESET               0x00001a89   Thumb Code    86  fixture.o(i.FIXTURE_SWD_OPEN_MCU_RESET)
    FIXTURE_SWD_OPEN_MCU_RUN                 0x00001ae5   Thumb Code    78  fixture.o(i.FIXTURE_SWD_OPEN_MCU_RUN)
    FIXTURE_USB_CLOSE                        0x00001b39   Thumb Code    88  fixture.o(i.FIXTURE_USB_CLOSE)
    FIXTURE_WAIT_DOOR_OPEN                   0x00001b95   Thumb Code    34  fixture.o(i.FIXTURE_WAIT_DOOR_OPEN)
    FlashInit                                0x00001bbd   Thumb Code     8  flash_drv.o(i.FlashInit)
    GET_MCP3421_ADDRESS                      0x00001bc9   Thumb Code   318  fixture.o(i.GET_MCP3421_ADDRESS)
    G_ONLY                                   0x00001d15   Thumb Code    28  keyledvbus.o(i.G_ONLY)
    GetEvent                                 0x00001d35   Thumb Code    38  state.o(i.GetEvent)
    GetMessage                               0x00001d69   Thumb Code    44  state.o(i.GetMessage)
    ImageVerify_ChecksumCalc                 0x00001da1   Thumb Code   266  common.o(i.ImageVerify_ChecksumCalc)
    JTAG_to_SWD_Sequence                     0x00001ec5   Thumb Code   144  dap.o(i.JTAG_to_SWD_Sequence)
    Key_task                                 0x00001f89   Thumb Code   162  keyledvbus.o(i.Key_task)
    LTBC_IRQHandler                          0x00002041   Thumb Code    32  irq_vectorc.o(i.LTBC_IRQHandler)
    Led_reset                                0x00002069   Thumb Code    18  keyledvbus.o(i.Led_reset)
    Led_task                                 0x00002085   Thumb Code   700  keyledvbus.o(i.Led_task)
    MakeSenseData                            0x00002355   Thumb Code    36  msc_scsi.o(i.MakeSenseData)
    MeasureCurrent                           0x0000237d   Thumb Code   412  fixture.o(i.MeasureCurrent)
    MediaCapacity                            0x00002531   Thumb Code     8  upper.o(i.MediaCapacity)
    MediaChange                              0x00002539   Thumb Code    16  upper.o(i.MediaChange)
    MediaCheck                               0x0000254d   Thumb Code     8  upper.o(i.MediaCheck)
    MediaGetID                               0x00002555   Thumb Code     8  upper.o(i.MediaGetID)
    MediaInitialize                          0x0000255d   Thumb Code     8  upper.o(i.MediaInitialize)
    MediaRead                                0x00002565   Thumb Code     8  upper.o(i.MediaRead)
    MediaStatus                              0x0000256d   Thumb Code     8  upper.o(i.MediaStatus)
    MediaVerify                              0x00002575   Thumb Code     8  upper.o(i.MediaVerify)
    MediaWrite                               0x0000257d   Thumb Code     8  upper.o(i.MediaWrite)
    NMI_Handler                              0x00002585   Thumb Code     2  irq_vectorc.o(i.NMI_Handler)
    PROGRAM_ON_OFF                           0x000025d1   Thumb Code    36  fixture.o(i.PROGRAM_ON_OFF)
    Peripheral_Initial                       0x000025f9   Thumb Code   124  common.o(i.Peripheral_Initial)
    PostEvent                                0x00002685   Thumb Code    32  state.o(i.PostEvent)
    PostMessage                              0x000026ad   Thumb Code    38  state.o(i.PostMessage)
    ProgramImage                             0x000026dd   Thumb Code    88  flash_drv.o(i.ProgramImage)
    ProgramPage                              0x00002741   Thumb Code    60  flash_drv.o(i.ProgramPage)
    RAD_IRQHandler                           0x00002781   Thumb Code     2  irq_vectorc.o(i.RAD_IRQHandler)
    RTC_IRQHandler                           0x00002783   Thumb Code    14  irq_vectorc.o(i.RTC_IRQHandler)
    R_ONLY                                   0x00002791   Thumb Code    28  keyledvbus.o(i.R_ONLY)
    ReadPage                                 0x000027b1   Thumb Code    60  flash_drv.o(i.ReadPage)
    SAD_IRQHandler                           0x000027ed   Thumb Code     2  irq_vectorc.o(i.SAD_IRQHandler)
    SCSICommandRequest                       0x000027f1   Thumb Code   362  msc_scsi.o(i.SCSICommandRequest)
    SCSIEventProc                            0x00002971   Thumb Code  1200  msc_scsi.o(i.SCSIEventProc)
    SCSIFormatUnit                           0x00002e2d   Thumb Code   296  msc_scsi.o(i.SCSIFormatUnit)
    SCSIInitialize                           0x00002f69   Thumb Code   120  msc_scsi.o(i.SCSIInitialize)
    SCSIInquiry                              0x00003005   Thumb Code   254  msc_scsi.o(i.SCSIInquiry)
    SCSIModeSense                            0x00003129   Thumb Code   376  msc_scsi.o(i.SCSIModeSense)
    SCSIPreventAllowMediumRemoval            0x000032bd   Thumb Code   110  msc_scsi.o(i.SCSIPreventAllowMediumRemoval)
    SCSIRead                                 0x00003335   Thumb Code   464  msc_scsi.o(i.SCSIRead)
    SCSIReadCapacity                         0x00003519   Thumb Code   376  msc_scsi.o(i.SCSIReadCapacity)
    SCSIRequestSense                         0x000036ad   Thumb Code   246  msc_scsi.o(i.SCSIRequestSense)
    SCSISendDiagnostic                       0x000037c1   Thumb Code   132  msc_scsi.o(i.SCSISendDiagnostic)
    SCSIStartStopUnit                        0x0000384d   Thumb Code   134  msc_scsi.o(i.SCSIStartStopUnit)
    SCSITestUnitReady                        0x000038dd   Thumb Code   114  msc_scsi.o(i.SCSITestUnitReady)
    SCSIVerify10                             0x00003959   Thumb Code   338  msc_scsi.o(i.SCSIVerify10)
    SCSIWrite                                0x00003ac5   Thumb Code   458  msc_scsi.o(i.SCSIWrite)
    SIO0_IRQHandler                          0x00003ca5   Thumb Code     2  irq_vectorc.o(i.SIO0_IRQHandler)
    SIOF0_IRQHandler                         0x00003ca7   Thumb Code     8  irq_vectorc.o(i.SIOF0_IRQHandler)
    STM32_FlashHalfPageProg                  0x00003cb1   Thumb Code   788  fixture.o(i.STM32_FlashHalfPageProg)
    STM32_FlashMassErase                     0x00003fc9   Thumb Code   188  fixture.o(i.STM32_FlashMassErase)
    STM32_FlashProg                          0x00004089   Thumb Code   168  fixture.o(i.STM32_FlashProg)
    STM32_FlashVerify                        0x00004151   Thumb Code  2820  fixture.o(i.STM32_FlashVerify)
    STM32_MCU_RESTART_HALT                   0x00004c61   Thumb Code   226  fixture.o(i.STM32_MCU_RESTART_HALT)
    STM32_OptionByteProg                     0x00004d51   Thumb Code    90  fixture.o(i.STM32_OptionByteProg)
    STM32_UnlockNVM                          0x00004db5   Thumb Code    62  fixture.o(i.STM32_UnlockNVM)
    STM32_Unlock_OPTLOCK                     0x00004df9   Thumb Code    98  fixture.o(i.STM32_Unlock_OPTLOCK)
    STM32_Unlock_PELOCK                      0x00004e69   Thumb Code    70  fixture.o(i.STM32_Unlock_PELOCK)
    STM32_Unlock_PRGLOCK                     0x00004ebd   Thumb Code    98  fixture.o(i.STM32_Unlock_PRGLOCK)
    STM32_WAIT_FLASH_SR_BSY                  0x00004f2d   Thumb Code    94  fixture.o(i.STM32_WAIT_FLASH_SR_BSY)
    ST_PWR_UP_LED_PATTERN                    0x00004f99   Thumb Code    42  state.o(i.ST_PWR_UP_LED_PATTERN)
    SUB_CHECK_FWV                            0x00004fc5   Thumb Code    78  fixture.o(i.SUB_CHECK_FWV)
    SWD_CLEAR_BIT                            0x00005025   Thumb Code    30  dap.o(i.SWD_CLEAR_BIT)
    SWD_READ_BIT                             0x00005043   Thumb Code    20  dap.o(i.SWD_READ_BIT)
    SWD_SET_BIT                              0x00005057   Thumb Code    30  dap.o(i.SWD_SET_BIT)
    SpiFlashCapacity                         0x00005075   Thumb Code    14  spiflash_lower.o(i.SpiFlashCapacity)
    SpiFlashCheck                            0x00005089   Thumb Code    58  spiflash_lower.o(i.SpiFlashCheck)
    SpiFlashGetID                            0x000050d1   Thumb Code     8  spiflash_lower.o(i.SpiFlashGetID)
    SpiFlashInitialize                       0x000050dd   Thumb Code    14  spiflash_lower.o(i.SpiFlashInitialize)
    SpiFlashStatus                           0x000050f1   Thumb Code    10  spiflash_lower.o(i.SpiFlashStatus)
    SpiFlashVerify                           0x00005101   Thumb Code    56  spiflash_lower.o(i.SpiFlashVerify)
    StateManager                             0x00005141   Thumb Code   600  state.o(i.StateManager)
    StreamRead                               0x000053d5   Thumb Code   180  fats.o(i.StreamRead)
    StreamWrite                              0x000054a5   Thumb Code   274  fats.o(i.StreamWrite)
    SystemInit                               0x000055e1   Thumb Code     2  system_ml630q466.o(i.SystemInit)
    TM0_IRQHandler                           0x000055e3   Thumb Code     2  irq_vectorc.o(i.TM0_IRQHandler)
    TM1K_IRQHandler                          0x000055e5   Thumb Code     2  irq_vectorc.o(i.TM1K_IRQHandler)
    TM1_IRQHandler                           0x000055e7   Thumb Code     2  irq_vectorc.o(i.TM1_IRQHandler)
    TM2_IRQHandler                           0x000055e9   Thumb Code     2  irq_vectorc.o(i.TM2_IRQHandler)
    TM3_IRQHandler                           0x000055eb   Thumb Code     2  irq_vectorc.o(i.TM3_IRQHandler)
    TM4_IRQHandler                           0x000055ed   Thumb Code     2  irq_vectorc.o(i.TM4_IRQHandler)
    TM5_IRQHandler                           0x000055ef   Thumb Code     2  irq_vectorc.o(i.TM5_IRQHandler)
    TM6_IRQHandler                           0x000055f1   Thumb Code     2  irq_vectorc.o(i.TM6_IRQHandler)
    TM7_IRQHandler                           0x000055f3   Thumb Code     2  irq_vectorc.o(i.TM7_IRQHandler)
    TurnOffAllLED                            0x000055f5   Thumb Code    28  keyledvbus.o(i.TurnOffAllLED)
    TurnOnAllLED                             0x00005615   Thumb Code    28  keyledvbus.o(i.TurnOnAllLED)
    UA0_IRQHandler                           0x00005635   Thumb Code     2  irq_vectorc.o(i.UA0_IRQHandler)
    UAF0_IRQHandler                          0x00005637   Thumb Code     2  irq_vectorc.o(i.UAF0_IRQHandler)
    USB_IRQHandler                           0x00005639   Thumb Code     8  irq_vectorc.o(i.USB_IRQHandler)
    USB_MSCD_MAIN                            0x00005641   Thumb Code   112  usb_mscd.o(i.USB_MSCD_MAIN)
    VLS_IRQHandler                           0x000056c9   Thumb Code     2  irq_vectorc.o(i.VLS_IRQHandler)
    WRITE_BIT0_4                             0x000056cd   Thumb Code    62  dap.o(i.WRITE_BIT0_4)
    Wait_128Hz                               0x00005711   Thumb Code    28  common.o(i.Wait_128Hz)
    Wait_RAW_128Hz                           0x00005731   Thumb Code    28  common.o(i.Wait_RAW_128Hz)
    Y_ONLY                                   0x00005751   Thumb Code    28  keyledvbus.o(i.Y_ONLY)
    __ARM_common_switch8                     0x00005771   Thumb Code    26  state.o(i.__ARM_common_switch8)
    cbf_bulk_rx                              0x0000578d   Thumb Code    36  msc_scsi.o(i.cbf_bulk_rx)
    cbf_bulk_rx_cbw                          0x000057b5   Thumb Code    32  msc_scsi.o(i.cbf_bulk_rx_cbw)
    cbf_bulk_tx                              0x000057dd   Thumb Code    78  msc_scsi.o(i.cbf_bulk_tx)
    cbf_bulk_tx_csw                          0x00005839   Thumb Code    38  msc_scsi.o(i.cbf_bulk_tx_csw)
    cbf_bulk_tx_read                         0x00005871   Thumb Code    20  msc_scsi.o(i.cbf_bulk_tx_read)
    cbf_dmy                                  0x00005889   Thumb Code     2  msc_scsi.o(i.cbf_dmy)
    change_big_endian_l                      0x0000588b   Thumb Code    18  msc_scsi.o(i.change_big_endian_l)
    class_func                               0x0000589d   Thumb Code    26  req_clss.o(i.class_func)
    clk_disHsclk                             0x000058c1   Thumb Code    22  clock_drv.o(i.clk_disHsclk)
    clk_setHsPll24Mhz                        0x000058dd   Thumb Code    90  clock_drv.o(i.clk_setHsPll24Mhz)
    clk_setLsCrystal32Khz                    0x00005941   Thumb Code    36  clock_drv.o(i.clk_setLsCrystal32Khz)
    connectToTarget                          0x00005969   Thumb Code   108  utils.o(i.connectToTarget)
    delayMs                                  0x000059e1   Thumb Code    48  dap.o(i.delayMs)
    fFatTime2Rtc                             0x00005a1d   Thumb Code   106  fats.o(i.fFatTime2Rtc)
    fRtc2FatTime                             0x00005a87   Thumb Code   100  fats.o(i.fRtc2FatTime)
    func_Clear_Feature                       0x00005aed   Thumb Code   174  request.o(i.func_Clear_Feature)
    func_Get_Configuration                   0x00005bb1   Thumb Code    66  request.o(i.func_Get_Configuration)
    func_Get_Descriptor                      0x00005c05   Thumb Code   266  request.o(i.func_Get_Descriptor)
    func_Get_Interface                       0x00005d21   Thumb Code    92  request.o(i.func_Get_Interface)
    func_Get_Status                          0x00005d8d   Thumb Code   248  request.o(i.func_Get_Status)
    func_Set_Address                         0x00005e99   Thumb Code    56  request.o(i.func_Set_Address)
    func_Set_Configuration                   0x00005edd   Thumb Code   222  request.o(i.func_Set_Configuration)
    func_Set_Descriptor                      0x00005fd5   Thumb Code    10  request.o(i.func_Set_Descriptor)
    func_Set_Feature                         0x00005fe5   Thumb Code   134  request.o(i.func_Set_Feature)
    func_Set_Interface                       0x0000607d   Thumb Code   318  request.o(i.func_Set_Interface)
    func_Synch_Frame                         0x000061d1   Thumb Code    10  request.o(i.func_Synch_Frame)
    haltTarget                               0x000061e1   Thumb Code    88  utils.o(i.haltTarget)
    i2Fn_WaitMCF                             0x0000623d   Thumb Code    48  fixture.o(i.i2Fn_WaitMCF)
    i2cReadBytes                             0x00006271   Thumb Code   152  fixture.o(i.i2cReadBytes)
    i2cWrite1Byte                            0x0000630d   Thumb Code    40  fixture.o(i.i2cWrite1Byte)
    i2cWriteBusAddress                       0x00006339   Thumb Code    78  fixture.o(i.i2cWriteBusAddress)
    initDp                                   0x0000638d   Thumb Code    80  dap.o(i.initDp)
    irq_ext0_init                            0x000063dd   Thumb Code    74  irq.o(i.irq_ext0_init)
    irq_ext2_init                            0x0000642d   Thumb Code    70  irq.o(i.irq_ext2_init)
    keyled_init                              0x00006485   Thumb Code   222  keyledvbus.o(i.keyled_init)
    lp_setHaltMode                           0x00006579   Thumb Code    10  lp_manage.o(i.lp_setHaltMode)
    main                                     0x00006589   Thumb Code    58  main.o(i.main)
    make_format_data                         0x000065d5   Thumb Code    64  msc_scsi.o(i.make_format_data)
    make_mode_page                           0x0000661d   Thumb Code   192  msc_scsi.o(i.make_mode_page)
    mass_bulk_only_func                      0x000066e1   Thumb Code    86  msc_scsi.o(i.mass_bulk_only_func)
    memcmp                                   0x00006745   Thumb Code    32  msc_scsi.o(i.memcmp)
    memcpy                                   0x00006765   Thumb Code    18  msc_scsi.o(i.memcpy)
    memcpy_dc                                0x00006777   Thumb Code    18  msc_scsi.o(i.memcpy_dc)
    memset                                   0x00006789   Thumb Code    14  msc_scsi.o(i.memset)
    msc_clear_feature                        0x00006799   Thumb Code    82  msc_scsi.o(i.msc_clear_feature)
    readAP                                   0x000067f9   Thumb Code    30  dap.o(i.readAP)
    readApId                                 0x00006817   Thumb Code    50  dap.o(i.readApId)
    readDP                                   0x00006849   Thumb Code    30  dap.o(i.readDP)
    readMem                                  0x00006867   Thumb Code    38  utils.o(i.readMem)
    readReg                                  0x0000688d   Thumb Code   432  dap.o(i.readReg)
    read_Device_Requests                     0x00006a41   Thumb Code   140  trans.o(i.read_Device_Requests)
    read_FIFO                                0x00006add   Thumb Code   128  trans.o(i.read_FIFO)
    read_fifo                                0x00006b71   Thumb Code    14  trans.o(i.read_fifo)
    rtc_GetRealTime                          0x00006b81   Thumb Code    50  rtc.o(i.rtc_GetRealTime)
    rtc_GetSecondsElapsed                    0x00006bb9   Thumb Code     8  rtc.o(i.rtc_GetSecondsElapsed)
    rtc_GetTickSecond                        0x00006bc5   Thumb Code     6  rtc.o(i.rtc_GetTickSecond)
    rtc_Interrupt                            0x00006bd1   Thumb Code    20  rtc.o(i.rtc_Interrupt)
    rtc_SetTickSecond                        0x00006bed   Thumb Code     6  rtc.o(i.rtc_SetTickSecond)
    rtc_StartRealTime                        0x00006bf9   Thumb Code   182  rtc.o(i.rtc_StartRealTime)
    rtc_StopRealTime                         0x00006cbd   Thumb Code    24  rtc.o(i.rtc_StopRealTime)
    set_stall_rx                             0x00006d81   Thumb Code    24  msc_scsi.o(i.set_stall_rx)
    spiFlash_init                            0x00006d9d   Thumb Code     2  spiflash_drv.o(i.spiFlash_init)
    spiFlash_read                            0x00006d9f   Thumb Code     2  spiflash_drv.o(i.spiFlash_read)
    ssioFlash_ProgramImage                   0x00006da1   Thumb Code   102  ssioflash.o(i.ssioFlash_ProgramImage)
    ssioFlash_erase                          0x00006e11   Thumb Code    84  ssioflash.o(i.ssioFlash_erase)
    ssioFlash_erasePage4K                    0x00006e69   Thumb Code    12  ssioflash.o(i.ssioFlash_erasePage4K)
    ssioFlash_exit                           0x00006e75   Thumb Code   156  ssioflash.o(i.ssioFlash_exit)
    ssioFlash_exit_CY32K                     0x00006f19   Thumb Code    16  ssioflash.o(i.ssioFlash_exit_CY32K)
    ssioFlash_init                           0x00006f29   Thumb Code   188  ssioflash.o(i.ssioFlash_init)
    ssioFlash_init_24Mhz                     0x00006fed   Thumb Code    14  ssioflash.o(i.ssioFlash_init_24Mhz)
    ssioFlash_read                           0x00006ffd   Thumb Code    64  ssioflash.o(i.ssioFlash_read)
    ssioFlash_write                          0x00007041   Thumb Code    94  ssioflash.o(i.ssioFlash_write)
    ssio_rdsr                                0x000070a5   Thumb Code    46  ssioflash.o(i.ssio_rdsr)
    ssio_read                                0x000070dd   Thumb Code    46  ssioflash.o(i.ssio_read)
    ssio_wait_write                          0x00007111   Thumb Code    18  ssioflash.o(i.ssio_wait_write)
    ssio_write                               0x00007125   Thumb Code    36  ssioflash.o(i.ssio_write)
    ssio_wrsr                                0x0000714d   Thumb Code    40  ssioflash.o(i.ssio_wrsr)
    ssiof0_continue                          0x00007179   Thumb Code   384  ssiof0.o(i.ssiof0_continue)
    sys_disablePeripheral                    0x00007319   Thumb Code    16  clock_drv.o(i.sys_disablePeripheral)
    sys_enablePeripheral                     0x0000732d   Thumb Code    16  clock_drv.o(i.sys_enablePeripheral)
    tbc_Init                                 0x00007341   Thumb Code    32  tbc.o(i.tbc_Init)
    tx_CSW                                   0x00007371   Thumb Code    66  msc_scsi.o(i.tx_CSW)
    usb_class_callback                       0x000073c5   Thumb Code     6  usb_api.o(i.usb_class_callback)
    usb_clear_feature_callback               0x000073d1   Thumb Code     6  usb_api.o(i.usb_clear_feature_callback)
    usb_init                                 0x000073dd   Thumb Code   142  usb_init.o(i.usb_init)
    usb_int_disable                          0x00007499   Thumb Code    42  usb_api.o(i.usb_int_disable)
    usb_remote_wakeup                        0x000074cd   Thumb Code    34  usb_api.o(i.usb_remote_wakeup)
    usb_rx_start                             0x000074fd   Thumb Code    36  usb_api.o(i.usb_rx_start)
    usb_set_callback                         0x0000752d   Thumb Code    10  usb_api.o(i.usb_set_callback)
    usb_tx_start                             0x0000753d   Thumb Code    50  usb_api.o(i.usb_tx_start)
    usbmsc_media_protect                     0x0000757d   Thumb Code    16  common.o(i.usbmsc_media_protect)
    vbus_init                                0x00007591   Thumb Code    62  keyledvbus.o(i.vbus_init)
    vendor_func                              0x000075d5   Thumb Code    26  req_vend.o(i.vendor_func)
    wdt_clear                                0x000075fd   Thumb Code    18  wdt.o(i.wdt_clear)
    writeAP                                  0x00007615   Thumb Code    32  dap.o(i.writeAP)
    writeDP                                  0x00007635   Thumb Code    32  dap.o(i.writeDP)
    writeMem                                 0x00007655   Thumb Code    26  utils.o(i.writeMem)
    writeReg                                 0x00007671   Thumb Code   472  dap.o(i.writeReg)
    write_FIFO                               0x0000784d   Thumb Code   248  trans.o(i.write_FIFO)
    __aeabi_fadd                             0x00007989   Thumb Code     0  faddsub.o(x$fpl$fadd)
    _fadd                                    0x00007989   Thumb Code   134  faddsub.o(x$fpl$fadd)
    __aeabi_cfcmple                          0x00007a15   Thumb Code     0  flef.o(x$fpl$fleqf)
    _fcmple                                  0x00007a15   Thumb Code    78  flef.o(x$fpl$fleqf)
    __aeabi_fsub                             0x00007a69   Thumb Code     0  faddsub.o(x$fpl$fsub)
    _fsub                                    0x00007a69   Thumb Code   204  faddsub.o(x$fpl$fsub)
    __I$use$fp                               0x00007b38   Number         0  usenofp.o(x$fpl$usenofp)
    m_cHexAscii                              0x00007b38   Data          16  common.o(.constdata)
    FATS_TPL_BS1                             0x00007b48   Data          62  fats.o(.constdata)
    FATS_TPL_DIR1                            0x00007b86   Data          12  fats.o(.constdata)
    epC                                      0x00007b94   Data         280  trans.o(.constdata)
    msc_device_descriptor                    0x00007cdc   Data          24  msc_scsi.o(.constdata)
    inquiry_data                             0x00007cf4   Data          36  msc_scsi.o(.constdata)
    default_mode_page_data                   0x00007d18   Data          48  msc_scsi.o(.constdata)
    Region$$Table$$Base                      0x00007dc8   Number         0  anon$$obj.o(Region$$Table)
    Region$$Table$$Limit                     0x00007de8   Number         0  anon$$obj.o(Region$$Table)
    m_Conf                                   0x20000000   Data         256  common.o(.ARM.__AT_0x20000000)
    m_cCurrentState                          0x20000100   Data           4  common.o(.ARM.__AT_0x20000100)
    m_lProgAddr                              0x20000104   Data           4  common.o(.data)
    m_cFMV_MODEL_TYPE                        0x20000108   Data           1  common.o(.data)
    m_lImageAddr                             0x2000010c   Data           4  common.o(.data)
    m_lCheckSumIMGCode                       0x20000110   Data           4  common.o(.data)
    m_lCheckSumIMGConf                       0x20000114   Data           4  common.o(.data)
    m_lFWV                                   0x20000118   Data           8  common.o(.data)
    m_lConfFWV                               0x20000120   Data           8  common.o(.data)
    m_lCheckSumCode                          0x20000128   Data           4  common.o(.data)
    m_lCheckSumConf                          0x2000012c   Data           4  common.o(.data)
    DirEPtr                                  0x20000130   Data           4  common.o(.data)
    vMSGPtr                                  0x20000134   Data           2  common.o(.data)
    vTheMessage                              0x20000136   Data           4  common.o(.data)
    vEvePtr                                  0x2000013a   Data           1  common.o(.data)
    vTheEvent                                0x2000013c   Data           4  common.o(.data)
    m_cLast_USB_MSCD_MODE                    0x20000140   Data           1  common.o(.data)
    pMode                                    0x20000142   Data           2  common.o(.data)
    m_cCurrentSysTimeTick                    0x20000144   Data           1  common.o(.data)
    m_cSysTimeTick                           0x20000145   Data           1  common.o(.data)
    m_cUserAction                            0x20000146   Data           1  common.o(.data)
    m_cWaitKeyRelease                        0x20000147   Data           1  common.o(.data)
    m_iLedState                              0x20000148   Data           2  common.o(.data)
    m_USB_SUSPEND                            0x2000014a   Data           1  common.o(.data)
    m_USB_IRQHandler                         0x2000014b   Data           1  common.o(.data)
    m_USB_HostAdapter                        0x2000014c   Data           1  common.o(.data)
    m_cBDG_PING                              0x2000014d   Data           1  common.o(.data)
    m_lCounter                               0x20000150   Data           4  common.o(.data)
    m_cConfFMV_MODE_TYPE                     0x20000154   Data           1  common.o(.data)
    m_lImageVerify                           0x20000158   Data           4  common.o(.data)
    m_cByte                                  0x2000015c   Data           1  common.o(.data)
    device_descriptor                        0x20000178   Data           4  trans.o(.data)
    control_flag                             0x2000017c   Data           1  trans.o(.data)
    device_request                           0x2000017e   Data           8  trans.o(.data)
    ep_stat                                  0x20000186   Data           6  trans.o(.data)
    chk_remote_wakeup                        0x2000018c   Data           1  trans.o(.data)
    class_callback                           0x20000190   Data           4  trans.o(.data)
    clear_feature_callback                   0x20000194   Data           4  trans.o(.data)
    g_media_protect                          0x20000198   Data           4  upper.o(.data)
    g_media_status                           0x2000019c   Data           4  upper.o(.data)
    usb_buffer_chg                           0x200001a8   Data           1  msc_scsi.o(.data)
    req_stall                                0x200001a9   Data           1  msc_scsi.o(.data)
    SCSIEventFlag                            0x200001aa   Data           1  msc_scsi.o(.data)
    scsi_flag                                0x200001ab   Data           1  msc_scsi.o(.data)
    scsi_frmt_flag                           0x200001ac   Data           1  msc_scsi.o(.data)
    write_flag                               0x200001ad   Data           1  msc_scsi.o(.data)
    media_chg_event                          0x200001ae   Data           1  msc_scsi.o(.data)
    proc_lba                                 0x200001b0   Data           4  msc_scsi.o(.data)
    proc_block_length                        0x200001b4   Data           4  msc_scsi.o(.data)
    proc_trans_size                          0x200001b8   Data           4  msc_scsi.o(.data)
    proc_remainder                           0x200001bc   Data           4  msc_scsi.o(.data)
    proc_total_size                          0x200001c0   Data           4  msc_scsi.o(.data)
    frmt_block_num                           0x200001c4   Data           4  msc_scsi.o(.data)
    scsi_frmt_pattern_len                    0x200001c8   Data           4  msc_scsi.o(.data)
    mediaID                                  0x200001cc   Data           4  msc_scsi.o(.data)
    cbw_size                                 0x200001d0   Data           4  msc_scsi.o(.data)
    usb_buffer_mnger_b                       0x200001d4   Data           8  msc_scsi.o(.data)
    usb_buffer_mnger_l                       0x200001dc   Data           8  msc_scsi.o(.data)
    m_lTickSecond                            0x200001e4   Data           4  rtc.o(.data)
    s_cI2CAddr                               0x200001e8   Data           1  fixture.o(.data)
    s_ulTT                                   0x200001f4   Data           4  fixture.o(.data)
    s_fADC_ZERO_OFFSET_MV                    0x200001f8   Data           4  fixture.o(.data)
    fADC                                     0x200001fc   Data           4  fixture.o(.data)
    fCurrent                                 0x20000200   Data           4  fixture.o(.data)
    app_buffer                               0x20000204   Data        1024  common.o(.bss)
    m_cProgBuf                               0x20000604   Data        2048  common.o(.bss)
    vMessageQue                              0x20000e04   Data          40  common.o(.bss)
    vEventQue                                0x20000e2c   Data          20  common.o(.bss)
    epV                                      0x20000e5c   Data         112  trans.o(.bss)
    usb_status                               0x20000ecc   Data          12  trans.o(.bss)
    cont_buf                                 0x20000ed8   Data         512  usb_init.o(.bss)
    g_media_capacity                         0x200010d8   Data          24  upper.o(.bss)
    wrapper_buf                              0x200010f0   Data         512  spiflash_lower.o(.bss)
    current_mode_page_data                   0x200012f0   Data          48  msc_scsi.o(.bss)
    usb_buffer                               0x20001320   Data        1024  msc_scsi.o(.bss)
    cbw_buffer                               0x20001720   Data          32  msc_scsi.o(.bss)
    csw_buffer                               0x20001740   Data          16  msc_scsi.o(.bss)
    sense_data                               0x20001750   Data          18  msc_scsi.o(.bss)
    __libspace_start                         0x20001778   Data          96  libspace.o(.bss)
    __temporary_stack_top$libspace           0x200017d8   Data           0  libspace.o(.bss)



==============================================================================

Memory Map of the image

  Image Entry point : 0x000000c1

  Load Region LR_IROM1 (Base: 0x00000000, Size: 0x00007ee8, Max: 0x00008000, ABSOLUTE)

    Execution Region ER_IROM1 (Base: 0x00000000, Size: 0x00007de8, Max: 0x00008000, ABSOLUTE)

    Base Addr    Size         Type   Attr      Idx    E Section Name        Object

    0x00000000   0x000000c0   Data   RO         2820    RESET               startup_ml630q466.o
    0x000000c0   0x00000008   Code   RO         2884  * !!!main             c_p.l(__main.o)
    0x000000c8   0x0000003c   Code   RO         3081    !!!scatter          c_p.l(__scatter.o)
    0x00000104   0x0000001a   Code   RO         3083    !!handler_copy      c_p.l(__scatter_copy.o)
    0x0000011e   0x00000002   PAD
    0x00000120   0x0000001c   Code   RO         3085    !!handler_zi        c_p.l(__scatter_zi.o)
    0x0000013c   0x00000002   Code   RO         2948    .ARM.Collect$$libinit$$00000000  c_p.l(libinit.o)
    0x0000013e   0x00000000   Code   RO         2964    .ARM.Collect$$libinit$$00000002  c_p.l(libinit2.o)
    0x0000013e   0x00000000   Code   RO         2966    .ARM.Collect$$libinit$$00000004  c_p.l(libinit2.o)
    0x0000013e   0x00000000   Code   RO         2969    .ARM.Collect$$libinit$$0000000A  c_p.l(libinit2.o)
    0x0000013e   0x00000000   Code   RO         2971    .ARM.Collect$$libinit$$0000000C  c_p.l(libinit2.o)
    0x0000013e   0x00000000   Code   RO         2973    .ARM.Collect$$libinit$$0000000E  c_p.l(libinit2.o)
    0x0000013e   0x00000000   Code   RO         2976    .ARM.Collect$$libinit$$00000011  c_p.l(libinit2.o)
    0x0000013e   0x00000000   Code   RO         2978    .ARM.Collect$$libinit$$00000013  c_p.l(libinit2.o)
    0x0000013e   0x00000000   Code   RO         2980    .ARM.Collect$$libinit$$00000015  c_p.l(libinit2.o)
    0x0000013e   0x00000000   Code   RO         2982    .ARM.Collect$$libinit$$00000017  c_p.l(libinit2.o)
    0x0000013e   0x00000000   Code   RO         2984    .ARM.Collect$$libinit$$00000019  c_p.l(libinit2.o)
    0x0000013e   0x00000000   Code   RO         2986    .ARM.Collect$$libinit$$0000001B  c_p.l(libinit2.o)
    0x0000013e   0x00000000   Code   RO         2988    .ARM.Collect$$libinit$$0000001D  c_p.l(libinit2.o)
    0x0000013e   0x00000000   Code   RO         2990    .ARM.Collect$$libinit$$0000001F  c_p.l(libinit2.o)
    0x0000013e   0x00000000   Code   RO         2992    .ARM.Collect$$libinit$$00000021  c_p.l(libinit2.o)
    0x0000013e   0x00000000   Code   RO         2994    .ARM.Collect$$libinit$$00000023  c_p.l(libinit2.o)
    0x0000013e   0x00000000   Code   RO         2996    .ARM.Collect$$libinit$$00000025  c_p.l(libinit2.o)
    0x0000013e   0x00000000   Code   RO         3000    .ARM.Collect$$libinit$$0000002C  c_p.l(libinit2.o)
    0x0000013e   0x00000000   Code   RO         3002    .ARM.Collect$$libinit$$0000002E  c_p.l(libinit2.o)
    0x0000013e   0x00000000   Code   RO         3004    .ARM.Collect$$libinit$$00000030  c_p.l(libinit2.o)
    0x0000013e   0x00000000   Code   RO         3006    .ARM.Collect$$libinit$$00000032  c_p.l(libinit2.o)
    0x0000013e   0x00000002   Code   RO         3007    .ARM.Collect$$libinit$$00000033  c_p.l(libinit2.o)
    0x00000140   0x00000002   Code   RO         3038    .ARM.Collect$$libshutdown$$00000000  c_p.l(libshutdown.o)
    0x00000142   0x00000000   Code   RO         3064    .ARM.Collect$$libshutdown$$00000002  c_p.l(libshutdown2.o)
    0x00000142   0x00000000   Code   RO         3066    .ARM.Collect$$libshutdown$$00000004  c_p.l(libshutdown2.o)
    0x00000142   0x00000000   Code   RO         3069    .ARM.Collect$$libshutdown$$00000007  c_p.l(libshutdown2.o)
    0x00000142   0x00000000   Code   RO         3072    .ARM.Collect$$libshutdown$$0000000A  c_p.l(libshutdown2.o)
    0x00000142   0x00000000   Code   RO         3074    .ARM.Collect$$libshutdown$$0000000C  c_p.l(libshutdown2.o)
    0x00000142   0x00000000   Code   RO         3077    .ARM.Collect$$libshutdown$$0000000F  c_p.l(libshutdown2.o)
    0x00000142   0x00000002   Code   RO         3078    .ARM.Collect$$libshutdown$$00000010  c_p.l(libshutdown2.o)
    0x00000144   0x00000000   Code   RO         2905    .ARM.Collect$$rtentry$$00000000  c_p.l(__rtentry.o)
    0x00000144   0x00000000   Code   RO         2914    .ARM.Collect$$rtentry$$00000002  c_p.l(__rtentry2.o)
    0x00000144   0x00000006   Code   RO         2926    .ARM.Collect$$rtentry$$00000004  c_p.l(__rtentry4.o)
    0x0000014a   0x00000000   Code   RO         2916    .ARM.Collect$$rtentry$$00000009  c_p.l(__rtentry2.o)
    0x0000014a   0x00000004   Code   RO         2917    .ARM.Collect$$rtentry$$0000000A  c_p.l(__rtentry2.o)
    0x0000014e   0x00000000   Code   RO         2919    .ARM.Collect$$rtentry$$0000000C  c_p.l(__rtentry2.o)
    0x0000014e   0x00000008   Code   RO         2920    .ARM.Collect$$rtentry$$0000000D  c_p.l(__rtentry2.o)
    0x00000156   0x00000002   Code   RO         2955    .ARM.Collect$$rtexit$$00000000  c_p.l(rtexit.o)
    0x00000158   0x00000000   Code   RO         3011    .ARM.Collect$$rtexit$$00000002  c_p.l(rtexit2.o)
    0x00000158   0x00000004   Code   RO         3012    .ARM.Collect$$rtexit$$00000003  c_p.l(rtexit2.o)
    0x0000015c   0x00000006   Code   RO         3013    .ARM.Collect$$rtexit$$00000004  c_p.l(rtexit2.o)
    0x00000162   0x00000002   PAD
    0x00000164   0x00000038   Code   RO         2866    .emb_text           c_p.l(rt_memcpy.o)
    0x0000019c   0x00000038   Code   RO         2821    .text               startup_ml630q466.o
    0x000001d4   0x0000004c   Code   RO         2864    .text               c_p.l(strcpy.o)
    0x00000220   0x00000082   Code   RO         2867    .text               c_p.l(rt_memcpy.o)
    0x000002a2   0x00000012   Code   RO         2870    .text               c_p.l(aeabi_memset.o)
    0x000002b4   0x00000040   Code   RO         2872    .text               c_p.l(rt_memclr.o)
    0x000002f4   0x00000022   Code   RO         2874    .text               c_p.l(uread4.o)
    0x00000316   0x00000010   Code   RO         2876    .text               c_p.l(uwrite4.o)
    0x00000326   0x0000015a   Code   RO         2878    .text               c_p.l(aeabi_sdiv.o)
    0x00000480   0x00000006   Code   RO         2882    .text               c_p.l(heapauxi.o)
    0x00000486   0x00000002   PAD
    0x00000488   0x0000007c   Code   RO         2886    .text               fz_ps.l(d2f.o)
    0x00000504   0x00000448   Code   RO         2888    .text               fz_ps.l(ddiv.o)
    0x0000094c   0x00000248   Code   RO         2891    .text               fz_ps.l(dmul.o)
    0x00000b94   0x00000054   Code   RO         2893    .text               fz_ps.l(f2d.o)
    0x00000be8   0x0000005e   Code   RO         2901    .text               fz_ps.l(fflti.o)
    0x00000c46   0x00000002   PAD
    0x00000c48   0x00000064   Code   RO         2910    .text               fz_ps.l(fcmpin.o)
    0x00000cac   0x0000002e   Code   RO         2930    .text               fz_ps.l(cmpret.o)
    0x00000cda   0x00000002   PAD
    0x00000cdc   0x00000010   Code   RO         2932    .text               fz_ps.l(fnan2.o)
    0x00000cec   0x0000003e   Code   RO         2934    .text               c_p.l(sys_stackheap_outer.o)
    0x00000d2a   0x00000010   Code   RO         2937    .text               c_p.l(exit.o)
    0x00000d3a   0x0000005e   Code   RO         2949    .text               fz_ps.l(retnan.o)
    0x00000d98   0x00000008   Code   RO         2951    .text               c_p.l(libspace.o)
    0x00000da0   0x0000000c   Code   RO         3008    .text               c_p.l(sys_exit.o)
    0x00000dac   0x00000002   Code   RO         3027    .text               c_p.l(use_no_semi.o)
    0x00000dae   0x00000000   Code   RO         3029    .text               c_p.l(indicate_semi.o)
    0x00000dae   0x00000002   Code   RO          815    i.AES_IRQHandler    irq_vectorc.o
    0x00000db0   0x0000001c   Code   RO          301    i.BroadcastMessage  state.o
    0x00000dcc   0x00000018   Code   RO         2336    i.CHECK_IMG_CODE_FWV  fixture.o
    0x00000de4   0x00000038   Code   RO         2337    i.CHECK_IMG_CONF_FWV_SIG  fixture.o
    0x00000e1c   0x000000c0   Code   RO         2338    i.CHECK_LOGGER_CURRENT  fixture.o
    0x00000edc   0x00000002   Code   RO          816    i.CMP_IRQHandler    irq_vectorc.o
    0x00000ede   0x00000002   PAD
    0x00000ee0   0x0000003c   Code   RO          302    i.Check_SysTimeTick  state.o
    0x00000f1c   0x0000004c   Code   RO         1696    i.ChkCBW            msc_scsi.o
    0x00000f68   0x00000084   Code   RO         1697    i.ChkReadCBW        msc_scsi.o
    0x00000fec   0x00000002   Code   RO          817    i.DMAC0_IRQHandler  irq_vectorc.o
    0x00000fee   0x00000002   Code   RO          818    i.DMAC1_IRQHandler  irq_vectorc.o
    0x00000ff0   0x00000002   Code   RO          819    i.Default_Handler   irq_vectorc.o
    0x00000ff2   0x00000002   Code   RO          821    i.FTM0_IRQHandler   irq_vectorc.o
    0x00000ff4   0x00000002   Code   RO          822    i.FTM1_IRQHandler   irq_vectorc.o
    0x00000ff6   0x00000002   Code   RO          823    i.FTM2_IRQHandler   irq_vectorc.o
    0x00000ff8   0x00000002   Code   RO          824    i.FTM3_IRQHandler   irq_vectorc.o
    0x00000ffa   0x00000002   Code   RO          825    i.I2C1_IRQHandler   irq_vectorc.o
    0x00000ffc   0x00000002   Code   RO          826    i.I2CF0_IRQHandler  irq_vectorc.o
    0x00000ffe   0x00000002   Code   RO          827    i.LOSC_IRQHandler   irq_vectorc.o
    0x00001000   0x00000004   Data   RO          178    .ARM.__AT_0x00001000  common.o
    0x00001004   0x00000084   Code   RO         1698    i.ChkWriteCBW       msc_scsi.o
    0x00001088   0x00000068   Code   RO          820    i.EXI_IRQHandler    irq_vectorc.o
    0x000010f0   0x00000100   Code   RO         1159    i.EXT_int           intr.o
    0x000011f0   0x00000040   Code   RO         2023    i.EraseProgramApp   flash_drv.o
    0x00001230   0x0000004c   Code   RO         2024    i.EraseSector       flash_drv.o
    0x0000127c   0x00000090   Code   RO         1302    i.Exec_Request      trans.o
    0x0000130c   0x00000220   Code   RO          440    i.FATS_DIR_LPROG    fats.o
    0x0000152c   0x000000a8   Code   RO          441    i.FATS_FAT          fats.o
    0x000015d4   0x00000038   Code   RO          442    i.FATS_FAT_LPROG    fats.o
    0x0000160c   0x000000f0   Code   RO          443    i.FATS_StreamFileName  fats.o
    0x000016fc   0x00000068   Code   RO          444    i.FATS_StreamRead   fats.o
    0x00001764   0x000000f4   Code   RO          445    i.FATS_StreamWrite  fats.o
    0x00001858   0x00000088   Code   RO         2339    i.FIXTURE_ADC_ZERO_OFFSET  fixture.o
    0x000018e0   0x00000056   Code   RO         2340    i.FIXTURE_CHK_ERROR_NUM  fixture.o
    0x00001936   0x00000002   PAD
    0x00001938   0x00000038   Code   RO         2341    i.FIXTURE_I2C_CLOSE  fixture.o
    0x00001970   0x00000030   Code   RO         2342    i.FIXTURE_INIT      fixture.o
    0x000019a0   0x00000090   Code   RO         2343    i.FIXTURE_MAIN      fixture.o
    0x00001a30   0x00000058   Code   RO         2344    i.FIXTURE_SWD_CLOSE  fixture.o
    0x00001a88   0x0000005c   Code   RO         2345    i.FIXTURE_SWD_OPEN_MCU_RESET  fixture.o
    0x00001ae4   0x00000054   Code   RO         2346    i.FIXTURE_SWD_OPEN_MCU_RUN  fixture.o
    0x00001b38   0x0000005c   Code   RO         2347    i.FIXTURE_USB_CLOSE  fixture.o
    0x00001b94   0x00000028   Code   RO         2348    i.FIXTURE_WAIT_DOOR_OPEN  fixture.o
    0x00001bbc   0x0000000c   Code   RO         2025    i.FlashInit         flash_drv.o
    0x00001bc8   0x0000014c   Code   RO         2349    i.GET_MCP3421_ADDRESS  fixture.o
    0x00001d14   0x00000020   Code   RO         1045    i.G_ONLY            keyledvbus.o
    0x00001d34   0x00000034   Code   RO          303    i.GetEvent          state.o
    0x00001d68   0x00000038   Code   RO          304    i.GetMessage        state.o
    0x00001da0   0x00000124   Code   RO          169    i.ImageVerify_ChecksumCalc  common.o
    0x00001ec4   0x00000098   Code   RO         2190    i.JTAG_to_SWD_Sequence  dap.o
    0x00001f5c   0x0000002c   Code   RO         1046    i.Key_PostRelease   keyledvbus.o
    0x00001f88   0x000000b8   Code   RO         1048    i.Key_task          keyledvbus.o
    0x00002040   0x00000028   Code   RO          828    i.LTBC_IRQHandler   irq_vectorc.o
    0x00002068   0x0000001c   Code   RO         1049    i.Led_reset         keyledvbus.o
    0x00002084   0x000002d0   Code   RO         1051    i.Led_task          keyledvbus.o
    0x00002354   0x00000028   Code   RO         1699    i.MakeSenseData     msc_scsi.o
    0x0000237c   0x000001b4   Code   RO         2352    i.MeasureCurrent    fixture.o
    0x00002530   0x00000008   Code   RO         1469    i.MediaCapacity     upper.o
    0x00002538   0x00000014   Code   RO         1470    i.MediaChange       upper.o
    0x0000254c   0x00000008   Code   RO         1471    i.MediaCheck        upper.o
    0x00002554   0x00000008   Code   RO         1472    i.MediaGetID        upper.o
    0x0000255c   0x00000008   Code   RO         1473    i.MediaInitialize   upper.o
    0x00002564   0x00000008   Code   RO         1474    i.MediaRead         upper.o
    0x0000256c   0x00000008   Code   RO         1475    i.MediaStatus       upper.o
    0x00002574   0x00000008   Code   RO         1476    i.MediaVerify       upper.o
    0x0000257c   0x00000008   Code   RO         1477    i.MediaWrite        upper.o
    0x00002584   0x00000002   Code   RO          829    i.NMI_Handler       irq_vectorc.o
    0x00002586   0x00000002   PAD
    0x00002588   0x00000018   Code   RO          401    i.NVIC_ClearPendingIRQ  usb_mscd.o
    0x000025a0   0x00000018   Code   RO          830    i.NVIC_ClearPendingIRQ  irq_vectorc.o
    0x000025b8   0x00000018   Code   RO          402    i.NVIC_EnableIRQ    usb_mscd.o
    0x000025d0   0x00000028   Code   RO         2353    i.PROGRAM_ON_OFF    fixture.o
    0x000025f8   0x0000008c   Code   RO          172    i.Peripheral_Initial  common.o
    0x00002684   0x00000028   Code   RO          305    i.PostEvent         state.o
    0x000026ac   0x00000030   Code   RO          306    i.PostMessage       state.o
    0x000026dc   0x00000064   Code   RO         2027    i.ProgramImage      flash_drv.o
    0x00002740   0x00000040   Code   RO         2028    i.ProgramPage       flash_drv.o
    0x00002780   0x00000002   Code   RO          831    i.RAD_IRQHandler    irq_vectorc.o
    0x00002782   0x0000000e   Code   RO          832    i.RTC_IRQHandler    irq_vectorc.o
    0x00002790   0x00000020   Code   RO         1052    i.R_ONLY            keyledvbus.o
    0x000027b0   0x0000003c   Code   RO         2029    i.ReadPage          flash_drv.o
    0x000027ec   0x00000002   Code   RO          833    i.SAD_IRQHandler    irq_vectorc.o
    0x000027ee   0x00000002   PAD
    0x000027f0   0x00000180   Code   RO         1700    i.SCSICommandRequest  msc_scsi.o
    0x00002970   0x000004bc   Code   RO         1701    i.SCSIEventProc     msc_scsi.o
    0x00002e2c   0x0000013c   Code   RO         1702    i.SCSIFormatUnit    msc_scsi.o
    0x00002f68   0x0000009c   Code   RO         1704    i.SCSIInitialize    msc_scsi.o
    0x00003004   0x00000124   Code   RO         1705    i.SCSIInquiry       msc_scsi.o
    0x00003128   0x00000194   Code   RO         1706    i.SCSIModeSense     msc_scsi.o
    0x000032bc   0x00000078   Code   RO         1707    i.SCSIPreventAllowMediumRemoval  msc_scsi.o
    0x00003334   0x000001e4   Code   RO         1708    i.SCSIRead          msc_scsi.o
    0x00003518   0x00000194   Code   RO         1709    i.SCSIReadCapacity  msc_scsi.o
    0x000036ac   0x00000114   Code   RO         1710    i.SCSIRequestSense  msc_scsi.o
    0x000037c0   0x0000008c   Code   RO         1711    i.SCSISendDiagnostic  msc_scsi.o
    0x0000384c   0x00000090   Code   RO         1712    i.SCSIStartStopUnit  msc_scsi.o
    0x000038dc   0x0000007c   Code   RO         1713    i.SCSITestUnitReady  msc_scsi.o
    0x00003958   0x0000016c   Code   RO         1714    i.SCSIVerify10      msc_scsi.o
    0x00003ac4   0x000001e0   Code   RO         1715    i.SCSIWrite         msc_scsi.o
    0x00003ca4   0x00000002   Code   RO          834    i.SIO0_IRQHandler   irq_vectorc.o
    0x00003ca6   0x00000008   Code   RO          835    i.SIOF0_IRQHandler  irq_vectorc.o
    0x00003cae   0x00000002   PAD
    0x00003cb0   0x00000318   Code   RO         2354    i.STM32_FlashHalfPageProg  fixture.o
    0x00003fc8   0x000000c0   Code   RO         2355    i.STM32_FlashMassErase  fixture.o
    0x00004088   0x000000c8   Code   RO         2356    i.STM32_FlashProg   fixture.o
    0x00004150   0x00000b10   Code   RO         2357    i.STM32_FlashVerify  fixture.o
    0x00004c60   0x000000f0   Code   RO         2364    i.STM32_MCU_RESTART_HALT  fixture.o
    0x00004d50   0x00000064   Code   RO         2367    i.STM32_OptionByteProg  fixture.o
    0x00004db4   0x00000044   Code   RO         2368    i.STM32_UnlockNVM   fixture.o
    0x00004df8   0x00000070   Code   RO         2369    i.STM32_Unlock_OPTLOCK  fixture.o
    0x00004e68   0x00000054   Code   RO         2370    i.STM32_Unlock_PELOCK  fixture.o
    0x00004ebc   0x00000070   Code   RO         2371    i.STM32_Unlock_PRGLOCK  fixture.o
    0x00004f2c   0x0000006c   Code   RO         2372    i.STM32_WAIT_FLASH_SR_BSY  fixture.o
    0x00004f98   0x0000002a   Code   RO          308    i.ST_PWR_UP_LED_PATTERN  state.o
    0x00004fc2   0x00000002   PAD
    0x00004fc4   0x00000060   Code   RO         2373    i.SUB_CHECK_FWV     fixture.o
    0x00005024   0x0000001e   Code   RO         2191    i.SWD_CLEAR_BIT     dap.o
    0x00005042   0x00000014   Code   RO         2193    i.SWD_READ_BIT      dap.o
    0x00005056   0x0000001e   Code   RO         2194    i.SWD_SET_BIT       dap.o
    0x00005074   0x00000014   Code   RO         1576    i.SpiFlashCapacity  spiflash_lower.o
    0x00005088   0x00000048   Code   RO         1577    i.SpiFlashCheck     spiflash_lower.o
    0x000050d0   0x0000000c   Code   RO         1578    i.SpiFlashGetID     spiflash_lower.o
    0x000050dc   0x00000014   Code   RO         1579    i.SpiFlashInitialize  spiflash_lower.o
    0x000050f0   0x00000010   Code   RO         1581    i.SpiFlashStatus    spiflash_lower.o
    0x00005100   0x00000040   Code   RO         1582    i.SpiFlashVerify    spiflash_lower.o
    0x00005140   0x00000294   Code   RO          309    i.StateManager      state.o
    0x000053d4   0x000000d0   Code   RO          446    i.StreamRead        fats.o
    0x000054a4   0x0000013c   Code   RO          447    i.StreamWrite       fats.o
    0x000055e0   0x00000002   Code   RO         2828    i.SystemInit        system_ml630q466.o
    0x000055e2   0x00000002   Code   RO          836    i.TM0_IRQHandler    irq_vectorc.o
    0x000055e4   0x00000002   Code   RO          837    i.TM1K_IRQHandler   irq_vectorc.o
    0x000055e6   0x00000002   Code   RO          838    i.TM1_IRQHandler    irq_vectorc.o
    0x000055e8   0x00000002   Code   RO          839    i.TM2_IRQHandler    irq_vectorc.o
    0x000055ea   0x00000002   Code   RO          840    i.TM3_IRQHandler    irq_vectorc.o
    0x000055ec   0x00000002   Code   RO          841    i.TM4_IRQHandler    irq_vectorc.o
    0x000055ee   0x00000002   Code   RO          842    i.TM5_IRQHandler    irq_vectorc.o
    0x000055f0   0x00000002   Code   RO          843    i.TM6_IRQHandler    irq_vectorc.o
    0x000055f2   0x00000002   Code   RO          844    i.TM7_IRQHandler    irq_vectorc.o
    0x000055f4   0x00000020   Code   RO         1053    i.TurnOffAllLED     keyledvbus.o
    0x00005614   0x00000020   Code   RO         1054    i.TurnOnAllLED      keyledvbus.o
    0x00005634   0x00000002   Code   RO          845    i.UA0_IRQHandler    irq_vectorc.o
    0x00005636   0x00000002   Code   RO          846    i.UAF0_IRQHandler   irq_vectorc.o
    0x00005638   0x00000008   Code   RO          847    i.USB_IRQHandler    irq_vectorc.o
    0x00005640   0x00000088   Code   RO          403    i.USB_MSCD_MAIN     usb_mscd.o
    0x000056c8   0x00000002   Code   RO          848    i.VLS_IRQHandler    irq_vectorc.o
    0x000056ca   0x00000002   PAD
    0x000056cc   0x00000044   Code   RO         2195    i.WRITE_BIT0_4      dap.o
    0x00005710   0x00000020   Code   RO          174    i.Wait_128Hz        common.o
    0x00005730   0x00000020   Code   RO          175    i.Wait_RAW_128Hz    common.o
    0x00005750   0x00000020   Code   RO         1055    i.Y_ONLY            keyledvbus.o
    0x00005770   0x0000001a   Code   RO          365    i.__ARM_common_switch8  state.o
    0x0000578a   0x00000002   PAD
    0x0000578c   0x00000028   Code   RO         1716    i.cbf_bulk_rx       msc_scsi.o
    0x000057b4   0x00000028   Code   RO         1717    i.cbf_bulk_rx_cbw   msc_scsi.o
    0x000057dc   0x0000005c   Code   RO         1718    i.cbf_bulk_tx       msc_scsi.o
    0x00005838   0x00000038   Code   RO         1719    i.cbf_bulk_tx_csw   msc_scsi.o
    0x00005870   0x00000018   Code   RO         1720    i.cbf_bulk_tx_read  msc_scsi.o
    0x00005888   0x00000002   Code   RO         1721    i.cbf_dmy           msc_scsi.o
    0x0000588a   0x00000012   Code   RO         1722    i.change_big_endian_l  msc_scsi.o
    0x0000589c   0x00000024   Code   RO         1191    i.class_func        req_clss.o
    0x000058c0   0x0000001c   Code   RO         1940    i.clk_disHsclk      clock_drv.o
    0x000058dc   0x00000064   Code   RO         1942    i.clk_setHsPll24Mhz  clock_drv.o
    0x00005940   0x00000028   Code   RO         1944    i.clk_setLsCrystal32Khz  clock_drv.o
    0x00005968   0x00000078   Code   RO         2605    i.connectToTarget   utils.o
    0x000059e0   0x00000038   Code   RO         2198    i.delayMs           dap.o
    0x00005a18   0x00000002   Code   RO         1442    i.dummy_cbf         usb_init.o
    0x00005a1a   0x00000002   Code   RO         1443    i.dummy_cbf_reset   usb_init.o
    0x00005a1c   0x0000006a   Code   RO          448    i.fFatTime2Rtc      fats.o
    0x00005a86   0x00000064   Code   RO          449    i.fRtc2FatTime      fats.o
    0x00005aea   0x00000002   PAD
    0x00005aec   0x000000c4   Code   RO         1224    i.func_Clear_Feature  request.o
    0x00005bb0   0x00000054   Code   RO         1225    i.func_Get_Configuration  request.o
    0x00005c04   0x0000011c   Code   RO         1226    i.func_Get_Descriptor  request.o
    0x00005d20   0x0000006c   Code   RO         1227    i.func_Get_Interface  request.o
    0x00005d8c   0x0000010c   Code   RO         1228    i.func_Get_Status   request.o
    0x00005e98   0x00000044   Code   RO         1229    i.func_Set_Address  request.o
    0x00005edc   0x000000f8   Code   RO         1230    i.func_Set_Configuration  request.o
    0x00005fd4   0x00000010   Code   RO         1231    i.func_Set_Descriptor  request.o
    0x00005fe4   0x00000098   Code   RO         1232    i.func_Set_Feature  request.o
    0x0000607c   0x00000154   Code   RO         1233    i.func_Set_Interface  request.o
    0x000061d0   0x00000010   Code   RO         1234    i.func_Synch_Frame  request.o
    0x000061e0   0x0000005c   Code   RO         2608    i.haltTarget        utils.o
    0x0000623c   0x00000034   Code   RO         2374    i.i2Fn_WaitMCF      fixture.o
    0x00006270   0x0000009c   Code   RO         2375    i.i2cReadBytes      fixture.o
    0x0000630c   0x0000002c   Code   RO         2376    i.i2cWrite1Byte     fixture.o
    0x00006338   0x00000054   Code   RO         2377    i.i2cWriteBusAddress  fixture.o
    0x0000638c   0x00000050   Code   RO         2200    i.initDp            dap.o
    0x000063dc   0x00000050   Code   RO          518    i.irq_ext0_init     irq.o
    0x0000642c   0x00000058   Code   RO          520    i.irq_ext2_init     irq.o
    0x00006484   0x000000f4   Code   RO         1056    i.keyled_init       keyledvbus.o
    0x00006578   0x00000010   Code   RO          582    i.lp_setHaltMode    lp_manage.o
    0x00006588   0x0000004c   Code   RO            3    i.main              main.o
    0x000065d4   0x00000048   Code   RO         1724    i.make_format_data  msc_scsi.o
    0x0000661c   0x000000c4   Code   RO         1725    i.make_mode_page    msc_scsi.o
    0x000066e0   0x00000064   Code   RO         1726    i.mass_bulk_only_func  msc_scsi.o
    0x00006744   0x00000020   Code   RO         1727    i.memcmp            msc_scsi.o
    0x00006764   0x00000012   Code   RO         1728    i.memcpy            msc_scsi.o
    0x00006776   0x00000012   Code   RO         1729    i.memcpy_dc         msc_scsi.o
    0x00006788   0x0000000e   Code   RO         1730    i.memset            msc_scsi.o
    0x00006796   0x00000002   PAD
    0x00006798   0x00000060   Code   RO         1731    i.msc_clear_feature  msc_scsi.o
    0x000067f8   0x0000001e   Code   RO         2201    i.readAP            dap.o
    0x00006816   0x00000032   Code   RO         2202    i.readApId          dap.o
    0x00006848   0x0000001e   Code   RO         2203    i.readDP            dap.o
    0x00006866   0x00000026   Code   RO         2610    i.readMem           utils.o
    0x0000688c   0x000001b4   Code   RO         2204    i.readReg           dap.o
    0x00006a40   0x0000009c   Code   RO         1303    i.read_Device_Requests  trans.o
    0x00006adc   0x00000094   Code   RO         1304    i.read_FIFO         trans.o
    0x00006b70   0x0000000e   Code   RO         1305    i.read_fifo         trans.o
    0x00006b7e   0x00000002   PAD
    0x00006b80   0x00000038   Code   RO         2098    i.rtc_GetRealTime   rtc.o
    0x00006bb8   0x0000000c   Code   RO         2099    i.rtc_GetSecondsElapsed  rtc.o
    0x00006bc4   0x0000000c   Code   RO         2100    i.rtc_GetTickSecond  rtc.o
    0x00006bd0   0x0000001c   Code   RO         2102    i.rtc_Interrupt     rtc.o
    0x00006bec   0x0000000c   Code   RO         2104    i.rtc_SetTickSecond  rtc.o
    0x00006bf8   0x000000c4   Code   RO         2105    i.rtc_StartRealTime  rtc.o
    0x00006cbc   0x00000024   Code   RO         2106    i.rtc_StopRealTime  rtc.o
    0x00006ce0   0x0000001c   Code   RO          708    i.s_ssiof_readSingleData_16  ssiof0.o
    0x00006cfc   0x0000001c   Code   RO          709    i.s_ssiof_readSingleData_8  ssiof0.o
    0x00006d18   0x00000014   Code   RO          710    i.s_ssiof_writeDummyData_16  ssiof0.o
    0x00006d2c   0x00000014   Code   RO          711    i.s_ssiof_writeDummyData_8  ssiof0.o
    0x00006d40   0x00000020   Code   RO          712    i.s_ssiof_writeSingleData_16  ssiof0.o
    0x00006d60   0x00000020   Code   RO          713    i.s_ssiof_writeSingleData_8  ssiof0.o
    0x00006d80   0x0000001c   Code   RO         1732    i.set_stall_rx      msc_scsi.o
    0x00006d9c   0x00000002   Code   RO          631    i.spiFlash_init     spiflash_drv.o
    0x00006d9e   0x00000002   Code   RO          632    i.spiFlash_read     spiflash_drv.o
    0x00006da0   0x00000070   Code   RO         2700    i.ssioFlash_ProgramImage  ssioflash.o
    0x00006e10   0x00000058   Code   RO         2701    i.ssioFlash_erase   ssioflash.o
    0x00006e68   0x0000000c   Code   RO         2704    i.ssioFlash_erasePage4K  ssioflash.o
    0x00006e74   0x000000a4   Code   RO         2706    i.ssioFlash_exit    ssioflash.o
    0x00006f18   0x00000010   Code   RO         2707    i.ssioFlash_exit_CY32K  ssioflash.o
    0x00006f28   0x000000c4   Code   RO         2708    i.ssioFlash_init    ssioflash.o
    0x00006fec   0x0000000e   Code   RO         2709    i.ssioFlash_init_24Mhz  ssioflash.o
    0x00006ffa   0x00000002   PAD
    0x00006ffc   0x00000044   Code   RO         2710    i.ssioFlash_read    ssioflash.o
    0x00007040   0x00000064   Code   RO         2711    i.ssioFlash_write   ssioflash.o
    0x000070a4   0x00000038   Code   RO         2712    i.ssio_rdsr         ssioflash.o
    0x000070dc   0x00000034   Code   RO         2713    i.ssio_read         ssioflash.o
    0x00007110   0x00000012   Code   RO         2714    i.ssio_wait_write   ssioflash.o
    0x00007122   0x00000002   PAD
    0x00007124   0x00000028   Code   RO         2715    i.ssio_write        ssioflash.o
    0x0000714c   0x0000002c   Code   RO         2716    i.ssio_wrsr         ssioflash.o
    0x00007178   0x000001a0   Code   RO          715    i.ssiof0_continue   ssiof0.o
    0x00007318   0x00000014   Code   RO         1946    i.sys_disablePeripheral  clock_drv.o
    0x0000732c   0x00000014   Code   RO         1947    i.sys_enablePeripheral  clock_drv.o
    0x00007340   0x00000030   Code   RO          792    i.tbc_Init          tbc.o
    0x00007370   0x00000054   Code   RO         1733    i.tx_CSW            msc_scsi.o
    0x000073c4   0x0000000c   Code   RO         1360    i.usb_class_callback  usb_api.o
    0x000073d0   0x0000000c   Code   RO         1361    i.usb_clear_feature_callback  usb_api.o
    0x000073dc   0x000000bc   Code   RO         1444    i.usb_init          usb_init.o
    0x00007498   0x00000034   Code   RO         1362    i.usb_int_disable   usb_api.o
    0x000074cc   0x00000030   Code   RO         1366    i.usb_remote_wakeup  usb_api.o
    0x000074fc   0x00000030   Code   RO         1367    i.usb_rx_start      usb_api.o
    0x0000752c   0x00000010   Code   RO         1368    i.usb_set_callback  usb_api.o
    0x0000753c   0x00000040   Code   RO         1369    i.usb_tx_start      usb_api.o
    0x0000757c   0x00000014   Code   RO          177    i.usbmsc_media_protect  common.o
    0x00007590   0x00000044   Code   RO         1058    i.vbus_init         keyledvbus.o
    0x000075d4   0x00000028   Code   RO         1206    i.vendor_func       req_vend.o
    0x000075fc   0x00000018   Code   RO          772    i.wdt_clear         wdt.o
    0x00007614   0x00000020   Code   RO         2206    i.writeAP           dap.o
    0x00007634   0x00000020   Code   RO         2207    i.writeDP           dap.o
    0x00007654   0x0000001a   Code   RO         2618    i.writeMem          utils.o
    0x0000766e   0x00000002   PAD
    0x00007670   0x000001dc   Code   RO         2209    i.writeReg          dap.o
    0x0000784c   0x0000010c   Code   RO         1306    i.write_FIFO        trans.o
    0x00007958   0x00000020   Code   RO         1307    i.write_fifo        trans.o
    0x00007978   0x00000010   Code   RO         1591    i.xxMediaRead       spiflash_lower.o
    0x00007988   0x0000008c   Code   RO         2895    x$fpl$fadd          fz_ps.l(faddsub.o)
    0x00007a14   0x00000054   Code   RO         2903    x$fpl$fleqf         fz_ps.l(flef.o)
    0x00007a68   0x000000d0   Code   RO         2897    x$fpl$fsub          fz_ps.l(faddsub.o)
    0x00007b38   0x00000000   Code   RO         2912    x$fpl$usenofp       fz_ps.l(usenofp.o)
    0x00007b38   0x00000010   Data   RO          186    .constdata          common.o
    0x00007b48   0x0000004a   Data   RO          450    .constdata          fats.o
    0x00007b92   0x00000002   PAD
    0x00007b94   0x00000118   Data   RO         1309    .constdata          trans.o
    0x00007cac   0x00000010   Data   RO         1735    .constdata          msc_scsi.o
    0x00007cbc   0x00000010   Data   RO         1736    .constdata          msc_scsi.o
    0x00007ccc   0x00000010   Data   RO         1737    .constdata          msc_scsi.o
    0x00007cdc   0x0000006c   Data   RO         1738    .constdata          msc_scsi.o
    0x00007d48   0x00000080   Data   RO         2889    .constdata          fz_ps.l(ddiv.o)
    0x00007dc8   0x00000020   Data   RO         3079    Region$$Table       anon$$obj.o


    Execution Region RW_IRAM1 (Base: 0x20000104, Size: 0x00003ad4, Max: 0x00003efc, ABSOLUTE)

    Base Addr    Size         Type   Attr      Idx    E Section Name        Object

    0x20000104   0x00000004   Data   RW          189    .data               common.o
    0x20000108   0x00000020   Data   RW          190    .data               common.o
    0x20000128   0x00000004   Data   RW          192    .data               common.o
    0x2000012c   0x00000004   Data   RW          193    .data               common.o
    0x20000130   0x00000004   Data   RW          194    .data               common.o
    0x20000134   0x00000002   Data   RW          195    .data               common.o
    0x20000136   0x00000004   Data   RW          196    .data               common.o
    0x2000013a   0x00000001   Data   RW          197    .data               common.o
    0x2000013b   0x00000001   PAD
    0x2000013c   0x00000004   Data   RW          198    .data               common.o
    0x20000140   0x00000001   Data   RW          199    .data               common.o
    0x20000141   0x00000001   PAD
    0x20000142   0x00000002   Data   RW          200    .data               common.o
    0x20000144   0x00000001   Data   RW          201    .data               common.o
    0x20000145   0x00000001   Data   RW          202    .data               common.o
    0x20000146   0x00000001   Data   RW          203    .data               common.o
    0x20000147   0x00000001   Data   RW          204    .data               common.o
    0x20000148   0x00000002   Data   RW          205    .data               common.o
    0x2000014a   0x00000001   Data   RW          207    .data               common.o
    0x2000014b   0x00000001   Data   RW          208    .data               common.o
    0x2000014c   0x00000001   Data   RW          209    .data               common.o
    0x2000014d   0x00000001   Data   RW          210    .data               common.o
    0x2000014e   0x00000002   PAD
    0x20000150   0x00000004   Data   RW          211    .data               common.o
    0x20000154   0x00000001   Data   RW          213    .data               common.o
    0x20000155   0x00000003   PAD
    0x20000158   0x00000004   Data   RW          215    .data               common.o
    0x2000015c   0x00000001   Data   RW          216    .data               common.o
    0x2000015d   0x00000003   PAD
    0x20000160   0x00000004   Data   RW          310    .data               state.o
    0x20000164   0x0000000c   Data   RW          451    .data               fats.o
    0x20000170   0x00000008   Data   RW         1060    .data               keyledvbus.o
    0x20000178   0x00000004   Data   RW         1310    .data               trans.o
    0x2000017c   0x0000000a   Data   RW         1311    .data               trans.o
    0x20000186   0x00000006   Data   RW         1312    .data               trans.o
    0x2000018c   0x00000001   Data   RW         1315    .data               trans.o
    0x2000018d   0x00000003   PAD
    0x20000190   0x00000004   Data   RW         1316    .data               trans.o
    0x20000194   0x00000004   Data   RW         1317    .data               trans.o
    0x20000198   0x00000004   Data   RW         1481    .data               upper.o
    0x2000019c   0x00000004   Data   RW         1482    .data               upper.o
    0x200001a0   0x00000008   Data   RW         1739    .data               msc_scsi.o
    0x200001a8   0x0000003c   Data   RW         1740    .data               msc_scsi.o
    0x200001e4   0x00000004   Data   RW         2110    .data               rtc.o
    0x200001e8   0x0000001c   Data   RW         2380    .data               fixture.o
    0x20000204   0x00000400   Zero   RW          181    .bss                common.o
    0x20000604   0x00000800   Zero   RW          182    .bss                common.o
    0x20000e04   0x00000028   Zero   RW          183    .bss                common.o
    0x20000e2c   0x00000014   Zero   RW          184    .bss                common.o
    0x20000e40   0x0000001c   Zero   RW          717    .bss                ssiof0.o
    0x20000e5c   0x0000007c   Zero   RW         1308    .bss                trans.o
    0x20000ed8   0x00000200   Zero   RW         1445    .bss                usb_init.o
    0x200010d8   0x00000018   Zero   RW         1480    .bss                upper.o
    0x200010f0   0x00000200   Zero   RW         1593    .bss                spiflash_lower.o
    0x200012f0   0x00000472   Zero   RW         1734    .bss                msc_scsi.o
    0x20001762   0x00000002   PAD
    0x20001764   0x00000014   Zero   RW         2378    .bss                fixture.o
    0x20001778   0x00000060   Zero   RW         2952    .bss                c_p.l(libspace.o)
    0x200017d8   0x00002000   Zero   RW         2819    HEAP                startup_ml630q466.o
    0x200037d8   0x00000400   Zero   RW         2818    STACK               startup_ml630q466.o



  Load Region LR$$.ARM.__AT_0x20000000 (Base: 0x20000000, Size: 0x00000000, Max: 0x00000100, ABSOLUTE)

    Execution Region ER$$.ARM.__AT_0x20000000 (Base: 0x20000000, Size: 0x00000100, Max: 0x00000100, ABSOLUTE, UNINIT)

    Base Addr    Size         Type   Attr      Idx    E Section Name        Object

    0x20000000   0x00000100   Zero   RW          179    .ARM.__AT_0x20000000  common.o



  Load Region LR$$.ARM.__AT_0x20000100 (Base: 0x20000100, Size: 0x00000000, Max: 0x00000004, ABSOLUTE)

    Execution Region ER$$.ARM.__AT_0x20000100 (Base: 0x20000100, Size: 0x00000004, Max: 0x00000004, ABSOLUTE, UNINIT)

    Base Addr    Size         Type   Attr      Idx    E Section Name        Object

    0x20000100   0x00000004   Zero   RW          180    .ARM.__AT_0x20000100  common.o


==============================================================================

Image component sizes


      Code (inc. data)   RO Data    RW Data    ZI Data      Debug   Object Name

       208         28          0          0          0       2434   clock_drv.o
       516         54         20         82       3392       5325   common.o
      1522         30          0          0          0      10160   dap.o
         0          0          0          0          0       5076   descript.o
      2086        290         74         12          0       8754   fats.o
      7218        328          0         28         20      24159   fixture.o
       376         34          0          0          0       4904   flash_drv.o
       256         28          0          0          0       4874   intr.o
       168         24          0          0          0       1960   irq.o
       254         36          0          0          0      20853   irq_vectorc.o
      1448        124          0          8          0       6356   keyledvbus.o
        16          6          0          0          0        413   lp_manage.o
        76         18          0          0          0      35937   main.o
      6610        508        156         68       1138      31106   msc_scsi.o
        36         10          0          0          0       8929   req_clss.o
        40         14          0          0          0        875   req_vend.o
      1780        184          0          0          0       9920   request.o
       352         56          0          4          0      11686   rtc.o
         4          0          0          0          0        960   spiflash_drv.o
       220         44          0          0        512       7386   spiflash_lower.o
       576         72          0          0         28       5650   ssiof0.o
       980         64          0          0          0       8235   ssioflash.o
        56         26        192          0       9216        612   startup_ml630q466.o
      1012        124          0          4          0       5020   state.o
         2          0          0          0          0        409   system_ml630q466.o
        48         16          0          0          0       7015   tbc.o
       762         82        280         29        124       5838   trans.o
        84          4          0          8         24       7585   upper.o
       252         68          0          0          0       4197   usb_api.o
       192         46          0          0        512       2058   usb_init.o
       184         36          0          0          0       7852   usb_mscd.o
       276         16          0          0          0       3048   utils.o
        24          6          0          0          0        400   wdt.o

    ----------------------------------------------------------------------
     27662       2376        756        256      14968     259986   Object Totals
         0          0         32          0          0          0   (incl. Generated)
        28          0          2         13          2          0   (incl. Padding)

    ----------------------------------------------------------------------

      Code (inc. data)   RO Data    RW Data    ZI Data      Debug   Library Member Name

         8          0          0          0          0         68   __main.o
         0          0          0          0          0          0   __rtentry.o
        12          0          0          0          0          0   __rtentry2.o
         6          0          0          0          0          0   __rtentry4.o
        60          8          0          0          0          0   __scatter.o
        26          0          0          0          0          0   __scatter_copy.o
        28          0          0          0          0          0   __scatter_zi.o
        18          0          0          0          0         68   aeabi_memset.o
       346          0          0          0          0         92   aeabi_sdiv.o
        16          0          0          0          0         68   exit.o
         6          0          0          0          0        136   heapauxi.o
         0          0          0          0          0          0   indicate_semi.o
         2          0          0          0          0          0   libinit.o
         2          0          0          0          0          0   libinit2.o
         2          0          0          0          0          0   libshutdown.o
         2          0          0          0          0          0   libshutdown2.o
         8          4          0          0         96         68   libspace.o
        64          0          0          0          0        108   rt_memclr.o
       186          0          0          0          0        144   rt_memcpy.o
         2          0          0          0          0          0   rtexit.o
        10          0          0          0          0          0   rtexit2.o
        76          6          0          0          0         72   strcpy.o
        12          4          0          0          0         60   sys_exit.o
        62          0          0          0          0         80   sys_stackheap_outer.o
        34          0          0          0          0         60   uread4.o
         2          0          0          0          0         68   use_no_semi.o
        16          0          0          0          0         60   uwrite4.o
        46          0          0          0          0         60   cmpret.o
       124          4          0          0          0         72   d2f.o
      1096         26        128          0          0        112   ddiv.o
       584         26          0          0          0         84   dmul.o
        84          4          0          0          0         60   f2d.o
       348          8          0          0          0        160   faddsub.o
       100          4          0          0          0         68   fcmpin.o
        94          0          0          0          0         92   fflti.o
        84          4          0          0          0         76   flef.o
        16          6          0          0          0         68   fnan2.o
        94          0          0          0          0         68   retnan.o
         0          0          0          0          0          0   usenofp.o

    ----------------------------------------------------------------------
      3686        104        128          0         96       2072   Library Totals
        10          0          0          0          0          0   (incl. Padding)

    ----------------------------------------------------------------------

      Code (inc. data)   RO Data    RW Data    ZI Data      Debug   Library Name

      1006         22          0          0         96       1152   c_p.l
      2670         82        128          0          0        920   fz_ps.l

    ----------------------------------------------------------------------
      3686        104        128          0         96       2072   Library Totals

    ----------------------------------------------------------------------

==============================================================================


      Code (inc. data)   RO Data    RW Data    ZI Data      Debug   

     31348       2480        884        256      15064     250178   Grand Totals
     31348       2480        884        256      15064     250178   ELF Image Totals
     31348       2480        884        256          0          0   ROM Totals

==============================================================================

    Total RO  Size (Code + RO Data)                32232 (  31.48kB)
    Total RW  Size (RW Data + ZI Data)             15320 (  14.96kB)
    Total ROM Size (Code + RO Data + RW Data)      32488 (  31.73kB)

==============================================================================

