


ARM Macro Assembler    Page 1 


    1 00000000         ;/******************************************************
                       ********************//**
    2 00000000         ; * @file     startup_ML630Q466.s
    3 00000000         ; * @brief    CMSIS Cortex-M0+ Core Device Startup File 
                       for
    4 00000000         ; *           ML630Q466.
    5 00000000         ; * @version  1.00
    6 00000000         ; * @date     19 Apr 2016
    7 00000000         ; *
    8 00000000         ; * @note
    9 00000000         ; * Copyright (C) 2016 LAPIS Semiconductor Co., Ltd.  Al
                       l rights reserved.
   10 00000000         ; *
   11 00000000         ; * @par
   12 00000000         ; * This software is provided "as is" and any expressed 
                       or implied warranties,
   13 00000000         ; * including, but not limited to, the implied warrantie
                       s of merchantability
   14 00000000         ; * and fitness for a particular purpose are disclaimed.
                       
   15 00000000         ; * LAPIS Semiconductor shall not be liable for any dire
                       ct, indirect,
   16 00000000         ; * consequential or incidental damages arising from usi
                       ng or modifying
   17 00000000         ; * this software.
   18 00000000         ; * You can modify and use this software in whole or par
                       t on
   19 00000000         ; * your own responsibility, only for the purpose of dev
                       eloping the software
   20 00000000         ; * for use with microcontroller manufactured by LAPIS S
                       emiconductor.
   21 00000000         ; *
   22 00000000         ; *------- <<< Use Configuration Wizard in Context Menu 
                       >>> ------------------
   23 00000000         ; *
   24 00000000         ; ******************************************************
                       ************************/
   25 00000000         
   26 00000000         
   27 00000000         ; <h> Stack Configuration
   28 00000000         ;   <o> Stack Size (in Bytes) <0x0-0xFFFFFFFF:8>
   29 00000000         ; </h>
   30 00000000         
   31 00000000         ;Stack_Size      EQU     0x00000200
   32 00000000 00000400 
                       Stack_Size
                               EQU              0x00000400
   33 00000000         
   34 00000000                 AREA             STACK, NOINIT, READWRITE, ALIGN
=3
   35 00000000         Stack_Mem
                               SPACE            Stack_Size
   36 00000400         __initial_sp
   37 00000400         
   38 00000400         
   39 00000400         ; <h> Heap Configuration
   40 00000400         ;   <o>  Heap Size (in Bytes) <0x0-0xFFFFFFFF:8>
   41 00000400         ; </h>
   42 00000400         



ARM Macro Assembler    Page 2 


   43 00000400 00002000 
                       Heap_Size
                               EQU              0x00002000  ;  //2400  ;2800 ;2
                                                            AC0  ;2B60 ;2AC0 ;2
                                                            AF0 ;2B00 ;2AE0 ;2B
                                                            00 ;2AC0  ;2A00 ;28
                                                            00; 2000
   44 00000400         
   45 00000400                 AREA             HEAP, NOINIT, READWRITE, ALIGN=
3
   46 00000000         __heap_base
   47 00000000         Heap_Mem
                               SPACE            Heap_Size
   48 00002000         __heap_limit
   49 00002000         
   50 00002000         
   51 00002000                 PRESERVE8
   52 00002000                 THUMB
   53 00002000         
   54 00002000         
   55 00002000         ; Vector Table Mapped to Address 0 at Reset
   56 00002000                 AREA             RESET, DATA, READONLY
   57 00000000                 EXPORT           __Vectors
   58 00000000                 EXPORT           __Vectors_End
   59 00000000                 EXPORT           __Vectors_Size
   60 00000000         
   61 00000000 00000000 
                       __Vectors
                               DCD              __initial_sp ; Top of Stack
   62 00000004 00000000        DCD              Reset_Handler ; Reset Handler
   63 00000008 00000000        DCD              NMI_Handler ; NMI Handler
   64 0000000C 00000000        DCD              HardFault_Handler ; Hard Fault 
                                                            Handler
   65 00000010 00000000        DCD              0           ; Reserved
   66 00000014 00000000        DCD              0           ; Reserved
   67 00000018 00000000        DCD              0           ; Reserved
   68 0000001C 00000000        DCD              0           ; Reserved
   69 00000020 00000000        DCD              0           ; Reserved
   70 00000024 00000000        DCD              0           ; Reserved
   71 00000028 00000000        DCD              0           ; Reserved
   72 0000002C 00000000        DCD              SVC_Handler ; SVCall Handler
   73 00000030 00000000        DCD              0           ; Reserved
   74 00000034 00000000        DCD              0           ; Reserved
   75 00000038 00000000        DCD              PendSV_Handler ; PendSV Handler
                                                            
   76 0000003C 00000000        DCD              SysTick_Handler 
                                                            ; SysTick Handler
   77 00000040         
   78 00000040         ; External Interrupts
   79 00000040 00000000        DCD              EXI_IRQHandler ;  0:EXI
   80 00000044 00000000        DCD              TM0_IRQHandler ;  1:TM0
   81 00000048 00000000        DCD              TM1_IRQHandler ;  2:TM1
   82 0000004C 00000000        DCD              FTM0_IRQHandler ;  3:FTM0
   83 00000050 00000000        DCD              DMAC0_IRQHandler ;  4:DMAC0
   84 00000054 00000000        DCD              AES_IRQHandler ;  5:AES
   85 00000058 00000000        DCD              SIO0_IRQHandler ;  6:SIO0
   86 0000005C 00000000        DCD              I2C1_IRQHandler ;  7:I2C1
   87 00000060 00000000        DCD              UA0_IRQHandler ;  8:UA0
   88 00000064 00000000        DCD              TM2_IRQHandler ;  9:TM2



ARM Macro Assembler    Page 3 


   89 00000068 00000000        DCD              TM3_IRQHandler ;  10:TM3
   90 0000006C 00000000        DCD              FTM1_IRQHandler ;  11:FTM1
   91 00000070 00000000        DCD              DMAC1_IRQHandler ;  12:DMAC1
   92 00000074 00000000        DCD              CMP_IRQHandler ;  13:CMP
   93 00000078 00000000        DCD              SIOF0_IRQHandler ;  14:SIOF0
   94 0000007C 00000000        DCD              I2CF0_IRQHandler ;  15:I2CF0
   95 00000080 00000000        DCD              UAF0_IRQHandler ;  16:UAF0
   96 00000084 00000000        DCD              TM4_IRQHandler ;  17:TM4
   97 00000088 00000000        DCD              TM5_IRQHandler ;  18:TM5
   98 0000008C 00000000        DCD              FTM2_IRQHandler ;  19:FTM2
   99 00000090 00000000        DCD              LOSC_IRQHandler ;  20:LOSC
  100 00000094 00000000        DCD              VLS_IRQHandler ;  21:VLS
  101 00000098 00000000        DCD              SAD_IRQHandler ;  22:SAD
  102 0000009C 00000000        DCD              RAD_IRQHandler ;  23:RAD
  103 000000A0 00000000        DCD              USB_IRQHandler ;  24:USB
  104 000000A4 00000000        DCD              TM6_IRQHandler ;  25:TM6
  105 000000A8 00000000        DCD              TM7_IRQHandler ;  26:TM7
  106 000000AC 00000000        DCD              FTM3_IRQHandler ;  27:FTM3
  107 000000B0 00000000        DCD              RTC_IRQHandler ;  28:RTC
  108 000000B4 00000000        DCD              LTBC_IRQHandler ;  29:LTBC
  109 000000B8 00000000        DCD              TM1K_IRQHandler ;  30:TM1K
  110 000000BC 00000000        DCD              Default_Handler ;  31: Reserved
                                                            
  111 000000C0         
  112 000000C0         __Vectors_End
  113 000000C0         
  114 000000C0 000000C0 
                       __Vectors_Size
                               EQU              __Vectors_End - __Vectors
  115 000000C0         
  116 000000C0         
  117 000000C0                 AREA             |.text|, CODE, READONLY
  118 00000000         
  119 00000000         
  120 00000000         ; Reset Handler 
  121 00000000         
  122 00000000         ;                ENTRY
  123 00000000         
  124 00000000         Reset_Handler
                               PROC
  125 00000000                 EXPORT           Reset_Handler             [WEAK
]
  126 00000000                 IMPORT           SystemInit
  127 00000000                 IMPORT           __main
  128 00000000         
  129 00000000 4807            LDR              R0, =SystemInit
  130 00000002 4780            BLX              R0
  131 00000004 4807            LDR              R0, =__main
  132 00000006 4700            BX               R0
  133 00000008                 ENDP
  134 00000008         
  135 00000008         
  136 00000008         ; Dummy Exception Handlers (infinite loops which can be 
                       modified)
  137 00000008         
  138 00000008         NMI_Handler
                               PROC
  139 00000008                 EXPORT           NMI_Handler               [WEAK
]



ARM Macro Assembler    Page 4 


  140 00000008 E7FE            B                .
  141 0000000A                 ENDP
  143 0000000A         HardFault_Handler
                               PROC
  144 0000000A                 EXPORT           HardFault_Handler         [WEAK
]
  145 0000000A E7FE            B                .
  146 0000000C                 ENDP
  147 0000000C         SVC_Handler
                               PROC
  148 0000000C                 EXPORT           SVC_Handler               [WEAK
]
  149 0000000C E7FE            B                .
  150 0000000E                 ENDP
  151 0000000E         PendSV_Handler
                               PROC
  152 0000000E                 EXPORT           PendSV_Handler            [WEAK
]
  153 0000000E E7FE            B                .
  154 00000010                 ENDP
  155 00000010         SysTick_Handler
                               PROC
  156 00000010                 EXPORT           SysTick_Handler           [WEAK
]
  157 00000010 E7FE            B                .
  158 00000012                 ENDP
  159 00000012         
  160 00000012         Default_Handler
                               PROC
  161 00000012         
  162 00000012                 EXPORT           EXI_IRQHandler                 
[WEAK]
  163 00000012                 EXPORT           TM0_IRQHandler                 
[WEAK]
  164 00000012                 EXPORT           TM1_IRQHandler                 
[WEAK]
  165 00000012                 EXPORT           FTM0_IRQHandler                
[WEAK]
  166 00000012                 EXPORT           DMAC0_IRQHandler               
[WEAK]
  167 00000012                 EXPORT           AES_IRQHandler                 
[WEAK]
  168 00000012                 EXPORT           SIO0_IRQHandler                
[WEAK]
  169 00000012                 EXPORT           I2C1_IRQHandler                
[WEAK]
  170 00000012                 EXPORT           UA0_IRQHandler                 
[WEAK]
  171 00000012                 EXPORT           TM2_IRQHandler                 
[WEAK]
  172 00000012                 EXPORT           TM3_IRQHandler                 
[WEAK]
  173 00000012                 EXPORT           FTM1_IRQHandler                
[WEAK]
  174 00000012                 EXPORT           DMAC1_IRQHandler               
[WEAK]
  175 00000012                 EXPORT           CMP_IRQHandler                 
[WEAK]
  176 00000012                 EXPORT           SIOF0_IRQHandler               



ARM Macro Assembler    Page 5 


[WEAK]
  177 00000012                 EXPORT           I2CF0_IRQHandler               
[WEAK]
  178 00000012                 EXPORT           UAF0_IRQHandler                
[WEAK]
  179 00000012                 EXPORT           TM4_IRQHandler                 
[WEAK]
  180 00000012                 EXPORT           TM5_IRQHandler                 
[WEAK]
  181 00000012                 EXPORT           FTM2_IRQHandler                
[WEAK]
  182 00000012                 EXPORT           LOSC_IRQHandler                
[WEAK]
  183 00000012                 EXPORT           VLS_IRQHandler                 
[WEAK]
  184 00000012                 EXPORT           SAD_IRQHandler                 
[WEAK]
  185 00000012                 EXPORT           RAD_IRQHandler                 
[WEAK]
  186 00000012                 EXPORT           USB_IRQHandler                 
[WEAK]
  187 00000012                 EXPORT           TM6_IRQHandler                 
[WEAK]
  188 00000012                 EXPORT           TM7_IRQHandler                 
[WEAK]
  189 00000012                 EXPORT           FTM3_IRQHandler                
[WEAK]
  190 00000012                 EXPORT           RTC_IRQHandler                 
[WEAK]
  191 00000012                 EXPORT           LTBC_IRQHandler                
[WEAK]
  192 00000012                 EXPORT           TM1K_IRQHandler                
[WEAK]
  193 00000012                 EXPORT           Default_Handler                
[WEAK]
  194 00000012         
  195 00000012         EXI_IRQHandler
  196 00000012         TM0_IRQHandler
  197 00000012         TM1_IRQHandler
  198 00000012         FTM0_IRQHandler
  199 00000012         DMAC0_IRQHandler
  200 00000012         AES_IRQHandler
  201 00000012         SIO0_IRQHandler
  202 00000012         I2C1_IRQHandler
  203 00000012         UA0_IRQHandler
  204 00000012         TM2_IRQHandler
  205 00000012         TM3_IRQHandler
  206 00000012         FTM1_IRQHandler
  207 00000012         DMAC1_IRQHandler
  208 00000012         CMP_IRQHandler
  209 00000012         SIOF0_IRQHandler
  210 00000012         I2CF0_IRQHandler
  211 00000012         UAF0_IRQHandler
  212 00000012         TM4_IRQHandler
  213 00000012         TM5_IRQHandler
  214 00000012         FTM2_IRQHandler
  215 00000012         LOSC_IRQHandler
  216 00000012         VLS_IRQHandler
  217 00000012         SAD_IRQHandler



ARM Macro Assembler    Page 6 


  218 00000012         RAD_IRQHandler
  219 00000012         USB_IRQHandler
  220 00000012         TM6_IRQHandler
  221 00000012         TM7_IRQHandler
  222 00000012         FTM3_IRQHandler
  223 00000012         RTC_IRQHandler
  224 00000012         LTBC_IRQHandler
  225 00000012         TM1K_IRQHandler
  226 00000012 E7FE            B                .
  227 00000014                 ENDP
  228 00000014         
  229 00000014         
  230 00000014                 ALIGN
  231 00000014         
  232 00000014         
  233 00000014         ; User Initial Stack & Heap
  234 00000014         
  235 00000014                 IF               :DEF:__MICROLIB
  242 00000014         
  243 00000014                 IMPORT           __use_two_region_memory
  244 00000014                 EXPORT           __user_initial_stackheap
  245 00000014         __user_initial_stackheap
  246 00000014         
  247 00000014 4804            LDR              R0, =  Heap_Mem
  248 00000016 4905            LDR              R1, = (Stack_Mem + Stack_Size)
  249 00000018 4A05            LDR              R2, = (Heap_Mem +  Heap_Size)
  250 0000001A 4B06            LDR              R3, = Stack_Mem
  251 0000001C 4770            BX               LR
  252 0000001E         
  253 0000001E 00 00           ALIGN
  254 00000020         
  255 00000020                 ENDIF
  256 00000020         
  257 00000020         
  258 00000020                 END
              00000000 
              00000000 
              00000000 
              00000400 
              00002000 
              00000000 
Command Line: --debug --xref --diag_suppress=9931 --cpu=Cortex-M0+ --apcs=inter
work --depend=.\objects\startup_ml630q466.d -o.\objects\startup_ml630q466.o -ID
:\Project\P014\L_PRG\proj\MDK\RTE -ID:\Project\P014\L_PRG\proj\MDK\RTE\Device\M
L630Q466 -IC:\Keil_v5\ARM\PACK\ARM\CMSIS\5.0.0\CMSIS\Include -I"C:\Keil_v5\ARM\
PACK\LAPIS Semiconductor\ML630Q466_DFP\1.0.0\Device\Include" -I"C:\Keil_v5\ARM\
PACK\LAPIS Semiconductor\ML630Q466_DFP\1.0.0\RTE_Driver\Config" -IC:\Keil_v5\AR
M\PACK\LAPISSemiconductor\ML630Q46x_DFP\1.0.2\Device\Include --predefine="__UVI
SION_VERSION SETA 521" --predefine="_RTE_ SETA 1" --list=.\listings\startup_ml6
30q466.lst RTE\Device\ML630Q466\startup_ML630Q466.s



ARM Macro Assembler    Page 1 Alphabetic symbol ordering
Relocatable symbols

STACK 00000000

Symbol: STACK
   Definitions
      At line 34 in file RTE\Device\ML630Q466\startup_ML630Q466.s
   Uses
      None
Comment: STACK unused
Stack_Mem 00000000

Symbol: Stack_Mem
   Definitions
      At line 35 in file RTE\Device\ML630Q466\startup_ML630Q466.s
   Uses
      At line 248 in file RTE\Device\ML630Q466\startup_ML630Q466.s
      At line 250 in file RTE\Device\ML630Q466\startup_ML630Q466.s

__initial_sp 00000400

Symbol: __initial_sp
   Definitions
      At line 36 in file RTE\Device\ML630Q466\startup_ML630Q466.s
   Uses
      At line 61 in file RTE\Device\ML630Q466\startup_ML630Q466.s
Comment: __initial_sp used once
3 symbols



ARM Macro Assembler    Page 1 Alphabetic symbol ordering
Relocatable symbols

HEAP 00000000

Symbol: HEAP
   Definitions
      At line 45 in file RTE\Device\ML630Q466\startup_ML630Q466.s
   Uses
      None
Comment: HEAP unused
Heap_Mem 00000000

Symbol: Heap_Mem
   Definitions
      At line 47 in file RTE\Device\ML630Q466\startup_ML630Q466.s
   Uses
      At line 247 in file RTE\Device\ML630Q466\startup_ML630Q466.s
      At line 249 in file RTE\Device\ML630Q466\startup_ML630Q466.s

__heap_base 00000000

Symbol: __heap_base
   Definitions
      At line 46 in file RTE\Device\ML630Q466\startup_ML630Q466.s
   Uses
      None
Comment: __heap_base unused
__heap_limit 00002000

Symbol: __heap_limit
   Definitions
      At line 48 in file RTE\Device\ML630Q466\startup_ML630Q466.s
   Uses
      None
Comment: __heap_limit unused
4 symbols



ARM Macro Assembler    Page 1 Alphabetic symbol ordering
Relocatable symbols

RESET 00000000

Symbol: RESET
   Definitions
      At line 56 in file RTE\Device\ML630Q466\startup_ML630Q466.s
   Uses
      None
Comment: RESET unused
__Vectors 00000000

Symbol: __Vectors
   Definitions
      At line 61 in file RTE\Device\ML630Q466\startup_ML630Q466.s
   Uses
      At line 57 in file RTE\Device\ML630Q466\startup_ML630Q466.s
      At line 114 in file RTE\Device\ML630Q466\startup_ML630Q466.s

__Vectors_End 000000C0

Symbol: __Vectors_End
   Definitions
      At line 112 in file RTE\Device\ML630Q466\startup_ML630Q466.s
   Uses
      At line 58 in file RTE\Device\ML630Q466\startup_ML630Q466.s
      At line 114 in file RTE\Device\ML630Q466\startup_ML630Q466.s

3 symbols



ARM Macro Assembler    Page 1 Alphabetic symbol ordering
Relocatable symbols

.text 00000000

Symbol: .text
   Definitions
      At line 117 in file RTE\Device\ML630Q466\startup_ML630Q466.s
   Uses
      None
Comment: .text unused
AES_IRQHandler 00000012

Symbol: AES_IRQHandler
   Definitions
      At line 200 in file RTE\Device\ML630Q466\startup_ML630Q466.s
   Uses
      At line 84 in file RTE\Device\ML630Q466\startup_ML630Q466.s
      At line 167 in file RTE\Device\ML630Q466\startup_ML630Q466.s

CMP_IRQHandler 00000012

Symbol: CMP_IRQHandler
   Definitions
      At line 208 in file RTE\Device\ML630Q466\startup_ML630Q466.s
   Uses
      At line 92 in file RTE\Device\ML630Q466\startup_ML630Q466.s
      At line 175 in file RTE\Device\ML630Q466\startup_ML630Q466.s

DMAC0_IRQHandler 00000012

Symbol: DMAC0_IRQHandler
   Definitions
      At line 199 in file RTE\Device\ML630Q466\startup_ML630Q466.s
   Uses
      At line 83 in file RTE\Device\ML630Q466\startup_ML630Q466.s
      At line 166 in file RTE\Device\ML630Q466\startup_ML630Q466.s

DMAC1_IRQHandler 00000012

Symbol: DMAC1_IRQHandler
   Definitions
      At line 207 in file RTE\Device\ML630Q466\startup_ML630Q466.s
   Uses
      At line 91 in file RTE\Device\ML630Q466\startup_ML630Q466.s
      At line 174 in file RTE\Device\ML630Q466\startup_ML630Q466.s

Default_Handler 00000012

Symbol: Default_Handler
   Definitions
      At line 160 in file RTE\Device\ML630Q466\startup_ML630Q466.s
   Uses
      At line 110 in file RTE\Device\ML630Q466\startup_ML630Q466.s
      At line 193 in file RTE\Device\ML630Q466\startup_ML630Q466.s

EXI_IRQHandler 00000012

Symbol: EXI_IRQHandler
   Definitions
      At line 195 in file RTE\Device\ML630Q466\startup_ML630Q466.s
   Uses



ARM Macro Assembler    Page 2 Alphabetic symbol ordering
Relocatable symbols

      At line 79 in file RTE\Device\ML630Q466\startup_ML630Q466.s
      At line 162 in file RTE\Device\ML630Q466\startup_ML630Q466.s

FTM0_IRQHandler 00000012

Symbol: FTM0_IRQHandler
   Definitions
      At line 198 in file RTE\Device\ML630Q466\startup_ML630Q466.s
   Uses
      At line 82 in file RTE\Device\ML630Q466\startup_ML630Q466.s
      At line 165 in file RTE\Device\ML630Q466\startup_ML630Q466.s

FTM1_IRQHandler 00000012

Symbol: FTM1_IRQHandler
   Definitions
      At line 206 in file RTE\Device\ML630Q466\startup_ML630Q466.s
   Uses
      At line 90 in file RTE\Device\ML630Q466\startup_ML630Q466.s
      At line 173 in file RTE\Device\ML630Q466\startup_ML630Q466.s

FTM2_IRQHandler 00000012

Symbol: FTM2_IRQHandler
   Definitions
      At line 214 in file RTE\Device\ML630Q466\startup_ML630Q466.s
   Uses
      At line 98 in file RTE\Device\ML630Q466\startup_ML630Q466.s
      At line 181 in file RTE\Device\ML630Q466\startup_ML630Q466.s

FTM3_IRQHandler 00000012

Symbol: FTM3_IRQHandler
   Definitions
      At line 222 in file RTE\Device\ML630Q466\startup_ML630Q466.s
   Uses
      At line 106 in file RTE\Device\ML630Q466\startup_ML630Q466.s
      At line 189 in file RTE\Device\ML630Q466\startup_ML630Q466.s

HardFault_Handler 0000000A

Symbol: HardFault_Handler
   Definitions
      At line 143 in file RTE\Device\ML630Q466\startup_ML630Q466.s
   Uses
      At line 64 in file RTE\Device\ML630Q466\startup_ML630Q466.s
      At line 144 in file RTE\Device\ML630Q466\startup_ML630Q466.s

I2C1_IRQHandler 00000012

Symbol: I2C1_IRQHandler
   Definitions
      At line 202 in file RTE\Device\ML630Q466\startup_ML630Q466.s
   Uses
      At line 86 in file RTE\Device\ML630Q466\startup_ML630Q466.s
      At line 169 in file RTE\Device\ML630Q466\startup_ML630Q466.s

I2CF0_IRQHandler 00000012




ARM Macro Assembler    Page 3 Alphabetic symbol ordering
Relocatable symbols

Symbol: I2CF0_IRQHandler
   Definitions
      At line 210 in file RTE\Device\ML630Q466\startup_ML630Q466.s
   Uses
      At line 94 in file RTE\Device\ML630Q466\startup_ML630Q466.s
      At line 177 in file RTE\Device\ML630Q466\startup_ML630Q466.s

LOSC_IRQHandler 00000012

Symbol: LOSC_IRQHandler
   Definitions
      At line 215 in file RTE\Device\ML630Q466\startup_ML630Q466.s
   Uses
      At line 99 in file RTE\Device\ML630Q466\startup_ML630Q466.s
      At line 182 in file RTE\Device\ML630Q466\startup_ML630Q466.s

LTBC_IRQHandler 00000012

Symbol: LTBC_IRQHandler
   Definitions
      At line 224 in file RTE\Device\ML630Q466\startup_ML630Q466.s
   Uses
      At line 108 in file RTE\Device\ML630Q466\startup_ML630Q466.s
      At line 191 in file RTE\Device\ML630Q466\startup_ML630Q466.s

NMI_Handler 00000008

Symbol: NMI_Handler
   Definitions
      At line 138 in file RTE\Device\ML630Q466\startup_ML630Q466.s
   Uses
      At line 63 in file RTE\Device\ML630Q466\startup_ML630Q466.s
      At line 139 in file RTE\Device\ML630Q466\startup_ML630Q466.s

PendSV_Handler 0000000E

Symbol: PendSV_Handler
   Definitions
      At line 151 in file RTE\Device\ML630Q466\startup_ML630Q466.s
   Uses
      At line 75 in file RTE\Device\ML630Q466\startup_ML630Q466.s
      At line 152 in file RTE\Device\ML630Q466\startup_ML630Q466.s

RAD_IRQHandler 00000012

Symbol: RAD_IRQHandler
   Definitions
      At line 218 in file RTE\Device\ML630Q466\startup_ML630Q466.s
   Uses
      At line 102 in file RTE\Device\ML630Q466\startup_ML630Q466.s
      At line 185 in file RTE\Device\ML630Q466\startup_ML630Q466.s

RTC_IRQHandler 00000012

Symbol: RTC_IRQHandler
   Definitions
      At line 223 in file RTE\Device\ML630Q466\startup_ML630Q466.s
   Uses
      At line 107 in file RTE\Device\ML630Q466\startup_ML630Q466.s



ARM Macro Assembler    Page 4 Alphabetic symbol ordering
Relocatable symbols

      At line 190 in file RTE\Device\ML630Q466\startup_ML630Q466.s

Reset_Handler 00000000

Symbol: Reset_Handler
   Definitions
      At line 124 in file RTE\Device\ML630Q466\startup_ML630Q466.s
   Uses
      At line 62 in file RTE\Device\ML630Q466\startup_ML630Q466.s
      At line 125 in file RTE\Device\ML630Q466\startup_ML630Q466.s

SAD_IRQHandler 00000012

Symbol: SAD_IRQHandler
   Definitions
      At line 217 in file RTE\Device\ML630Q466\startup_ML630Q466.s
   Uses
      At line 101 in file RTE\Device\ML630Q466\startup_ML630Q466.s
      At line 184 in file RTE\Device\ML630Q466\startup_ML630Q466.s

SIO0_IRQHandler 00000012

Symbol: SIO0_IRQHandler
   Definitions
      At line 201 in file RTE\Device\ML630Q466\startup_ML630Q466.s
   Uses
      At line 85 in file RTE\Device\ML630Q466\startup_ML630Q466.s
      At line 168 in file RTE\Device\ML630Q466\startup_ML630Q466.s

SIOF0_IRQHandler 00000012

Symbol: SIOF0_IRQHandler
   Definitions
      At line 209 in file RTE\Device\ML630Q466\startup_ML630Q466.s
   Uses
      At line 93 in file RTE\Device\ML630Q466\startup_ML630Q466.s
      At line 176 in file RTE\Device\ML630Q466\startup_ML630Q466.s

SVC_Handler 0000000C

Symbol: SVC_Handler
   Definitions
      At line 147 in file RTE\Device\ML630Q466\startup_ML630Q466.s
   Uses
      At line 72 in file RTE\Device\ML630Q466\startup_ML630Q466.s
      At line 148 in file RTE\Device\ML630Q466\startup_ML630Q466.s

SysTick_Handler 00000010

Symbol: SysTick_Handler
   Definitions
      At line 155 in file RTE\Device\ML630Q466\startup_ML630Q466.s
   Uses
      At line 76 in file RTE\Device\ML630Q466\startup_ML630Q466.s
      At line 156 in file RTE\Device\ML630Q466\startup_ML630Q466.s

TM0_IRQHandler 00000012

Symbol: TM0_IRQHandler



ARM Macro Assembler    Page 5 Alphabetic symbol ordering
Relocatable symbols

   Definitions
      At line 196 in file RTE\Device\ML630Q466\startup_ML630Q466.s
   Uses
      At line 80 in file RTE\Device\ML630Q466\startup_ML630Q466.s
      At line 163 in file RTE\Device\ML630Q466\startup_ML630Q466.s

TM1K_IRQHandler 00000012

Symbol: TM1K_IRQHandler
   Definitions
      At line 225 in file RTE\Device\ML630Q466\startup_ML630Q466.s
   Uses
      At line 109 in file RTE\Device\ML630Q466\startup_ML630Q466.s
      At line 192 in file RTE\Device\ML630Q466\startup_ML630Q466.s

TM1_IRQHandler 00000012

Symbol: TM1_IRQHandler
   Definitions
      At line 197 in file RTE\Device\ML630Q466\startup_ML630Q466.s
   Uses
      At line 81 in file RTE\Device\ML630Q466\startup_ML630Q466.s
      At line 164 in file RTE\Device\ML630Q466\startup_ML630Q466.s

TM2_IRQHandler 00000012

Symbol: TM2_IRQHandler
   Definitions
      At line 204 in file RTE\Device\ML630Q466\startup_ML630Q466.s
   Uses
      At line 88 in file RTE\Device\ML630Q466\startup_ML630Q466.s
      At line 171 in file RTE\Device\ML630Q466\startup_ML630Q466.s

TM3_IRQHandler 00000012

Symbol: TM3_IRQHandler
   Definitions
      At line 205 in file RTE\Device\ML630Q466\startup_ML630Q466.s
   Uses
      At line 89 in file RTE\Device\ML630Q466\startup_ML630Q466.s
      At line 172 in file RTE\Device\ML630Q466\startup_ML630Q466.s

TM4_IRQHandler 00000012

Symbol: TM4_IRQHandler
   Definitions
      At line 212 in file RTE\Device\ML630Q466\startup_ML630Q466.s
   Uses
      At line 96 in file RTE\Device\ML630Q466\startup_ML630Q466.s
      At line 179 in file RTE\Device\ML630Q466\startup_ML630Q466.s

TM5_IRQHandler 00000012

Symbol: TM5_IRQHandler
   Definitions
      At line 213 in file RTE\Device\ML630Q466\startup_ML630Q466.s
   Uses
      At line 97 in file RTE\Device\ML630Q466\startup_ML630Q466.s
      At line 180 in file RTE\Device\ML630Q466\startup_ML630Q466.s



ARM Macro Assembler    Page 6 Alphabetic symbol ordering
Relocatable symbols


TM6_IRQHandler 00000012

Symbol: TM6_IRQHandler
   Definitions
      At line 220 in file RTE\Device\ML630Q466\startup_ML630Q466.s
   Uses
      At line 104 in file RTE\Device\ML630Q466\startup_ML630Q466.s
      At line 187 in file RTE\Device\ML630Q466\startup_ML630Q466.s

TM7_IRQHandler 00000012

Symbol: TM7_IRQHandler
   Definitions
      At line 221 in file RTE\Device\ML630Q466\startup_ML630Q466.s
   Uses
      At line 105 in file RTE\Device\ML630Q466\startup_ML630Q466.s
      At line 188 in file RTE\Device\ML630Q466\startup_ML630Q466.s

UA0_IRQHandler 00000012

Symbol: UA0_IRQHandler
   Definitions
      At line 203 in file RTE\Device\ML630Q466\startup_ML630Q466.s
   Uses
      At line 87 in file RTE\Device\ML630Q466\startup_ML630Q466.s
      At line 170 in file RTE\Device\ML630Q466\startup_ML630Q466.s

UAF0_IRQHandler 00000012

Symbol: UAF0_IRQHandler
   Definitions
      At line 211 in file RTE\Device\ML630Q466\startup_ML630Q466.s
   Uses
      At line 95 in file RTE\Device\ML630Q466\startup_ML630Q466.s
      At line 178 in file RTE\Device\ML630Q466\startup_ML630Q466.s

USB_IRQHandler 00000012

Symbol: USB_IRQHandler
   Definitions
      At line 219 in file RTE\Device\ML630Q466\startup_ML630Q466.s
   Uses
      At line 103 in file RTE\Device\ML630Q466\startup_ML630Q466.s
      At line 186 in file RTE\Device\ML630Q466\startup_ML630Q466.s

VLS_IRQHandler 00000012

Symbol: VLS_IRQHandler
   Definitions
      At line 216 in file RTE\Device\ML630Q466\startup_ML630Q466.s
   Uses
      At line 100 in file RTE\Device\ML630Q466\startup_ML630Q466.s
      At line 183 in file RTE\Device\ML630Q466\startup_ML630Q466.s

__user_initial_stackheap 00000014

Symbol: __user_initial_stackheap
   Definitions



ARM Macro Assembler    Page 7 Alphabetic symbol ordering
Relocatable symbols

      At line 245 in file RTE\Device\ML630Q466\startup_ML630Q466.s
   Uses
      At line 244 in file RTE\Device\ML630Q466\startup_ML630Q466.s
Comment: __user_initial_stackheap used once
40 symbols



ARM Macro Assembler    Page 1 Alphabetic symbol ordering
Absolute symbols

Heap_Size 00002000

Symbol: Heap_Size
   Definitions
      At line 43 in file RTE\Device\ML630Q466\startup_ML630Q466.s
   Uses
      At line 47 in file RTE\Device\ML630Q466\startup_ML630Q466.s
      At line 249 in file RTE\Device\ML630Q466\startup_ML630Q466.s

Stack_Size 00000400

Symbol: Stack_Size
   Definitions
      At line 32 in file RTE\Device\ML630Q466\startup_ML630Q466.s
   Uses
      At line 35 in file RTE\Device\ML630Q466\startup_ML630Q466.s
      At line 248 in file RTE\Device\ML630Q466\startup_ML630Q466.s

__Vectors_Size 000000C0

Symbol: __Vectors_Size
   Definitions
      At line 114 in file RTE\Device\ML630Q466\startup_ML630Q466.s
   Uses
      At line 59 in file RTE\Device\ML630Q466\startup_ML630Q466.s
Comment: __Vectors_Size used once
3 symbols



ARM Macro Assembler    Page 1 Alphabetic symbol ordering
External symbols

SystemInit 00000000

Symbol: SystemInit
   Definitions
      At line 126 in file RTE\Device\ML630Q466\startup_ML630Q466.s
   Uses
      At line 129 in file RTE\Device\ML630Q466\startup_ML630Q466.s
Comment: SystemInit used once
__main 00000000

Symbol: __main
   Definitions
      At line 127 in file RTE\Device\ML630Q466\startup_ML630Q466.s
   Uses
      At line 131 in file RTE\Device\ML630Q466\startup_ML630Q466.s
Comment: __main used once
__use_two_region_memory 00000000

Symbol: __use_two_region_memory
   Definitions
      At line 243 in file RTE\Device\ML630Q466\startup_ML630Q466.s
   Uses
      None
Comment: __use_two_region_memory unused
3 symbols
392 symbols in table
